{"abi":[{"inputs":[],"stateMutability":"nonpayable","type":"constructor"},{"inputs":[{"internalType":"address","name":"_newAdmin","type":"address"}],"name":"addNewAdmin","outputs":[{"internalType":"bool","name":"","type":"bool"}],"stateMutability":"nonpayable","type":"function"},{"inputs":[{"internalType":"address","name":"_newSuperAdmin","type":"address"}],"name":"addNewSuperAdmin","outputs":[{"internalType":"bool","name":"","type":"bool"}],"stateMutability":"nonpayable","type":"function"},{"inputs":[{"internalType":"address","name":"_newUser","type":"address"}],"name":"addNewUser","outputs":[{"internalType":"bool","name":"","type":"bool"}],"stateMutability":"nonpayable","type":"function"},{"inputs":[{"internalType":"uint256","name":"_propId","type":"uint256"}],"name":"approveChangeOwnership","outputs":[{"internalType":"bool","name":"","type":"bool"}],"stateMutability":"nonpayable","type":"function"},{"inputs":[{"internalType":"uint256","name":"_propId","type":"uint256"}],"name":"approveProperty","outputs":[{"internalType":"bool","name":"","type":"bool"}],"stateMutability":"nonpayable","type":"function"},{"inputs":[{"internalType":"address","name":"_newUser","type":"address"}],"name":"approveUsers","outputs":[{"internalType":"bool","name":"","type":"bool"}],"stateMutability":"nonpayable","type":"function"},{"inputs":[{"internalType":"uint256","name":"_propId","type":"uint256"},{"internalType":"address","name":"_newOwner","type":"address"}],"name":"changeOwnership","outputs":[{"internalType":"bool","name":"","type":"bool"}],"stateMutability":"nonpayable","type":"function"},{"inputs":[{"internalType":"uint256","name":"_propId","type":"uint256"},{"internalType":"uint256","name":"_newValue","type":"uint256"}],"name":"changeValue","outputs":[{"internalType":"bool","name":"","type":"bool"}],"stateMutability":"nonpayable","type":"function"},{"inputs":[{"internalType":"uint256","name":"_value","type":"uint256"},{"internalType":"address","name":"_owner","type":"address"}],"name":"createProperty","outputs":[{"internalType":"uint256","name":"","type":"uint256"}],"stateMutability":"nonpayable","type":"function"},{"inputs":[],"name":"creatorAdmin","outputs":[{"internalType":"address","name":"","type":"address"}],"stateMutability":"view","type":"function"},{"inputs":[],"name":"getProperties","outputs":[{"internalType":"enum PropertyOwnership.Status[]","name":"","type":"uint8[]"},{"internalType":"uint256[]","name":"","type":"uint256[]"},{"internalType":"address[]","name":"","type":"address[]"}],"stateMutability":"view","type":"function"},{"inputs":[{"internalType":"uint256","name":"_propId","type":"uint256"}],"name":"getPropertyDetails","outputs":[{"internalType":"enum PropertyOwnership.Status","name":"","type":"uint8"},{"internalType":"uint256","name":"","type":"uint256"},{"internalType":"address","name":"","type":"address"}],"stateMutability":"view","type":"function"},{"inputs":[],"name":"propId","outputs":[{"internalType":"uint256","name":"","type":"uint256"}],"stateMutability":"view","type":"function"},{"inputs":[{"internalType":"uint256","name":"","type":"uint256"}],"name":"propOwnerChange","outputs":[{"internalType":"address","name":"","type":"address"}],"stateMutability":"view","type":"function"},{"inputs":[{"internalType":"uint256","name":"","type":"uint256"}],"name":"properties","outputs":[{"internalType":"enum PropertyOwnership.Status","name":"status","type":"uint8"},{"internalType":"uint256","name":"value","type":"uint256"},{"internalType":"address","name":"currOwner","type":"address"}],"stateMutability":"view","type":"function"},{"inputs":[{"internalType":"uint256","name":"_propId","type":"uint256"}],"name":"rejectProperty","outputs":[{"internalType":"bool","name":"","type":"bool"}],"stateMutability":"nonpayable","type":"function"},{"inputs":[{"internalType":"address","name":"user","type":"address"}],"name":"removeSuperAdmin","outputs":[{"internalType":"bool","name":"","type":"bool"}],"stateMutability":"nonpayable","type":"function"},{"inputs":[{"internalType":"address","name":"user","type":"address"}],"name":"removeUsers","outputs":[{"internalType":"bool","name":"","type":"bool"}],"stateMutability":"nonpayable","type":"function"},{"inputs":[{"internalType":"address","name":"","type":"address"}],"name":"users","outputs":[{"internalType":"int256","name":"","type":"int256"}],"stateMutability":"view","type":"function"},{"inputs":[{"internalType":"address","name":"","type":"address"}],"name":"verifiedUsers","outputs":[{"internalType":"bool","name":"","type":"bool"}],"stateMutability":"view","type":"function"}],"devdoc":{"kind":"dev","methods":{},"version":1},"evm":{"assembly":"    /* \"PropertyOwnership.sol\":64:6050  contract PropertyOwnership {\r... */\n  mstore(0x40, 0x80)\n    /* \"PropertyOwnership.sol\":1260:1394  constructor() {\r... */\n  callvalue\n  dup1\n  iszero\n  tag_1\n  jumpi\n  0x00\n  dup1\n  revert\ntag_1:\n  pop\n    /* \"PropertyOwnership.sol\":1291:1292  1 */\n  0x01\n    /* \"PropertyOwnership.sol\":1282:1288  propId */\n  dup1\n    /* \"PropertyOwnership.sol\":1282:1292  propId = 1 */\n  dup2\n  swap1\n  sstore\n  pop\n    /* \"PropertyOwnership.sol\":1312:1322  msg.sender */\n  caller\n    /* \"PropertyOwnership.sol\":1297:1309  creatorAdmin */\n  0x00\n  dup1\n    /* \"PropertyOwnership.sol\":1297:1322  creatorAdmin = msg.sender */\n  0x0100\n  exp\n  dup2\n  sload\n  dup2\n  0xffffffffffffffffffffffffffffffffffffffff\n  mul\n  not\n  and\n  swap1\n  dup4\n  0xffffffffffffffffffffffffffffffffffffffff\n  and\n  mul\n  or\n  swap1\n  sstore\n  pop\n    /* \"PropertyOwnership.sol\":1349:1350  3 */\n  0x03\n    /* \"PropertyOwnership.sol\":1327:1332  users */\n  0x04\n    /* \"PropertyOwnership.sol\":1327:1346  users[creatorAdmin] */\n  0x00\n    /* \"PropertyOwnership.sol\":1333:1345  creatorAdmin */\n  dup1\n  0x00\n  swap1\n  sload\n  swap1\n  0x0100\n  exp\n  swap1\n  div\n  0xffffffffffffffffffffffffffffffffffffffff\n  and\n    /* \"PropertyOwnership.sol\":1327:1346  users[creatorAdmin] */\n  0xffffffffffffffffffffffffffffffffffffffff\n  and\n  0xffffffffffffffffffffffffffffffffffffffff\n  and\n  dup2\n  mstore\n  0x20\n  add\n  swap1\n  dup2\n  mstore\n  0x20\n  add\n  0x00\n  keccak256\n    /* \"PropertyOwnership.sol\":1327:1350  users[creatorAdmin] = 3 */\n  dup2\n  swap1\n  sstore\n  pop\n    /* \"PropertyOwnership.sol\":1385:1389  true */\n  0x01\n    /* \"PropertyOwnership.sol\":1355:1368  verifiedUsers */\n  0x05\n    /* \"PropertyOwnership.sol\":1355:1382  verifiedUsers[creatorAdmin] */\n  0x00\n    /* \"PropertyOwnership.sol\":1369:1381  creatorAdmin */\n  dup1\n  0x00\n  swap1\n  sload\n  swap1\n  0x0100\n  exp\n  swap1\n  div\n  0xffffffffffffffffffffffffffffffffffffffff\n  and\n    /* \"PropertyOwnership.sol\":1355:1382  verifiedUsers[creatorAdmin] */\n  0xffffffffffffffffffffffffffffffffffffffff\n  and\n  0xffffffffffffffffffffffffffffffffffffffff\n  and\n  dup2\n  mstore\n  0x20\n  add\n  swap1\n  dup2\n  mstore\n  0x20\n  add\n  0x00\n  keccak256\n  0x00\n    /* \"PropertyOwnership.sol\":1355:1389  verifiedUsers[creatorAdmin] = true */\n  0x0100\n  exp\n  dup2\n  sload\n  dup2\n  0xff\n  mul\n  not\n  and\n  swap1\n  dup4\n  iszero\n  iszero\n  mul\n  or\n  swap1\n  sstore\n  pop\n    /* \"PropertyOwnership.sol\":64:6050  contract PropertyOwnership {\r... */\n  dataSize(sub_0)\n  dup1\n  dataOffset(sub_0)\n  0x00\n  codecopy\n  0x00\n  return\nstop\n\nsub_0: assembly {\n        /* \"PropertyOwnership.sol\":64:6050  contract PropertyOwnership {\r... */\n      mstore(0x40, 0x80)\n      callvalue\n      dup1\n      iszero\n      tag_1\n      jumpi\n      0x00\n      dup1\n      revert\n    tag_1:\n      pop\n      jumpi(tag_2, lt(calldatasize, 0x04))\n      shr(0xe0, calldataload(0x00))\n      dup1\n      0x9935c963\n      gt\n      tag_23\n      jumpi\n      dup1\n      0xe35fe366\n      gt\n      tag_24\n      jumpi\n      dup1\n      0xe35fe366\n      eq\n      tag_18\n      jumpi\n      dup1\n      0xe9b66f8c\n      eq\n      tag_19\n      jumpi\n      dup1\n      0xec0cfd0b\n      eq\n      tag_20\n      jumpi\n      dup1\n      0xeeb294e2\n      eq\n      tag_21\n      jumpi\n      dup1\n      0xf7b10808\n      eq\n      tag_22\n      jumpi\n      jump(tag_2)\n    tag_24:\n      dup1\n      0x9935c963\n      eq\n      tag_13\n      jumpi\n      dup1\n      0x9c4ea46a\n      eq\n      tag_14\n      jumpi\n      dup1\n      0xa87430ba\n      eq\n      tag_15\n      jumpi\n      dup1\n      0xbe1d0441\n      eq\n      tag_16\n      jumpi\n      dup1\n      0xc1d5e84f\n      eq\n      tag_17\n      jumpi\n      jump(tag_2)\n    tag_23:\n      dup1\n      0x4902e4aa\n      gt\n      tag_25\n      jumpi\n      dup1\n      0x4902e4aa\n      eq\n      tag_8\n      jumpi\n      dup1\n      0x4c82d0e4\n      eq\n      tag_9\n      jumpi\n      dup1\n      0x7b855bf0\n      eq\n      tag_10\n      jumpi\n      dup1\n      0x8709b2e7\n      eq\n      tag_11\n      jumpi\n      dup1\n      0x89b3887e\n      eq\n      tag_12\n      jumpi\n      jump(tag_2)\n    tag_25:\n      dup1\n      0x0a1b10e1\n      eq\n      tag_3\n      jumpi\n      dup1\n      0x126dbe43\n      eq\n      tag_4\n      jumpi\n      dup1\n      0x27983fcf\n      eq\n      tag_5\n      jumpi\n      dup1\n      0x32282f8e\n      eq\n      tag_6\n      jumpi\n      dup1\n      0x422fd14e\n      eq\n      tag_7\n      jumpi\n    tag_2:\n      0x00\n      dup1\n      revert\n        /* \"PropertyOwnership.sol\":4453:4716  function addNewAdmin(address _newAdmin) public verifiedSuperAdmin returns (bool) {\r... */\n    tag_3:\n      tag_26\n      0x04\n      dup1\n      calldatasize\n      sub\n      dup2\n      add\n      swap1\n      tag_27\n      swap2\n      swap1\n      tag_28\n      jump\t// in\n    tag_27:\n      tag_29\n      jump\t// in\n    tag_26:\n      mload(0x40)\n      tag_30\n      swap2\n      swap1\n      tag_31\n      jump\t// in\n    tag_30:\n      mload(0x40)\n      dup1\n      swap2\n      sub\n      swap1\n      return\n        /* \"PropertyOwnership.sol\":3459:3648  function getPropertyDetails(uint _propId) public view returns (Status, uint, address) {\r... */\n    tag_4:\n      tag_32\n      0x04\n      dup1\n      calldatasize\n      sub\n      dup2\n      add\n      swap1\n      tag_33\n      swap2\n      swap1\n      tag_34\n      jump\t// in\n    tag_33:\n      tag_35\n      jump\t// in\n    tag_32:\n      mload(0x40)\n      tag_36\n      swap4\n      swap3\n      swap2\n      swap1\n      tag_37\n      jump\t// in\n    tag_36:\n      mload(0x40)\n      dup1\n      swap2\n      sub\n      swap1\n      return\n        /* \"PropertyOwnership.sol\":1992:2249  function rejectProperty(uint _propId) public verifiedSuperAdmin returns (bool){\r... */\n    tag_5:\n      tag_38\n      0x04\n      dup1\n      calldatasize\n      sub\n      dup2\n      add\n      swap1\n      tag_39\n      swap2\n      swap1\n      tag_34\n      jump\t// in\n    tag_39:\n      tag_40\n      jump\t// in\n    tag_38:\n      mload(0x40)\n      tag_41\n      swap2\n      swap1\n      tag_31\n      jump\t// in\n    tag_41:\n      mload(0x40)\n      dup1\n      swap2\n      sub\n      swap1\n      return\n        /* \"PropertyOwnership.sol\":5827:6047  function approveUsers(address _newUser) public verifiedSuperAdmin returns (bool) {\r... */\n    tag_6:\n      tag_42\n      0x04\n      dup1\n      calldatasize\n      sub\n      dup2\n      add\n      swap1\n      tag_43\n      swap2\n      swap1\n      tag_28\n      jump\t// in\n    tag_43:\n      tag_44\n      jump\t// in\n    tag_42:\n      mload(0x40)\n      tag_45\n      swap2\n      swap1\n      tag_31\n      jump\t// in\n    tag_45:\n      mload(0x40)\n      dup1\n      swap2\n      sub\n      swap1\n      return\n        /* \"PropertyOwnership.sol\":134:152  uint public propId */\n    tag_7:\n      tag_46\n      tag_47\n      jump\t// in\n    tag_46:\n      mload(0x40)\n      tag_48\n      swap2\n      swap1\n      tag_49\n      jump\t// in\n    tag_48:\n      mload(0x40)\n      dup1\n      swap2\n      sub\n      swap1\n      return\n        /* \"PropertyOwnership.sol\":5420:5803  function removeSuperAdmin(address user) public verifiedSuperAdmin returns (bool) {\r... */\n    tag_8:\n      tag_50\n      0x04\n      dup1\n      calldatasize\n      sub\n      dup2\n      add\n      swap1\n      tag_51\n      swap2\n      swap1\n      tag_28\n      jump\t// in\n    tag_51:\n      tag_52\n      jump\t// in\n    tag_50:\n      mload(0x40)\n      tag_53\n      swap2\n      swap1\n      tag_31\n      jump\t// in\n    tag_53:\n      mload(0x40)\n      dup1\n      swap2\n      sub\n      swap1\n      return\n        /* \"PropertyOwnership.sol\":4746:5083  function addNewSuperAdmin(address _newSuperAdmin) public verifiedSuperAdmin returns (bool) {\r... */\n    tag_9:\n      tag_54\n      0x04\n      dup1\n      calldatasize\n      sub\n      dup2\n      add\n      swap1\n      tag_55\n      swap2\n      swap1\n      tag_28\n      jump\t// in\n    tag_55:\n      tag_56\n      jump\t// in\n    tag_54:\n      mload(0x40)\n      tag_57\n      swap2\n      swap1\n      tag_31\n      jump\t// in\n    tag_57:\n      mload(0x40)\n      dup1\n      swap2\n      sub\n      swap1\n      return\n        /* \"PropertyOwnership.sol\":100:127  address public creatorAdmin */\n    tag_10:\n      tag_58\n      tag_59\n      jump\t// in\n    tag_58:\n      mload(0x40)\n      tag_60\n      swap2\n      swap1\n      tag_61\n      jump\t// in\n    tag_60:\n      mload(0x40)\n      dup1\n      swap2\n      sub\n      swap1\n      return\n        /* \"PropertyOwnership.sol\":3135:3423  function changeValue(uint _propId, uint _newValue) public onlyOwner(_propId) returns (bool) {\r... */\n    tag_11:\n      tag_62\n      0x04\n      dup1\n      calldatasize\n      sub\n      dup2\n      add\n      swap1\n      tag_63\n      swap2\n      swap1\n      tag_64\n      jump\t// in\n    tag_63:\n      tag_65\n      jump\t// in\n    tag_62:\n      mload(0x40)\n      tag_66\n      swap2\n      swap1\n      tag_31\n      jump\t// in\n    tag_66:\n      mload(0x40)\n      dup1\n      swap2\n      sub\n      swap1\n      return\n        /* \"PropertyOwnership.sol\":2288:2714  function changeOwnership(uint _propId, address _newOwner) public onlyOwner(_propId) verifiedUser(_newOwner) returns (bool) {\r... */\n    tag_12:\n      tag_67\n      0x04\n      dup1\n      calldatasize\n      sub\n      dup2\n      add\n      swap1\n      tag_68\n      swap2\n      swap1\n      tag_69\n      jump\t// in\n    tag_68:\n      tag_70\n      jump\t// in\n    tag_67:\n      mload(0x40)\n      tag_71\n      swap2\n      swap1\n      tag_31\n      jump\t// in\n    tag_71:\n      mload(0x40)\n      dup1\n      swap2\n      sub\n      swap1\n      return\n        /* \"PropertyOwnership.sol\":1427:1662  function createProperty(uint _value, address _owner) public verifiedAdmin verifiedUser(_owner) returns (uint) {\r... */\n    tag_13:\n      tag_72\n      0x04\n      dup1\n      calldatasize\n      sub\n      dup2\n      add\n      swap1\n      tag_73\n      swap2\n      swap1\n      tag_69\n      jump\t// in\n    tag_73:\n      tag_74\n      jump\t// in\n    tag_72:\n      mload(0x40)\n      tag_75\n      swap2\n      swap1\n      tag_49\n      jump\t// in\n    tag_75:\n      mload(0x40)\n      dup1\n      swap2\n      sub\n      swap1\n      return\n        /* \"PropertyOwnership.sol\":449:496  mapping(uint => address) public propOwnerChange */\n    tag_14:\n      tag_76\n      0x04\n      dup1\n      calldatasize\n      sub\n      dup2\n      add\n      swap1\n      tag_77\n      swap2\n      swap1\n      tag_34\n      jump\t// in\n    tag_77:\n      tag_78\n      jump\t// in\n    tag_76:\n      mload(0x40)\n      tag_79\n      swap2\n      swap1\n      tag_61\n      jump\t// in\n    tag_79:\n      mload(0x40)\n      dup1\n      swap2\n      sub\n      swap1\n      return\n        /* \"PropertyOwnership.sol\":505:541  mapping(address => int) public users */\n    tag_15:\n      tag_80\n      0x04\n      dup1\n      calldatasize\n      sub\n      dup2\n      add\n      swap1\n      tag_81\n      swap2\n      swap1\n      tag_28\n      jump\t// in\n    tag_81:\n      tag_82\n      jump\t// in\n    tag_80:\n      mload(0x40)\n      tag_83\n      swap2\n      swap1\n      tag_84\n      jump\t// in\n    tag_83:\n      mload(0x40)\n      dup1\n      swap2\n      sub\n      swap1\n      return\n        /* \"PropertyOwnership.sol\":5116:5389  function removeUsers(address user) public verifiedSuperAdmin returns (bool) {\r... */\n    tag_16:\n      tag_85\n      0x04\n      dup1\n      calldatasize\n      sub\n      dup2\n      add\n      swap1\n      tag_86\n      swap2\n      swap1\n      tag_28\n      jump\t// in\n    tag_86:\n      tag_87\n      jump\t// in\n    tag_85:\n      mload(0x40)\n      tag_88\n      swap2\n      swap1\n      tag_31\n      jump\t// in\n    tag_88:\n      mload(0x40)\n      dup1\n      swap2\n      sub\n      swap1\n      return\n        /* \"PropertyOwnership.sol\":4242:4428  function addNewUser(address _newUser) public verifiedAdmin returns (bool) {\r... */\n    tag_17:\n      tag_89\n      0x04\n      dup1\n      calldatasize\n      sub\n      dup2\n      add\n      swap1\n      tag_90\n      swap2\n      swap1\n      tag_28\n      jump\t// in\n    tag_90:\n      tag_91\n      jump\t// in\n    tag_89:\n      mload(0x40)\n      tag_92\n      swap2\n      swap1\n      tag_31\n      jump\t// in\n    tag_92:\n      mload(0x40)\n      dup1\n      swap2\n      sub\n      swap1\n      return\n        /* \"PropertyOwnership.sol\":548:593  mapping(address => bool) public verifiedUsers */\n    tag_18:\n      tag_93\n      0x04\n      dup1\n      calldatasize\n      sub\n      dup2\n      add\n      swap1\n      tag_94\n      swap2\n      swap1\n      tag_28\n      jump\t// in\n    tag_94:\n      tag_95\n      jump\t// in\n    tag_93:\n      mload(0x40)\n      tag_96\n      swap2\n      swap1\n      tag_31\n      jump\t// in\n    tag_96:\n      mload(0x40)\n      dup1\n      swap2\n      sub\n      swap1\n      return\n        /* \"PropertyOwnership.sol\":1698:1957  function approveProperty(uint _propId) public verifiedSuperAdmin returns (bool){\r... */\n    tag_19:\n      tag_97\n      0x04\n      dup1\n      calldatasize\n      sub\n      dup2\n      add\n      swap1\n      tag_98\n      swap2\n      swap1\n      tag_34\n      jump\t// in\n    tag_98:\n      tag_99\n      jump\t// in\n    tag_97:\n      mload(0x40)\n      tag_100\n      swap2\n      swap1\n      tag_31\n      jump\t// in\n    tag_100:\n      mload(0x40)\n      dup1\n      swap2\n      sub\n      swap1\n      return\n        /* \"PropertyOwnership.sol\":3687:4218  function getProperties() public view returns (Status[] memory, uint[] memory, address[] memory) {\r... */\n    tag_20:\n      tag_101\n      tag_102\n      jump\t// in\n    tag_101:\n      mload(0x40)\n      tag_103\n      swap4\n      swap3\n      swap2\n      swap1\n      tag_104\n      jump\t// in\n    tag_103:\n      mload(0x40)\n      dup1\n      swap2\n      sub\n      swap1\n      return\n        /* \"PropertyOwnership.sol\":2752:3088  function approveChangeOwnership(uint _propId) public verifiedSuperAdmin returns (bool) {\r... */\n    tag_21:\n      tag_105\n      0x04\n      dup1\n      calldatasize\n      sub\n      dup2\n      add\n      swap1\n      tag_106\n      swap2\n      swap1\n      tag_34\n      jump\t// in\n    tag_106:\n      tag_107\n      jump\t// in\n    tag_105:\n      mload(0x40)\n      tag_108\n      swap2\n      swap1\n      tag_31\n      jump\t// in\n    tag_108:\n      mload(0x40)\n      dup1\n      swap2\n      sub\n      swap1\n      return\n        /* \"PropertyOwnership.sol\":396:445  mapping(uint => PropertyDetail) public properties */\n    tag_22:\n      tag_109\n      0x04\n      dup1\n      calldatasize\n      sub\n      dup2\n      add\n      swap1\n      tag_110\n      swap2\n      swap1\n      tag_34\n      jump\t// in\n    tag_110:\n      tag_111\n      jump\t// in\n    tag_109:\n      mload(0x40)\n      tag_112\n      swap4\n      swap3\n      swap2\n      swap1\n      tag_37\n      jump\t// in\n    tag_112:\n      mload(0x40)\n      dup1\n      swap2\n      sub\n      swap1\n      return\n        /* \"PropertyOwnership.sol\":4453:4716  function addNewAdmin(address _newAdmin) public verifiedSuperAdmin returns (bool) {\r... */\n    tag_29:\n        /* \"PropertyOwnership.sol\":4528:4532  bool */\n      0x00\n        /* \"PropertyOwnership.sol\":1117:1118  3 */\n      0x03\n        /* \"PropertyOwnership.sol\":1096:1101  users */\n      0x04\n        /* \"PropertyOwnership.sol\":1096:1113  users[msg.sender] */\n      0x00\n        /* \"PropertyOwnership.sol\":1102:1112  msg.sender */\n      caller\n        /* \"PropertyOwnership.sol\":1096:1113  users[msg.sender] */\n      0xffffffffffffffffffffffffffffffffffffffff\n      and\n      0xffffffffffffffffffffffffffffffffffffffff\n      and\n      dup2\n      mstore\n      0x20\n      add\n      swap1\n      dup2\n      mstore\n      0x20\n      add\n      0x00\n      keccak256\n      sload\n        /* \"PropertyOwnership.sol\":1096:1118  users[msg.sender] == 3 */\n      eq\n        /* \"PropertyOwnership.sol\":1096:1147  users[msg.sender] == 3 && verifiedUsers[msg.sender] */\n      dup1\n      iszero\n      tag_114\n      jumpi\n      pop\n        /* \"PropertyOwnership.sol\":1122:1135  verifiedUsers */\n      0x05\n        /* \"PropertyOwnership.sol\":1122:1147  verifiedUsers[msg.sender] */\n      0x00\n        /* \"PropertyOwnership.sol\":1136:1146  msg.sender */\n      caller\n        /* \"PropertyOwnership.sol\":1122:1147  verifiedUsers[msg.sender] */\n      0xffffffffffffffffffffffffffffffffffffffff\n      and\n      0xffffffffffffffffffffffffffffffffffffffff\n      and\n      dup2\n      mstore\n      0x20\n      add\n      swap1\n      dup2\n      mstore\n      0x20\n      add\n      0x00\n      keccak256\n      0x00\n      swap1\n      sload\n      swap1\n      0x0100\n      exp\n      swap1\n      div\n      0xff\n      and\n        /* \"PropertyOwnership.sol\":1096:1147  users[msg.sender] == 3 && verifiedUsers[msg.sender] */\n    tag_114:\n        /* \"PropertyOwnership.sol\":1088:1204  require(users[msg.sender] == 3 && verifiedUsers[msg.sender], \"Super Admin is authorized for this transaction only!\") */\n      tag_115\n      jumpi\n      mload(0x40)\n      0x08c379a000000000000000000000000000000000000000000000000000000000\n      dup2\n      mstore\n      0x04\n      add\n      tag_116\n      swap1\n      tag_117\n      jump\t// in\n    tag_116:\n      mload(0x40)\n      dup1\n      swap2\n      sub\n      swap1\n      revert\n    tag_115:\n        /* \"PropertyOwnership.sol\":4570:4571  3 */\n      0x03\n        /* \"PropertyOwnership.sol\":4550:4555  users */\n      0x04\n        /* \"PropertyOwnership.sol\":4550:4566  users[_newAdmin] */\n      0x00\n        /* \"PropertyOwnership.sol\":4556:4565  _newAdmin */\n      dup5\n        /* \"PropertyOwnership.sol\":4550:4566  users[_newAdmin] */\n      0xffffffffffffffffffffffffffffffffffffffff\n      and\n      0xffffffffffffffffffffffffffffffffffffffff\n      and\n      dup2\n      mstore\n      0x20\n      add\n      swap1\n      dup2\n      mstore\n      0x20\n      add\n      0x00\n      keccak256\n      sload\n        /* \"PropertyOwnership.sol\":4550:4571  users[_newAdmin] != 3 */\n      eq\n      iszero\n        /* \"PropertyOwnership.sol\":4542:4598  require(users[_newAdmin] != 3, \"User is a Super Admin!\") */\n      tag_119\n      jumpi\n      mload(0x40)\n      0x08c379a000000000000000000000000000000000000000000000000000000000\n      dup2\n      mstore\n      0x04\n      add\n      tag_120\n      swap1\n      tag_121\n      jump\t// in\n    tag_120:\n      mload(0x40)\n      dup1\n      swap2\n      sub\n      swap1\n      revert\n    tag_119:\n        /* \"PropertyOwnership.sol\":4633:4634  2 */\n      0x02\n        /* \"PropertyOwnership.sol\":4614:4619  users */\n      0x04\n        /* \"PropertyOwnership.sol\":4614:4630  users[_newAdmin] */\n      0x00\n        /* \"PropertyOwnership.sol\":4620:4629  _newAdmin */\n      dup5\n        /* \"PropertyOwnership.sol\":4614:4630  users[_newAdmin] */\n      0xffffffffffffffffffffffffffffffffffffffff\n      and\n      0xffffffffffffffffffffffffffffffffffffffff\n      and\n      dup2\n      mstore\n      0x20\n      add\n      swap1\n      dup2\n      mstore\n      0x20\n      add\n      0x00\n      keccak256\n      sload\n        /* \"PropertyOwnership.sol\":4614:4634  users[_newAdmin] < 2 */\n      slt\n        /* \"PropertyOwnership.sol\":4606:4664  require(users[_newAdmin] < 2, \"User is an Admin already!\") */\n      tag_122\n      jumpi\n      mload(0x40)\n      0x08c379a000000000000000000000000000000000000000000000000000000000\n      dup2\n      mstore\n      0x04\n      add\n      tag_123\n      swap1\n      tag_124\n      jump\t// in\n    tag_123:\n      mload(0x40)\n      dup1\n      swap2\n      sub\n      swap1\n      revert\n    tag_122:\n        /* \"PropertyOwnership.sol\":4691:4692  2 */\n      0x02\n        /* \"PropertyOwnership.sol\":4672:4677  users */\n      0x04\n        /* \"PropertyOwnership.sol\":4672:4688  users[_newAdmin] */\n      0x00\n        /* \"PropertyOwnership.sol\":4678:4687  _newAdmin */\n      dup5\n        /* \"PropertyOwnership.sol\":4672:4688  users[_newAdmin] */\n      0xffffffffffffffffffffffffffffffffffffffff\n      and\n      0xffffffffffffffffffffffffffffffffffffffff\n      and\n      dup2\n      mstore\n      0x20\n      add\n      swap1\n      dup2\n      mstore\n      0x20\n      add\n      0x00\n      keccak256\n        /* \"PropertyOwnership.sol\":4672:4692  users[_newAdmin] = 2 */\n      dup2\n      swap1\n      sstore\n      pop\n        /* \"PropertyOwnership.sol\":4707:4711  true */\n      0x01\n        /* \"PropertyOwnership.sol\":4700:4711  return true */\n      swap1\n      pop\n        /* \"PropertyOwnership.sol\":4453:4716  function addNewAdmin(address _newAdmin) public verifiedSuperAdmin returns (bool) {\r... */\n      swap2\n      swap1\n      pop\n      jump\t// out\n        /* \"PropertyOwnership.sol\":3459:3648  function getPropertyDetails(uint _propId) public view returns (Status, uint, address) {\r... */\n    tag_35:\n        /* \"PropertyOwnership.sol\":3522:3528  Status */\n      0x00\n        /* \"PropertyOwnership.sol\":3530:3534  uint */\n      dup1\n        /* \"PropertyOwnership.sol\":3536:3543  address */\n      0x00\n        /* \"PropertyOwnership.sol\":3558:3568  properties */\n      0x02\n        /* \"PropertyOwnership.sol\":3558:3577  properties[_propId] */\n      0x00\n        /* \"PropertyOwnership.sol\":3569:3576  _propId */\n      dup6\n        /* \"PropertyOwnership.sol\":3558:3577  properties[_propId] */\n      dup2\n      mstore\n      0x20\n      add\n      swap1\n      dup2\n      mstore\n      0x20\n      add\n      0x00\n      keccak256\n        /* \"PropertyOwnership.sol\":3558:3584  properties[_propId].status */\n      0x00\n      add\n      0x00\n      swap1\n      sload\n      swap1\n      0x0100\n      exp\n      swap1\n      div\n      0xff\n      and\n        /* \"PropertyOwnership.sol\":3586:3596  properties */\n      0x02\n        /* \"PropertyOwnership.sol\":3586:3605  properties[_propId] */\n      0x00\n        /* \"PropertyOwnership.sol\":3597:3604  _propId */\n      dup7\n        /* \"PropertyOwnership.sol\":3586:3605  properties[_propId] */\n      dup2\n      mstore\n      0x20\n      add\n      swap1\n      dup2\n      mstore\n      0x20\n      add\n      0x00\n      keccak256\n        /* \"PropertyOwnership.sol\":3586:3611  properties[_propId].value */\n      0x01\n      add\n      sload\n        /* \"PropertyOwnership.sol\":3613:3623  properties */\n      0x02\n        /* \"PropertyOwnership.sol\":3613:3632  properties[_propId] */\n      0x00\n        /* \"PropertyOwnership.sol\":3624:3631  _propId */\n      dup8\n        /* \"PropertyOwnership.sol\":3613:3632  properties[_propId] */\n      dup2\n      mstore\n      0x20\n      add\n      swap1\n      dup2\n      mstore\n      0x20\n      add\n      0x00\n      keccak256\n        /* \"PropertyOwnership.sol\":3613:3642  properties[_propId].currOwner */\n      0x02\n      add\n      0x00\n      swap1\n      sload\n      swap1\n      0x0100\n      exp\n      swap1\n      div\n      0xffffffffffffffffffffffffffffffffffffffff\n      and\n        /* \"PropertyOwnership.sol\":3550:3643  return (properties[_propId].status, properties[_propId].value, properties[_propId].currOwner) */\n      swap3\n      pop\n      swap3\n      pop\n      swap3\n      pop\n        /* \"PropertyOwnership.sol\":3459:3648  function getPropertyDetails(uint _propId) public view returns (Status, uint, address) {\r... */\n      swap2\n      swap4\n      swap1\n      swap3\n      pop\n      jump\t// out\n        /* \"PropertyOwnership.sol\":1992:2249  function rejectProperty(uint _propId) public verifiedSuperAdmin returns (bool){\r... */\n    tag_40:\n        /* \"PropertyOwnership.sol\":2065:2069  bool */\n      0x00\n        /* \"PropertyOwnership.sol\":1117:1118  3 */\n      0x03\n        /* \"PropertyOwnership.sol\":1096:1101  users */\n      0x04\n        /* \"PropertyOwnership.sol\":1096:1113  users[msg.sender] */\n      0x00\n        /* \"PropertyOwnership.sol\":1102:1112  msg.sender */\n      caller\n        /* \"PropertyOwnership.sol\":1096:1113  users[msg.sender] */\n      0xffffffffffffffffffffffffffffffffffffffff\n      and\n      0xffffffffffffffffffffffffffffffffffffffff\n      and\n      dup2\n      mstore\n      0x20\n      add\n      swap1\n      dup2\n      mstore\n      0x20\n      add\n      0x00\n      keccak256\n      sload\n        /* \"PropertyOwnership.sol\":1096:1118  users[msg.sender] == 3 */\n      eq\n        /* \"PropertyOwnership.sol\":1096:1147  users[msg.sender] == 3 && verifiedUsers[msg.sender] */\n      dup1\n      iszero\n      tag_127\n      jumpi\n      pop\n        /* \"PropertyOwnership.sol\":1122:1135  verifiedUsers */\n      0x05\n        /* \"PropertyOwnership.sol\":1122:1147  verifiedUsers[msg.sender] */\n      0x00\n        /* \"PropertyOwnership.sol\":1136:1146  msg.sender */\n      caller\n        /* \"PropertyOwnership.sol\":1122:1147  verifiedUsers[msg.sender] */\n      0xffffffffffffffffffffffffffffffffffffffff\n      and\n      0xffffffffffffffffffffffffffffffffffffffff\n      and\n      dup2\n      mstore\n      0x20\n      add\n      swap1\n      dup2\n      mstore\n      0x20\n      add\n      0x00\n      keccak256\n      0x00\n      swap1\n      sload\n      swap1\n      0x0100\n      exp\n      swap1\n      div\n      0xff\n      and\n        /* \"PropertyOwnership.sol\":1096:1147  users[msg.sender] == 3 && verifiedUsers[msg.sender] */\n    tag_127:\n        /* \"PropertyOwnership.sol\":1088:1204  require(users[msg.sender] == 3 && verifiedUsers[msg.sender], \"Super Admin is authorized for this transaction only!\") */\n      tag_128\n      jumpi\n      mload(0x40)\n      0x08c379a000000000000000000000000000000000000000000000000000000000\n      dup2\n      mstore\n      0x04\n      add\n      tag_129\n      swap1\n      tag_117\n      jump\t// in\n    tag_129:\n      mload(0x40)\n      dup1\n      swap2\n      sub\n      swap1\n      revert\n    tag_128:\n        /* \"PropertyOwnership.sol\":2116:2126  msg.sender */\n      caller\n        /* \"PropertyOwnership.sol\":2083:2126  properties[_propId].currOwner != msg.sender */\n      0xffffffffffffffffffffffffffffffffffffffff\n      and\n        /* \"PropertyOwnership.sol\":2083:2093  properties */\n      0x02\n        /* \"PropertyOwnership.sol\":2083:2102  properties[_propId] */\n      0x00\n        /* \"PropertyOwnership.sol\":2094:2101  _propId */\n      dup5\n        /* \"PropertyOwnership.sol\":2083:2102  properties[_propId] */\n      dup2\n      mstore\n      0x20\n      add\n      swap1\n      dup2\n      mstore\n      0x20\n      add\n      0x00\n      keccak256\n        /* \"PropertyOwnership.sol\":2083:2112  properties[_propId].currOwner */\n      0x02\n      add\n      0x00\n      swap1\n      sload\n      swap1\n      0x0100\n      exp\n      swap1\n      div\n      0xffffffffffffffffffffffffffffffffffffffff\n      and\n        /* \"PropertyOwnership.sol\":2083:2126  properties[_propId].currOwner != msg.sender */\n      0xffffffffffffffffffffffffffffffffffffffff\n      and\n      eq\n      iszero\n        /* \"PropertyOwnership.sol\":2075:2179  require(properties[_propId].currOwner != msg.sender, \"Owner of a property is not allowed to reject it!\") */\n      tag_131\n      jumpi\n      mload(0x40)\n      0x08c379a000000000000000000000000000000000000000000000000000000000\n      dup2\n      mstore\n      0x04\n      add\n      tag_132\n      swap1\n      tag_133\n      jump\t// in\n    tag_132:\n      mload(0x40)\n      dup1\n      swap2\n      sub\n      swap1\n      revert\n    tag_131:\n        /* \"PropertyOwnership.sol\":2213:2228  Status.Rejected */\n      0x03\n        /* \"PropertyOwnership.sol\":2184:2194  properties */\n      0x02\n        /* \"PropertyOwnership.sol\":2184:2203  properties[_propId] */\n      0x00\n        /* \"PropertyOwnership.sol\":2195:2202  _propId */\n      dup5\n        /* \"PropertyOwnership.sol\":2184:2203  properties[_propId] */\n      dup2\n      mstore\n      0x20\n      add\n      swap1\n      dup2\n      mstore\n      0x20\n      add\n      0x00\n      keccak256\n        /* \"PropertyOwnership.sol\":2184:2210  properties[_propId].status */\n      0x00\n      add\n      0x00\n        /* \"PropertyOwnership.sol\":2184:2228  properties[_propId].status = Status.Rejected */\n      0x0100\n      exp\n      dup2\n      sload\n      dup2\n      0xff\n      mul\n      not\n      and\n      swap1\n      dup4\n      0x03\n      dup2\n      gt\n      iszero\n      tag_134\n      jumpi\n      mstore(0x00, 0x4e487b7100000000000000000000000000000000000000000000000000000000)\n      mstore(0x04, 0x21)\n      revert(0x00, 0x24)\n    tag_134:\n      mul\n      or\n      swap1\n      sstore\n      pop\n        /* \"PropertyOwnership.sol\":2240:2244  true */\n      0x01\n        /* \"PropertyOwnership.sol\":2233:2244  return true */\n      swap1\n      pop\n        /* \"PropertyOwnership.sol\":1992:2249  function rejectProperty(uint _propId) public verifiedSuperAdmin returns (bool){\r... */\n      swap2\n      swap1\n      pop\n      jump\t// out\n        /* \"PropertyOwnership.sol\":5827:6047  function approveUsers(address _newUser) public verifiedSuperAdmin returns (bool) {\r... */\n    tag_44:\n        /* \"PropertyOwnership.sol\":5902:5906  bool */\n      0x00\n        /* \"PropertyOwnership.sol\":1117:1118  3 */\n      0x03\n        /* \"PropertyOwnership.sol\":1096:1101  users */\n      0x04\n        /* \"PropertyOwnership.sol\":1096:1113  users[msg.sender] */\n      0x00\n        /* \"PropertyOwnership.sol\":1102:1112  msg.sender */\n      caller\n        /* \"PropertyOwnership.sol\":1096:1113  users[msg.sender] */\n      0xffffffffffffffffffffffffffffffffffffffff\n      and\n      0xffffffffffffffffffffffffffffffffffffffff\n      and\n      dup2\n      mstore\n      0x20\n      add\n      swap1\n      dup2\n      mstore\n      0x20\n      add\n      0x00\n      keccak256\n      sload\n        /* \"PropertyOwnership.sol\":1096:1118  users[msg.sender] == 3 */\n      eq\n        /* \"PropertyOwnership.sol\":1096:1147  users[msg.sender] == 3 && verifiedUsers[msg.sender] */\n      dup1\n      iszero\n      tag_136\n      jumpi\n      pop\n        /* \"PropertyOwnership.sol\":1122:1135  verifiedUsers */\n      0x05\n        /* \"PropertyOwnership.sol\":1122:1147  verifiedUsers[msg.sender] */\n      0x00\n        /* \"PropertyOwnership.sol\":1136:1146  msg.sender */\n      caller\n        /* \"PropertyOwnership.sol\":1122:1147  verifiedUsers[msg.sender] */\n      0xffffffffffffffffffffffffffffffffffffffff\n      and\n      0xffffffffffffffffffffffffffffffffffffffff\n      and\n      dup2\n      mstore\n      0x20\n      add\n      swap1\n      dup2\n      mstore\n      0x20\n      add\n      0x00\n      keccak256\n      0x00\n      swap1\n      sload\n      swap1\n      0x0100\n      exp\n      swap1\n      div\n      0xff\n      and\n        /* \"PropertyOwnership.sol\":1096:1147  users[msg.sender] == 3 && verifiedUsers[msg.sender] */\n    tag_136:\n        /* \"PropertyOwnership.sol\":1088:1204  require(users[msg.sender] == 3 && verifiedUsers[msg.sender], \"Super Admin is authorized for this transaction only!\") */\n      tag_137\n      jumpi\n      mload(0x40)\n      0x08c379a000000000000000000000000000000000000000000000000000000000\n      dup2\n      mstore\n      0x04\n      add\n      tag_138\n      swap1\n      tag_117\n      jump\t// in\n    tag_138:\n      mload(0x40)\n      dup1\n      swap2\n      sub\n      swap1\n      revert\n    tag_137:\n        /* \"PropertyOwnership.sol\":5943:5944  0 */\n      0x00\n        /* \"PropertyOwnership.sol\":5924:5929  users */\n      0x04\n        /* \"PropertyOwnership.sol\":5924:5939  users[_newUser] */\n      0x00\n        /* \"PropertyOwnership.sol\":5930:5938  _newUser */\n      dup5\n        /* \"PropertyOwnership.sol\":5924:5939  users[_newUser] */\n      0xffffffffffffffffffffffffffffffffffffffff\n      and\n      0xffffffffffffffffffffffffffffffffffffffff\n      and\n      dup2\n      mstore\n      0x20\n      add\n      swap1\n      dup2\n      mstore\n      0x20\n      add\n      0x00\n      keccak256\n      sload\n        /* \"PropertyOwnership.sol\":5924:5944  users[_newUser] != 0 */\n      eq\n      iszero\n        /* \"PropertyOwnership.sol\":5916:5985  require(users[_newUser] != 0, \"A request is not made for this user!\") */\n      tag_140\n      jumpi\n      mload(0x40)\n      0x08c379a000000000000000000000000000000000000000000000000000000000\n      dup2\n      mstore\n      0x04\n      add\n      tag_141\n      swap1\n      tag_142\n      jump\t// in\n    tag_141:\n      mload(0x40)\n      dup1\n      swap2\n      sub\n      swap1\n      revert\n    tag_140:\n        /* \"PropertyOwnership.sol\":6019:6023  true */\n      0x01\n        /* \"PropertyOwnership.sol\":5993:6006  verifiedUsers */\n      0x05\n        /* \"PropertyOwnership.sol\":5993:6016  verifiedUsers[_newUser] */\n      0x00\n        /* \"PropertyOwnership.sol\":6007:6015  _newUser */\n      dup5\n        /* \"PropertyOwnership.sol\":5993:6016  verifiedUsers[_newUser] */\n      0xffffffffffffffffffffffffffffffffffffffff\n      and\n      0xffffffffffffffffffffffffffffffffffffffff\n      and\n      dup2\n      mstore\n      0x20\n      add\n      swap1\n      dup2\n      mstore\n      0x20\n      add\n      0x00\n      keccak256\n      0x00\n        /* \"PropertyOwnership.sol\":5993:6023  verifiedUsers[_newUser] = true */\n      0x0100\n      exp\n      dup2\n      sload\n      dup2\n      0xff\n      mul\n      not\n      and\n      swap1\n      dup4\n      iszero\n      iszero\n      mul\n      or\n      swap1\n      sstore\n      pop\n        /* \"PropertyOwnership.sol\":6038:6042  true */\n      0x01\n        /* \"PropertyOwnership.sol\":6031:6042  return true */\n      swap1\n      pop\n        /* \"PropertyOwnership.sol\":5827:6047  function approveUsers(address _newUser) public verifiedSuperAdmin returns (bool) {\r... */\n      swap2\n      swap1\n      pop\n      jump\t// out\n        /* \"PropertyOwnership.sol\":134:152  uint public propId */\n    tag_47:\n      sload(0x01)\n      dup2\n      jump\t// out\n        /* \"PropertyOwnership.sol\":5420:5803  function removeSuperAdmin(address user) public verifiedSuperAdmin returns (bool) {\r... */\n    tag_52:\n        /* \"PropertyOwnership.sol\":5495:5499  bool */\n      0x00\n        /* \"PropertyOwnership.sol\":1117:1118  3 */\n      0x03\n        /* \"PropertyOwnership.sol\":1096:1101  users */\n      0x04\n        /* \"PropertyOwnership.sol\":1096:1113  users[msg.sender] */\n      0x00\n        /* \"PropertyOwnership.sol\":1102:1112  msg.sender */\n      caller\n        /* \"PropertyOwnership.sol\":1096:1113  users[msg.sender] */\n      0xffffffffffffffffffffffffffffffffffffffff\n      and\n      0xffffffffffffffffffffffffffffffffffffffff\n      and\n      dup2\n      mstore\n      0x20\n      add\n      swap1\n      dup2\n      mstore\n      0x20\n      add\n      0x00\n      keccak256\n      sload\n        /* \"PropertyOwnership.sol\":1096:1118  users[msg.sender] == 3 */\n      eq\n        /* \"PropertyOwnership.sol\":1096:1147  users[msg.sender] == 3 && verifiedUsers[msg.sender] */\n      dup1\n      iszero\n      tag_144\n      jumpi\n      pop\n        /* \"PropertyOwnership.sol\":1122:1135  verifiedUsers */\n      0x05\n        /* \"PropertyOwnership.sol\":1122:1147  verifiedUsers[msg.sender] */\n      0x00\n        /* \"PropertyOwnership.sol\":1136:1146  msg.sender */\n      caller\n        /* \"PropertyOwnership.sol\":1122:1147  verifiedUsers[msg.sender] */\n      0xffffffffffffffffffffffffffffffffffffffff\n      and\n      0xffffffffffffffffffffffffffffffffffffffff\n      and\n      dup2\n      mstore\n      0x20\n      add\n      swap1\n      dup2\n      mstore\n      0x20\n      add\n      0x00\n      keccak256\n      0x00\n      swap1\n      sload\n      swap1\n      0x0100\n      exp\n      swap1\n      div\n      0xff\n      and\n        /* \"PropertyOwnership.sol\":1096:1147  users[msg.sender] == 3 && verifiedUsers[msg.sender] */\n    tag_144:\n        /* \"PropertyOwnership.sol\":1088:1204  require(users[msg.sender] == 3 && verifiedUsers[msg.sender], \"Super Admin is authorized for this transaction only!\") */\n      tag_145\n      jumpi\n      mload(0x40)\n      0x08c379a000000000000000000000000000000000000000000000000000000000\n      dup2\n      mstore\n      0x04\n      add\n      tag_146\n      swap1\n      tag_117\n      jump\t// in\n    tag_146:\n      mload(0x40)\n      dup1\n      swap2\n      sub\n      swap1\n      revert\n    tag_145:\n        /* \"PropertyOwnership.sol\":5533:5543  msg.sender */\n      caller\n        /* \"PropertyOwnership.sol\":5517:5543  creatorAdmin == msg.sender */\n      0xffffffffffffffffffffffffffffffffffffffff\n      and\n        /* \"PropertyOwnership.sol\":5517:5529  creatorAdmin */\n      0x00\n      dup1\n      sload\n      swap1\n      0x0100\n      exp\n      swap1\n      div\n      0xffffffffffffffffffffffffffffffffffffffff\n      and\n        /* \"PropertyOwnership.sol\":5517:5543  creatorAdmin == msg.sender */\n      0xffffffffffffffffffffffffffffffffffffffff\n      and\n      eq\n        /* \"PropertyOwnership.sol\":5509:5602  require(creatorAdmin == msg.sender, \"Creator Admin is authorized for this transaction only!\") */\n      tag_148\n      jumpi\n      mload(0x40)\n      0x08c379a000000000000000000000000000000000000000000000000000000000\n      dup2\n      mstore\n      0x04\n      add\n      tag_149\n      swap1\n      tag_150\n      jump\t// in\n    tag_149:\n      mload(0x40)\n      dup1\n      swap2\n      sub\n      swap1\n      revert\n    tag_148:\n        /* \"PropertyOwnership.sol\":5633:5634  3 */\n      0x03\n        /* \"PropertyOwnership.sol\":5618:5623  users */\n      0x04\n        /* \"PropertyOwnership.sol\":5618:5629  users[user] */\n      0x00\n        /* \"PropertyOwnership.sol\":5624:5628  user */\n      dup5\n        /* \"PropertyOwnership.sol\":5618:5629  users[user] */\n      0xffffffffffffffffffffffffffffffffffffffff\n      and\n      0xffffffffffffffffffffffffffffffffffffffff\n      and\n      dup2\n      mstore\n      0x20\n      add\n      swap1\n      dup2\n      mstore\n      0x20\n      add\n      0x00\n      keccak256\n      sload\n        /* \"PropertyOwnership.sol\":5618:5634  users[user] == 3 */\n      eq\n        /* \"PropertyOwnership.sol\":5610:5665  require(users[user] == 3, \"User is not a Super Admin!\") */\n      tag_151\n      jumpi\n      mload(0x40)\n      0x08c379a000000000000000000000000000000000000000000000000000000000\n      dup2\n      mstore\n      0x04\n      add\n      tag_152\n      swap1\n      tag_153\n      jump\t// in\n    tag_152:\n      mload(0x40)\n      dup1\n      swap2\n      sub\n      swap1\n      revert\n    tag_151:\n        /* \"PropertyOwnership.sol\":5696:5697  0 */\n      0x00\n        /* \"PropertyOwnership.sol\":5681:5686  users */\n      0x04\n        /* \"PropertyOwnership.sol\":5681:5692  users[user] */\n      0x00\n        /* \"PropertyOwnership.sol\":5687:5691  user */\n      dup5\n        /* \"PropertyOwnership.sol\":5681:5692  users[user] */\n      0xffffffffffffffffffffffffffffffffffffffff\n      and\n      0xffffffffffffffffffffffffffffffffffffffff\n      and\n      dup2\n      mstore\n      0x20\n      add\n      swap1\n      dup2\n      mstore\n      0x20\n      add\n      0x00\n      keccak256\n      sload\n        /* \"PropertyOwnership.sol\":5681:5697  users[user] != 0 */\n      eq\n      iszero\n        /* \"PropertyOwnership.sol\":5673:5721  require(users[user] != 0, \"User doesn't exist!\") */\n      tag_154\n      jumpi\n      mload(0x40)\n      0x08c379a000000000000000000000000000000000000000000000000000000000\n      dup2\n      mstore\n      0x04\n      add\n      tag_155\n      swap1\n      tag_156\n      jump\t// in\n    tag_155:\n      mload(0x40)\n      dup1\n      swap2\n      sub\n      swap1\n      revert\n    tag_154:\n        /* \"PropertyOwnership.sol\":5743:5744  0 */\n      0x00\n        /* \"PropertyOwnership.sol\":5729:5734  users */\n      0x04\n        /* \"PropertyOwnership.sol\":5729:5740  users[user] */\n      0x00\n        /* \"PropertyOwnership.sol\":5735:5739  user */\n      dup5\n        /* \"PropertyOwnership.sol\":5729:5740  users[user] */\n      0xffffffffffffffffffffffffffffffffffffffff\n      and\n      0xffffffffffffffffffffffffffffffffffffffff\n      and\n      dup2\n      mstore\n      0x20\n      add\n      swap1\n      dup2\n      mstore\n      0x20\n      add\n      0x00\n      keccak256\n        /* \"PropertyOwnership.sol\":5729:5744  users[user] = 0 */\n      dup2\n      swap1\n      sstore\n      pop\n        /* \"PropertyOwnership.sol\":5774:5779  false */\n      0x00\n        /* \"PropertyOwnership.sol\":5752:5765  verifiedUsers */\n      0x05\n        /* \"PropertyOwnership.sol\":5752:5771  verifiedUsers[user] */\n      0x00\n        /* \"PropertyOwnership.sol\":5766:5770  user */\n      dup5\n        /* \"PropertyOwnership.sol\":5752:5771  verifiedUsers[user] */\n      0xffffffffffffffffffffffffffffffffffffffff\n      and\n      0xffffffffffffffffffffffffffffffffffffffff\n      and\n      dup2\n      mstore\n      0x20\n      add\n      swap1\n      dup2\n      mstore\n      0x20\n      add\n      0x00\n      keccak256\n      0x00\n        /* \"PropertyOwnership.sol\":5752:5779  verifiedUsers[user] = false */\n      0x0100\n      exp\n      dup2\n      sload\n      dup2\n      0xff\n      mul\n      not\n      and\n      swap1\n      dup4\n      iszero\n      iszero\n      mul\n      or\n      swap1\n      sstore\n      pop\n        /* \"PropertyOwnership.sol\":5794:5798  true */\n      0x01\n        /* \"PropertyOwnership.sol\":5787:5798  return true */\n      swap1\n      pop\n        /* \"PropertyOwnership.sol\":5420:5803  function removeSuperAdmin(address user) public verifiedSuperAdmin returns (bool) {\r... */\n      swap2\n      swap1\n      pop\n      jump\t// out\n        /* \"PropertyOwnership.sol\":4746:5083  function addNewSuperAdmin(address _newSuperAdmin) public verifiedSuperAdmin returns (bool) {\r... */\n    tag_56:\n        /* \"PropertyOwnership.sol\":4831:4835  bool */\n      0x00\n        /* \"PropertyOwnership.sol\":1117:1118  3 */\n      0x03\n        /* \"PropertyOwnership.sol\":1096:1101  users */\n      0x04\n        /* \"PropertyOwnership.sol\":1096:1113  users[msg.sender] */\n      0x00\n        /* \"PropertyOwnership.sol\":1102:1112  msg.sender */\n      caller\n        /* \"PropertyOwnership.sol\":1096:1113  users[msg.sender] */\n      0xffffffffffffffffffffffffffffffffffffffff\n      and\n      0xffffffffffffffffffffffffffffffffffffffff\n      and\n      dup2\n      mstore\n      0x20\n      add\n      swap1\n      dup2\n      mstore\n      0x20\n      add\n      0x00\n      keccak256\n      sload\n        /* \"PropertyOwnership.sol\":1096:1118  users[msg.sender] == 3 */\n      eq\n        /* \"PropertyOwnership.sol\":1096:1147  users[msg.sender] == 3 && verifiedUsers[msg.sender] */\n      dup1\n      iszero\n      tag_158\n      jumpi\n      pop\n        /* \"PropertyOwnership.sol\":1122:1135  verifiedUsers */\n      0x05\n        /* \"PropertyOwnership.sol\":1122:1147  verifiedUsers[msg.sender] */\n      0x00\n        /* \"PropertyOwnership.sol\":1136:1146  msg.sender */\n      caller\n        /* \"PropertyOwnership.sol\":1122:1147  verifiedUsers[msg.sender] */\n      0xffffffffffffffffffffffffffffffffffffffff\n      and\n      0xffffffffffffffffffffffffffffffffffffffff\n      and\n      dup2\n      mstore\n      0x20\n      add\n      swap1\n      dup2\n      mstore\n      0x20\n      add\n      0x00\n      keccak256\n      0x00\n      swap1\n      sload\n      swap1\n      0x0100\n      exp\n      swap1\n      div\n      0xff\n      and\n        /* \"PropertyOwnership.sol\":1096:1147  users[msg.sender] == 3 && verifiedUsers[msg.sender] */\n    tag_158:\n        /* \"PropertyOwnership.sol\":1088:1204  require(users[msg.sender] == 3 && verifiedUsers[msg.sender], \"Super Admin is authorized for this transaction only!\") */\n      tag_159\n      jumpi\n      mload(0x40)\n      0x08c379a000000000000000000000000000000000000000000000000000000000\n      dup2\n      mstore\n      0x04\n      add\n      tag_160\n      swap1\n      tag_117\n      jump\t// in\n    tag_160:\n      mload(0x40)\n      dup1\n      swap2\n      sub\n      swap1\n      revert\n    tag_159:\n        /* \"PropertyOwnership.sol\":4869:4879  msg.sender */\n      caller\n        /* \"PropertyOwnership.sol\":4853:4879  creatorAdmin == msg.sender */\n      0xffffffffffffffffffffffffffffffffffffffff\n      and\n        /* \"PropertyOwnership.sol\":4853:4865  creatorAdmin */\n      0x00\n      dup1\n      sload\n      swap1\n      0x0100\n      exp\n      swap1\n      div\n      0xffffffffffffffffffffffffffffffffffffffff\n      and\n        /* \"PropertyOwnership.sol\":4853:4879  creatorAdmin == msg.sender */\n      0xffffffffffffffffffffffffffffffffffffffff\n      and\n      eq\n        /* \"PropertyOwnership.sol\":4845:4938  require(creatorAdmin == msg.sender, \"Creator Admin is authorized for this transaction only!\") */\n      tag_162\n      jumpi\n      mload(0x40)\n      0x08c379a000000000000000000000000000000000000000000000000000000000\n      dup2\n      mstore\n      0x04\n      add\n      tag_163\n      swap1\n      tag_150\n      jump\t// in\n    tag_163:\n      mload(0x40)\n      dup1\n      swap2\n      sub\n      swap1\n      revert\n    tag_162:\n        /* \"PropertyOwnership.sol\":4978:4979  3 */\n      0x03\n        /* \"PropertyOwnership.sol\":4954:4959  users */\n      0x04\n        /* \"PropertyOwnership.sol\":4954:4975  users[_newSuperAdmin] */\n      0x00\n        /* \"PropertyOwnership.sol\":4960:4974  _newSuperAdmin */\n      dup5\n        /* \"PropertyOwnership.sol\":4954:4975  users[_newSuperAdmin] */\n      0xffffffffffffffffffffffffffffffffffffffff\n      and\n      0xffffffffffffffffffffffffffffffffffffffff\n      and\n      dup2\n      mstore\n      0x20\n      add\n      swap1\n      dup2\n      mstore\n      0x20\n      add\n      0x00\n      keccak256\n      sload\n        /* \"PropertyOwnership.sol\":4954:4979  users[_newSuperAdmin] < 3 */\n      slt\n        /* \"PropertyOwnership.sol\":4946:5026  require(users[_newSuperAdmin] < 3, \"User is authorized as Super Admin already!\") */\n      tag_164\n      jumpi\n      mload(0x40)\n      0x08c379a000000000000000000000000000000000000000000000000000000000\n      dup2\n      mstore\n      0x04\n      add\n      tag_165\n      swap1\n      tag_166\n      jump\t// in\n    tag_165:\n      mload(0x40)\n      dup1\n      swap2\n      sub\n      swap1\n      revert\n    tag_164:\n        /* \"PropertyOwnership.sol\":5058:5059  3 */\n      0x03\n        /* \"PropertyOwnership.sol\":5034:5039  users */\n      0x04\n        /* \"PropertyOwnership.sol\":5034:5055  users[_newSuperAdmin] */\n      0x00\n        /* \"PropertyOwnership.sol\":5040:5054  _newSuperAdmin */\n      dup5\n        /* \"PropertyOwnership.sol\":5034:5055  users[_newSuperAdmin] */\n      0xffffffffffffffffffffffffffffffffffffffff\n      and\n      0xffffffffffffffffffffffffffffffffffffffff\n      and\n      dup2\n      mstore\n      0x20\n      add\n      swap1\n      dup2\n      mstore\n      0x20\n      add\n      0x00\n      keccak256\n        /* \"PropertyOwnership.sol\":5034:5059  users[_newSuperAdmin] = 3 */\n      dup2\n      swap1\n      sstore\n      pop\n        /* \"PropertyOwnership.sol\":5074:5078  true */\n      0x01\n        /* \"PropertyOwnership.sol\":5067:5078  return true */\n      swap1\n      pop\n        /* \"PropertyOwnership.sol\":4746:5083  function addNewSuperAdmin(address _newSuperAdmin) public verifiedSuperAdmin returns (bool) {\r... */\n      swap2\n      swap1\n      pop\n      jump\t// out\n        /* \"PropertyOwnership.sol\":100:127  address public creatorAdmin */\n    tag_59:\n      0x00\n      dup1\n      sload\n      swap1\n      0x0100\n      exp\n      swap1\n      div\n      0xffffffffffffffffffffffffffffffffffffffff\n      and\n      dup2\n      jump\t// out\n        /* \"PropertyOwnership.sol\":3135:3423  function changeValue(uint _propId, uint _newValue) public onlyOwner(_propId) returns (bool) {\r... */\n    tag_65:\n        /* \"PropertyOwnership.sol\":3221:3225  bool */\n      0x00\n        /* \"PropertyOwnership.sol\":3203:3210  _propId */\n      dup3\n        /* \"PropertyOwnership.sol\":678:688  msg.sender */\n      caller\n        /* \"PropertyOwnership.sol\":645:688  properties[_propId].currOwner == msg.sender */\n      0xffffffffffffffffffffffffffffffffffffffff\n      and\n        /* \"PropertyOwnership.sol\":645:655  properties */\n      0x02\n        /* \"PropertyOwnership.sol\":645:664  properties[_propId] */\n      0x00\n        /* \"PropertyOwnership.sol\":656:663  _propId */\n      dup4\n        /* \"PropertyOwnership.sol\":645:664  properties[_propId] */\n      dup2\n      mstore\n      0x20\n      add\n      swap1\n      dup2\n      mstore\n      0x20\n      add\n      0x00\n      keccak256\n        /* \"PropertyOwnership.sol\":645:674  properties[_propId].currOwner */\n      0x02\n      add\n      0x00\n      swap1\n      sload\n      swap1\n      0x0100\n      exp\n      swap1\n      div\n      0xffffffffffffffffffffffffffffffffffffffff\n      and\n        /* \"PropertyOwnership.sol\":645:688  properties[_propId].currOwner == msg.sender */\n      0xffffffffffffffffffffffffffffffffffffffff\n      and\n      eq\n        /* \"PropertyOwnership.sol\":637:739  require(properties[_propId].currOwner == msg.sender, \"Owner is authorized for this transaction only!\") */\n      tag_168\n      jumpi\n      mload(0x40)\n      0x08c379a000000000000000000000000000000000000000000000000000000000\n      dup2\n      mstore\n      0x04\n      add\n      tag_169\n      swap1\n      tag_170\n      jump\t// in\n    tag_169:\n      mload(0x40)\n      dup1\n      swap2\n      sub\n      swap1\n      revert\n    tag_168:\n        /* \"PropertyOwnership.sol\":3282:3283  0 */\n      0x00\n        /* \"PropertyOwnership.sol\":3246:3284  propOwnerChange[_propId] == address(0) */\n      0xffffffffffffffffffffffffffffffffffffffff\n      and\n        /* \"PropertyOwnership.sol\":3246:3261  propOwnerChange */\n      0x03\n        /* \"PropertyOwnership.sol\":3246:3270  propOwnerChange[_propId] */\n      0x00\n        /* \"PropertyOwnership.sol\":3262:3269  _propId */\n      dup7\n        /* \"PropertyOwnership.sol\":3246:3270  propOwnerChange[_propId] */\n      dup2\n      mstore\n      0x20\n      add\n      swap1\n      dup2\n      mstore\n      0x20\n      add\n      0x00\n      keccak256\n      0x00\n      swap1\n      sload\n      swap1\n      0x0100\n      exp\n      swap1\n      div\n      0xffffffffffffffffffffffffffffffffffffffff\n      and\n        /* \"PropertyOwnership.sol\":3246:3284  propOwnerChange[_propId] == address(0) */\n      0xffffffffffffffffffffffffffffffffffffffff\n      and\n      eq\n        /* \"PropertyOwnership.sol\":3238:3345  require(propOwnerChange[_propId] == address(0), \"This property has a pending change of ownership request!\") */\n      tag_172\n      jumpi\n      mload(0x40)\n      0x08c379a000000000000000000000000000000000000000000000000000000000\n      dup2\n      mstore\n      0x04\n      add\n      tag_173\n      swap1\n      tag_174\n      jump\t// in\n    tag_173:\n      mload(0x40)\n      dup1\n      swap2\n      sub\n      swap1\n      revert\n    tag_172:\n        /* \"PropertyOwnership.sol\":3384:3393  _newValue */\n      dup3\n        /* \"PropertyOwnership.sol\":3356:3366  properties */\n      0x02\n        /* \"PropertyOwnership.sol\":3356:3375  properties[_propId] */\n      0x00\n        /* \"PropertyOwnership.sol\":3367:3374  _propId */\n      dup7\n        /* \"PropertyOwnership.sol\":3356:3375  properties[_propId] */\n      dup2\n      mstore\n      0x20\n      add\n      swap1\n      dup2\n      mstore\n      0x20\n      add\n      0x00\n      keccak256\n        /* \"PropertyOwnership.sol\":3356:3381  properties[_propId].value */\n      0x01\n      add\n        /* \"PropertyOwnership.sol\":3356:3393  properties[_propId].value = _newValue */\n      dup2\n      swap1\n      sstore\n      pop\n        /* \"PropertyOwnership.sol\":3411:3415  true */\n      0x01\n        /* \"PropertyOwnership.sol\":3404:3415  return true */\n      swap2\n      pop\n        /* \"PropertyOwnership.sol\":3135:3423  function changeValue(uint _propId, uint _newValue) public onlyOwner(_propId) returns (bool) {\r... */\n      pop\n      swap3\n      swap2\n      pop\n      pop\n      jump\t// out\n        /* \"PropertyOwnership.sol\":2288:2714  function changeOwnership(uint _propId, address _newOwner) public onlyOwner(_propId) verifiedUser(_newOwner) returns (bool) {\r... */\n    tag_70:\n        /* \"PropertyOwnership.sol\":2405:2409  bool */\n      0x00\n        /* \"PropertyOwnership.sol\":2363:2370  _propId */\n      dup3\n        /* \"PropertyOwnership.sol\":678:688  msg.sender */\n      caller\n        /* \"PropertyOwnership.sol\":645:688  properties[_propId].currOwner == msg.sender */\n      0xffffffffffffffffffffffffffffffffffffffff\n      and\n        /* \"PropertyOwnership.sol\":645:655  properties */\n      0x02\n        /* \"PropertyOwnership.sol\":645:664  properties[_propId] */\n      0x00\n        /* \"PropertyOwnership.sol\":656:663  _propId */\n      dup4\n        /* \"PropertyOwnership.sol\":645:664  properties[_propId] */\n      dup2\n      mstore\n      0x20\n      add\n      swap1\n      dup2\n      mstore\n      0x20\n      add\n      0x00\n      keccak256\n        /* \"PropertyOwnership.sol\":645:674  properties[_propId].currOwner */\n      0x02\n      add\n      0x00\n      swap1\n      sload\n      swap1\n      0x0100\n      exp\n      swap1\n      div\n      0xffffffffffffffffffffffffffffffffffffffff\n      and\n        /* \"PropertyOwnership.sol\":645:688  properties[_propId].currOwner == msg.sender */\n      0xffffffffffffffffffffffffffffffffffffffff\n      and\n      eq\n        /* \"PropertyOwnership.sol\":637:739  require(properties[_propId].currOwner == msg.sender, \"Owner is authorized for this transaction only!\") */\n      tag_176\n      jumpi\n      mload(0x40)\n      0x08c379a000000000000000000000000000000000000000000000000000000000\n      dup2\n      mstore\n      0x04\n      add\n      tag_177\n      swap1\n      tag_170\n      jump\t// in\n    tag_177:\n      mload(0x40)\n      dup1\n      swap2\n      sub\n      swap1\n      revert\n    tag_176:\n        /* \"PropertyOwnership.sol\":2385:2394  _newOwner */\n      dup3\n        /* \"PropertyOwnership.sol\":808:821  verifiedUsers */\n      0x05\n        /* \"PropertyOwnership.sol\":808:828  verifiedUsers[_user] */\n      0x00\n        /* \"PropertyOwnership.sol\":822:827  _user */\n      dup3\n        /* \"PropertyOwnership.sol\":808:828  verifiedUsers[_user] */\n      0xffffffffffffffffffffffffffffffffffffffff\n      and\n      0xffffffffffffffffffffffffffffffffffffffff\n      and\n      dup2\n      mstore\n      0x20\n      add\n      swap1\n      dup2\n      mstore\n      0x20\n      add\n      0x00\n      keccak256\n      0x00\n      swap1\n      sload\n      swap1\n      0x0100\n      exp\n      swap1\n      div\n      0xff\n      and\n        /* \"PropertyOwnership.sol\":800:863  require(verifiedUsers[_user], \"Owner must be a verified user!\") */\n      tag_179\n      jumpi\n      mload(0x40)\n      0x08c379a000000000000000000000000000000000000000000000000000000000\n      dup2\n      mstore\n      0x04\n      add\n      tag_180\n      swap1\n      tag_181\n      jump\t// in\n    tag_180:\n      mload(0x40)\n      dup1\n      swap2\n      sub\n      swap1\n      revert\n    tag_179:\n        /* \"PropertyOwnership.sol\":2457:2466  _newOwner */\n      dup4\n        /* \"PropertyOwnership.sol\":2424:2466  properties[_propId].currOwner != _newOwner */\n      0xffffffffffffffffffffffffffffffffffffffff\n      and\n        /* \"PropertyOwnership.sol\":2424:2434  properties */\n      0x02\n        /* \"PropertyOwnership.sol\":2424:2443  properties[_propId] */\n      0x00\n        /* \"PropertyOwnership.sol\":2435:2442  _propId */\n      dup8\n        /* \"PropertyOwnership.sol\":2424:2443  properties[_propId] */\n      dup2\n      mstore\n      0x20\n      add\n      swap1\n      dup2\n      mstore\n      0x20\n      add\n      0x00\n      keccak256\n        /* \"PropertyOwnership.sol\":2424:2453  properties[_propId].currOwner */\n      0x02\n      add\n      0x00\n      swap1\n      sload\n      swap1\n      0x0100\n      exp\n      swap1\n      div\n      0xffffffffffffffffffffffffffffffffffffffff\n      and\n        /* \"PropertyOwnership.sol\":2424:2466  properties[_propId].currOwner != _newOwner */\n      0xffffffffffffffffffffffffffffffffffffffff\n      and\n      eq\n      iszero\n        /* \"PropertyOwnership.sol\":2416:2532  require(properties[_propId].currOwner != _newOwner, \"New owner's address must differ from current owner's address!\") */\n      tag_183\n      jumpi\n      mload(0x40)\n      0x08c379a000000000000000000000000000000000000000000000000000000000\n      dup2\n      mstore\n      0x04\n      add\n      tag_184\n      swap1\n      tag_185\n      jump\t// in\n    tag_184:\n      mload(0x40)\n      dup1\n      swap2\n      sub\n      swap1\n      revert\n    tag_183:\n        /* \"PropertyOwnership.sol\":2581:2582  0 */\n      0x00\n        /* \"PropertyOwnership.sol\":2545:2583  propOwnerChange[_propId] == address(0) */\n      0xffffffffffffffffffffffffffffffffffffffff\n      and\n        /* \"PropertyOwnership.sol\":2545:2560  propOwnerChange */\n      0x03\n        /* \"PropertyOwnership.sol\":2545:2569  propOwnerChange[_propId] */\n      0x00\n        /* \"PropertyOwnership.sol\":2561:2568  _propId */\n      dup8\n        /* \"PropertyOwnership.sol\":2545:2569  propOwnerChange[_propId] */\n      dup2\n      mstore\n      0x20\n      add\n      swap1\n      dup2\n      mstore\n      0x20\n      add\n      0x00\n      keccak256\n      0x00\n      swap1\n      sload\n      swap1\n      0x0100\n      exp\n      swap1\n      div\n      0xffffffffffffffffffffffffffffffffffffffff\n      and\n        /* \"PropertyOwnership.sol\":2545:2583  propOwnerChange[_propId] == address(0) */\n      0xffffffffffffffffffffffffffffffffffffffff\n      and\n      eq\n        /* \"PropertyOwnership.sol\":2537:2652  require(propOwnerChange[_propId] == address(0), \"This property already has a pending change of ownership request!\") */\n      tag_186\n      jumpi\n      mload(0x40)\n      0x08c379a000000000000000000000000000000000000000000000000000000000\n      dup2\n      mstore\n      0x04\n      add\n      tag_187\n      swap1\n      tag_188\n      jump\t// in\n    tag_187:\n      mload(0x40)\n      dup1\n      swap2\n      sub\n      swap1\n      revert\n    tag_186:\n        /* \"PropertyOwnership.sol\":2684:2693  _newOwner */\n      dup4\n        /* \"PropertyOwnership.sol\":2657:2672  propOwnerChange */\n      0x03\n        /* \"PropertyOwnership.sol\":2657:2681  propOwnerChange[_propId] */\n      0x00\n        /* \"PropertyOwnership.sol\":2673:2680  _propId */\n      dup8\n        /* \"PropertyOwnership.sol\":2657:2681  propOwnerChange[_propId] */\n      dup2\n      mstore\n      0x20\n      add\n      swap1\n      dup2\n      mstore\n      0x20\n      add\n      0x00\n      keccak256\n      0x00\n        /* \"PropertyOwnership.sol\":2657:2693  propOwnerChange[_propId] = _newOwner */\n      0x0100\n      exp\n      dup2\n      sload\n      dup2\n      0xffffffffffffffffffffffffffffffffffffffff\n      mul\n      not\n      and\n      swap1\n      dup4\n      0xffffffffffffffffffffffffffffffffffffffff\n      and\n      mul\n      or\n      swap1\n      sstore\n      pop\n        /* \"PropertyOwnership.sol\":2705:2709  true */\n      0x01\n        /* \"PropertyOwnership.sol\":2698:2709  return true */\n      swap3\n      pop\n        /* \"PropertyOwnership.sol\":744:745  _ */\n      pop\n        /* \"PropertyOwnership.sol\":2288:2714  function changeOwnership(uint _propId, address _newOwner) public onlyOwner(_propId) verifiedUser(_newOwner) returns (bool) {\r... */\n      pop\n      swap3\n      swap2\n      pop\n      pop\n      jump\t// out\n        /* \"PropertyOwnership.sol\":1427:1662  function createProperty(uint _value, address _owner) public verifiedAdmin verifiedUser(_owner) returns (uint) {\r... */\n    tag_74:\n        /* \"PropertyOwnership.sol\":1531:1535  uint */\n      0x00\n        /* \"PropertyOwnership.sol\":941:942  2 */\n      0x02\n        /* \"PropertyOwnership.sol\":920:925  users */\n      0x04\n        /* \"PropertyOwnership.sol\":920:937  users[msg.sender] */\n      0x00\n        /* \"PropertyOwnership.sol\":926:936  msg.sender */\n      caller\n        /* \"PropertyOwnership.sol\":920:937  users[msg.sender] */\n      0xffffffffffffffffffffffffffffffffffffffff\n      and\n      0xffffffffffffffffffffffffffffffffffffffff\n      and\n      dup2\n      mstore\n      0x20\n      add\n      swap1\n      dup2\n      mstore\n      0x20\n      add\n      0x00\n      keccak256\n      sload\n        /* \"PropertyOwnership.sol\":920:942  users[msg.sender] >= 2 */\n      slt\n      iszero\n        /* \"PropertyOwnership.sol\":920:971  users[msg.sender] >= 2 && verifiedUsers[msg.sender] */\n      dup1\n      iszero\n      tag_190\n      jumpi\n      pop\n        /* \"PropertyOwnership.sol\":946:959  verifiedUsers */\n      0x05\n        /* \"PropertyOwnership.sol\":946:971  verifiedUsers[msg.sender] */\n      0x00\n        /* \"PropertyOwnership.sol\":960:970  msg.sender */\n      caller\n        /* \"PropertyOwnership.sol\":946:971  verifiedUsers[msg.sender] */\n      0xffffffffffffffffffffffffffffffffffffffff\n      and\n      0xffffffffffffffffffffffffffffffffffffffff\n      and\n      dup2\n      mstore\n      0x20\n      add\n      swap1\n      dup2\n      mstore\n      0x20\n      add\n      0x00\n      keccak256\n      0x00\n      swap1\n      sload\n      swap1\n      0x0100\n      exp\n      swap1\n      div\n      0xff\n      and\n        /* \"PropertyOwnership.sol\":920:971  users[msg.sender] >= 2 && verifiedUsers[msg.sender] */\n    tag_190:\n        /* \"PropertyOwnership.sol\":912:1034  require(users[msg.sender] >= 2 && verifiedUsers[msg.sender], \"Super Admin and Admin are authorized for this transaction!\") */\n      tag_191\n      jumpi\n      mload(0x40)\n      0x08c379a000000000000000000000000000000000000000000000000000000000\n      dup2\n      mstore\n      0x04\n      add\n      tag_192\n      swap1\n      tag_193\n      jump\t// in\n    tag_192:\n      mload(0x40)\n      dup1\n      swap2\n      sub\n      swap1\n      revert\n    tag_191:\n        /* \"PropertyOwnership.sol\":1514:1520  _owner */\n      dup2\n        /* \"PropertyOwnership.sol\":808:821  verifiedUsers */\n      0x05\n        /* \"PropertyOwnership.sol\":808:828  verifiedUsers[_user] */\n      0x00\n        /* \"PropertyOwnership.sol\":822:827  _user */\n      dup3\n        /* \"PropertyOwnership.sol\":808:828  verifiedUsers[_user] */\n      0xffffffffffffffffffffffffffffffffffffffff\n      and\n      0xffffffffffffffffffffffffffffffffffffffff\n      and\n      dup2\n      mstore\n      0x20\n      add\n      swap1\n      dup2\n      mstore\n      0x20\n      add\n      0x00\n      keccak256\n      0x00\n      swap1\n      sload\n      swap1\n      0x0100\n      exp\n      swap1\n      div\n      0xff\n      and\n        /* \"PropertyOwnership.sol\":800:863  require(verifiedUsers[_user], \"Owner must be a verified user!\") */\n      tag_195\n      jumpi\n      mload(0x40)\n      0x08c379a000000000000000000000000000000000000000000000000000000000\n      dup2\n      mstore\n      0x04\n      add\n      tag_196\n      swap1\n      tag_181\n      jump\t// in\n    tag_196:\n      mload(0x40)\n      dup1\n      swap2\n      sub\n      swap1\n      revert\n    tag_195:\n        /* \"PropertyOwnership.sol\":1563:1609  PropertyDetail(Status.Pending, _value, _owner) */\n      mload(0x40)\n      dup1\n      0x60\n      add\n      0x40\n      mstore\n      dup1\n        /* \"PropertyOwnership.sol\":1578:1592  Status.Pending */\n      0x01\n        /* \"PropertyOwnership.sol\":1563:1609  PropertyDetail(Status.Pending, _value, _owner) */\n      0x03\n      dup2\n      gt\n      iszero\n      tag_198\n      jumpi\n      mstore(0x00, 0x4e487b7100000000000000000000000000000000000000000000000000000000)\n      mstore(0x04, 0x21)\n      revert(0x00, 0x24)\n    tag_198:\n      dup2\n      mstore\n      0x20\n      add\n        /* \"PropertyOwnership.sol\":1594:1600  _value */\n      dup6\n        /* \"PropertyOwnership.sol\":1563:1609  PropertyDetail(Status.Pending, _value, _owner) */\n      dup2\n      mstore\n      0x20\n      add\n        /* \"PropertyOwnership.sol\":1602:1608  _owner */\n      dup5\n        /* \"PropertyOwnership.sol\":1563:1609  PropertyDetail(Status.Pending, _value, _owner) */\n      0xffffffffffffffffffffffffffffffffffffffff\n      and\n      dup2\n      mstore\n      pop\n        /* \"PropertyOwnership.sol\":1542:1552  properties */\n      0x02\n        /* \"PropertyOwnership.sol\":1542:1560  properties[propId] */\n      0x00\n        /* \"PropertyOwnership.sol\":1553:1559  propId */\n      sload(0x01)\n        /* \"PropertyOwnership.sol\":1542:1560  properties[propId] */\n      dup2\n      mstore\n      0x20\n      add\n      swap1\n      dup2\n      mstore\n      0x20\n      add\n      0x00\n      keccak256\n        /* \"PropertyOwnership.sol\":1542:1609  properties[propId] = PropertyDetail(Status.Pending, _value, _owner) */\n      0x00\n      dup3\n      add\n      mload\n      dup2\n      0x00\n      add\n      exp(0x0100, 0x00)\n      dup2\n      sload\n      dup2\n      0xff\n      mul\n      not\n      and\n      swap1\n      dup4\n      0x03\n      dup2\n      gt\n      iszero\n      tag_199\n      jumpi\n      mstore(0x00, 0x4e487b7100000000000000000000000000000000000000000000000000000000)\n      mstore(0x04, 0x21)\n      revert(0x00, 0x24)\n    tag_199:\n      mul\n      or\n      swap1\n      sstore\n      pop\n      0x20\n      dup3\n      add\n      mload\n      dup2\n      0x01\n      add\n      sstore\n      0x40\n      dup3\n      add\n      mload\n      dup2\n      0x02\n      add\n      exp(0x0100, 0x00)\n      dup2\n      sload\n      dup2\n      0xffffffffffffffffffffffffffffffffffffffff\n      mul\n      not\n      and\n      swap1\n      dup4\n      0xffffffffffffffffffffffffffffffffffffffff\n      and\n      mul\n      or\n      swap1\n      sstore\n      pop\n      swap1\n      pop\n      pop\n        /* \"PropertyOwnership.sol\":1614:1621  uint id */\n      0x00\n        /* \"PropertyOwnership.sol\":1624:1630  propId */\n      sload(0x01)\n        /* \"PropertyOwnership.sol\":1614:1630  uint id = propId */\n      swap1\n      pop\n        /* \"PropertyOwnership.sol\":1635:1641  propId */\n      0x01\n      0x00\n        /* \"PropertyOwnership.sol\":1635:1643  propId++ */\n      dup2\n      sload\n      dup1\n      swap3\n      swap2\n      swap1\n      tag_200\n      swap1\n      tag_201\n      jump\t// in\n    tag_200:\n      swap2\n      swap1\n      pop\n      sstore\n      pop\n        /* \"PropertyOwnership.sol\":1655:1657  id */\n      dup1\n        /* \"PropertyOwnership.sol\":1648:1657  return id */\n      swap3\n      pop\n      pop\n        /* \"PropertyOwnership.sol\":1039:1040  _ */\n      pop\n        /* \"PropertyOwnership.sol\":1427:1662  function createProperty(uint _value, address _owner) public verifiedAdmin verifiedUser(_owner) returns (uint) {\r... */\n      swap3\n      swap2\n      pop\n      pop\n      jump\t// out\n        /* \"PropertyOwnership.sol\":449:496  mapping(uint => address) public propOwnerChange */\n    tag_78:\n      mstore(0x20, 0x03)\n      dup1\n      0x00\n      mstore\n      keccak256(0x00, 0x40)\n      0x00\n      swap2\n      pop\n      sload\n      swap1\n      0x0100\n      exp\n      swap1\n      div\n      0xffffffffffffffffffffffffffffffffffffffff\n      and\n      dup2\n      jump\t// out\n        /* \"PropertyOwnership.sol\":505:541  mapping(address => int) public users */\n    tag_82:\n      mstore(0x20, 0x04)\n      dup1\n      0x00\n      mstore\n      keccak256(0x00, 0x40)\n      0x00\n      swap2\n      pop\n      swap1\n      pop\n      sload\n      dup2\n      jump\t// out\n        /* \"PropertyOwnership.sol\":5116:5389  function removeUsers(address user) public verifiedSuperAdmin returns (bool) {\r... */\n    tag_87:\n        /* \"PropertyOwnership.sol\":5186:5190  bool */\n      0x00\n        /* \"PropertyOwnership.sol\":1117:1118  3 */\n      0x03\n        /* \"PropertyOwnership.sol\":1096:1101  users */\n      0x04\n        /* \"PropertyOwnership.sol\":1096:1113  users[msg.sender] */\n      0x00\n        /* \"PropertyOwnership.sol\":1102:1112  msg.sender */\n      caller\n        /* \"PropertyOwnership.sol\":1096:1113  users[msg.sender] */\n      0xffffffffffffffffffffffffffffffffffffffff\n      and\n      0xffffffffffffffffffffffffffffffffffffffff\n      and\n      dup2\n      mstore\n      0x20\n      add\n      swap1\n      dup2\n      mstore\n      0x20\n      add\n      0x00\n      keccak256\n      sload\n        /* \"PropertyOwnership.sol\":1096:1118  users[msg.sender] == 3 */\n      eq\n        /* \"PropertyOwnership.sol\":1096:1147  users[msg.sender] == 3 && verifiedUsers[msg.sender] */\n      dup1\n      iszero\n      tag_203\n      jumpi\n      pop\n        /* \"PropertyOwnership.sol\":1122:1135  verifiedUsers */\n      0x05\n        /* \"PropertyOwnership.sol\":1122:1147  verifiedUsers[msg.sender] */\n      0x00\n        /* \"PropertyOwnership.sol\":1136:1146  msg.sender */\n      caller\n        /* \"PropertyOwnership.sol\":1122:1147  verifiedUsers[msg.sender] */\n      0xffffffffffffffffffffffffffffffffffffffff\n      and\n      0xffffffffffffffffffffffffffffffffffffffff\n      and\n      dup2\n      mstore\n      0x20\n      add\n      swap1\n      dup2\n      mstore\n      0x20\n      add\n      0x00\n      keccak256\n      0x00\n      swap1\n      sload\n      swap1\n      0x0100\n      exp\n      swap1\n      div\n      0xff\n      and\n        /* \"PropertyOwnership.sol\":1096:1147  users[msg.sender] == 3 && verifiedUsers[msg.sender] */\n    tag_203:\n        /* \"PropertyOwnership.sol\":1088:1204  require(users[msg.sender] == 3 && verifiedUsers[msg.sender], \"Super Admin is authorized for this transaction only!\") */\n      tag_204\n      jumpi\n      mload(0x40)\n      0x08c379a000000000000000000000000000000000000000000000000000000000\n      dup2\n      mstore\n      0x04\n      add\n      tag_205\n      swap1\n      tag_117\n      jump\t// in\n    tag_205:\n      mload(0x40)\n      dup1\n      swap2\n      sub\n      swap1\n      revert\n    tag_204:\n        /* \"PropertyOwnership.sol\":5223:5224  3 */\n      0x03\n        /* \"PropertyOwnership.sol\":5208:5213  users */\n      0x04\n        /* \"PropertyOwnership.sol\":5208:5219  users[user] */\n      0x00\n        /* \"PropertyOwnership.sol\":5214:5218  user */\n      dup5\n        /* \"PropertyOwnership.sol\":5208:5219  users[user] */\n      0xffffffffffffffffffffffffffffffffffffffff\n      and\n      0xffffffffffffffffffffffffffffffffffffffff\n      and\n      dup2\n      mstore\n      0x20\n      add\n      swap1\n      dup2\n      mstore\n      0x20\n      add\n      0x00\n      keccak256\n      sload\n        /* \"PropertyOwnership.sol\":5208:5224  users[user] != 3 */\n      eq\n      iszero\n        /* \"PropertyOwnership.sol\":5200:5251  require(users[user] != 3, \"User is a Super Admin!\") */\n      tag_207\n      jumpi\n      mload(0x40)\n      0x08c379a000000000000000000000000000000000000000000000000000000000\n      dup2\n      mstore\n      0x04\n      add\n      tag_208\n      swap1\n      tag_121\n      jump\t// in\n    tag_208:\n      mload(0x40)\n      dup1\n      swap2\n      sub\n      swap1\n      revert\n    tag_207:\n        /* \"PropertyOwnership.sol\":5282:5283  0 */\n      0x00\n        /* \"PropertyOwnership.sol\":5267:5272  users */\n      0x04\n        /* \"PropertyOwnership.sol\":5267:5278  users[user] */\n      0x00\n        /* \"PropertyOwnership.sol\":5273:5277  user */\n      dup5\n        /* \"PropertyOwnership.sol\":5267:5278  users[user] */\n      0xffffffffffffffffffffffffffffffffffffffff\n      and\n      0xffffffffffffffffffffffffffffffffffffffff\n      and\n      dup2\n      mstore\n      0x20\n      add\n      swap1\n      dup2\n      mstore\n      0x20\n      add\n      0x00\n      keccak256\n      sload\n        /* \"PropertyOwnership.sol\":5267:5283  users[user] != 0 */\n      eq\n      iszero\n        /* \"PropertyOwnership.sol\":5259:5307  require(users[user] != 0, \"User doesn't exist!\") */\n      tag_209\n      jumpi\n      mload(0x40)\n      0x08c379a000000000000000000000000000000000000000000000000000000000\n      dup2\n      mstore\n      0x04\n      add\n      tag_210\n      swap1\n      tag_156\n      jump\t// in\n    tag_210:\n      mload(0x40)\n      dup1\n      swap2\n      sub\n      swap1\n      revert\n    tag_209:\n        /* \"PropertyOwnership.sol\":5329:5330  0 */\n      0x00\n        /* \"PropertyOwnership.sol\":5315:5320  users */\n      0x04\n        /* \"PropertyOwnership.sol\":5315:5326  users[user] */\n      0x00\n        /* \"PropertyOwnership.sol\":5321:5325  user */\n      dup5\n        /* \"PropertyOwnership.sol\":5315:5326  users[user] */\n      0xffffffffffffffffffffffffffffffffffffffff\n      and\n      0xffffffffffffffffffffffffffffffffffffffff\n      and\n      dup2\n      mstore\n      0x20\n      add\n      swap1\n      dup2\n      mstore\n      0x20\n      add\n      0x00\n      keccak256\n        /* \"PropertyOwnership.sol\":5315:5330  users[user] = 0 */\n      dup2\n      swap1\n      sstore\n      pop\n        /* \"PropertyOwnership.sol\":5360:5365  false */\n      0x00\n        /* \"PropertyOwnership.sol\":5338:5351  verifiedUsers */\n      0x05\n        /* \"PropertyOwnership.sol\":5338:5357  verifiedUsers[user] */\n      0x00\n        /* \"PropertyOwnership.sol\":5352:5356  user */\n      dup5\n        /* \"PropertyOwnership.sol\":5338:5357  verifiedUsers[user] */\n      0xffffffffffffffffffffffffffffffffffffffff\n      and\n      0xffffffffffffffffffffffffffffffffffffffff\n      and\n      dup2\n      mstore\n      0x20\n      add\n      swap1\n      dup2\n      mstore\n      0x20\n      add\n      0x00\n      keccak256\n      0x00\n        /* \"PropertyOwnership.sol\":5338:5365  verifiedUsers[user] = false */\n      0x0100\n      exp\n      dup2\n      sload\n      dup2\n      0xff\n      mul\n      not\n      and\n      swap1\n      dup4\n      iszero\n      iszero\n      mul\n      or\n      swap1\n      sstore\n      pop\n        /* \"PropertyOwnership.sol\":5380:5384  true */\n      0x01\n        /* \"PropertyOwnership.sol\":5373:5384  return true */\n      swap1\n      pop\n        /* \"PropertyOwnership.sol\":5116:5389  function removeUsers(address user) public verifiedSuperAdmin returns (bool) {\r... */\n      swap2\n      swap1\n      pop\n      jump\t// out\n        /* \"PropertyOwnership.sol\":4242:4428  function addNewUser(address _newUser) public verifiedAdmin returns (bool) {\r... */\n    tag_91:\n        /* \"PropertyOwnership.sol\":4310:4314  bool */\n      0x00\n        /* \"PropertyOwnership.sol\":941:942  2 */\n      0x02\n        /* \"PropertyOwnership.sol\":920:925  users */\n      0x04\n        /* \"PropertyOwnership.sol\":920:937  users[msg.sender] */\n      0x00\n        /* \"PropertyOwnership.sol\":926:936  msg.sender */\n      caller\n        /* \"PropertyOwnership.sol\":920:937  users[msg.sender] */\n      0xffffffffffffffffffffffffffffffffffffffff\n      and\n      0xffffffffffffffffffffffffffffffffffffffff\n      and\n      dup2\n      mstore\n      0x20\n      add\n      swap1\n      dup2\n      mstore\n      0x20\n      add\n      0x00\n      keccak256\n      sload\n        /* \"PropertyOwnership.sol\":920:942  users[msg.sender] >= 2 */\n      slt\n      iszero\n        /* \"PropertyOwnership.sol\":920:971  users[msg.sender] >= 2 && verifiedUsers[msg.sender] */\n      dup1\n      iszero\n      tag_212\n      jumpi\n      pop\n        /* \"PropertyOwnership.sol\":946:959  verifiedUsers */\n      0x05\n        /* \"PropertyOwnership.sol\":946:971  verifiedUsers[msg.sender] */\n      0x00\n        /* \"PropertyOwnership.sol\":960:970  msg.sender */\n      caller\n        /* \"PropertyOwnership.sol\":946:971  verifiedUsers[msg.sender] */\n      0xffffffffffffffffffffffffffffffffffffffff\n      and\n      0xffffffffffffffffffffffffffffffffffffffff\n      and\n      dup2\n      mstore\n      0x20\n      add\n      swap1\n      dup2\n      mstore\n      0x20\n      add\n      0x00\n      keccak256\n      0x00\n      swap1\n      sload\n      swap1\n      0x0100\n      exp\n      swap1\n      div\n      0xff\n      and\n        /* \"PropertyOwnership.sol\":920:971  users[msg.sender] >= 2 && verifiedUsers[msg.sender] */\n    tag_212:\n        /* \"PropertyOwnership.sol\":912:1034  require(users[msg.sender] >= 2 && verifiedUsers[msg.sender], \"Super Admin and Admin are authorized for this transaction!\") */\n      tag_213\n      jumpi\n      mload(0x40)\n      0x08c379a000000000000000000000000000000000000000000000000000000000\n      dup2\n      mstore\n      0x04\n      add\n      tag_214\n      swap1\n      tag_193\n      jump\t// in\n    tag_214:\n      mload(0x40)\n      dup1\n      swap2\n      sub\n      swap1\n      revert\n    tag_213:\n        /* \"PropertyOwnership.sol\":4351:4352  0 */\n      0x00\n        /* \"PropertyOwnership.sol\":4332:4337  users */\n      0x04\n        /* \"PropertyOwnership.sol\":4332:4347  users[_newUser] */\n      0x00\n        /* \"PropertyOwnership.sol\":4338:4346  _newUser */\n      dup5\n        /* \"PropertyOwnership.sol\":4332:4347  users[_newUser] */\n      0xffffffffffffffffffffffffffffffffffffffff\n      and\n      0xffffffffffffffffffffffffffffffffffffffff\n      and\n      dup2\n      mstore\n      0x20\n      add\n      swap1\n      dup2\n      mstore\n      0x20\n      add\n      0x00\n      keccak256\n      sload\n        /* \"PropertyOwnership.sol\":4332:4352  users[_newUser] == 0 */\n      eq\n        /* \"PropertyOwnership.sol\":4324:4377  require(users[_newUser] == 0, \"User exists already!\") */\n      tag_216\n      jumpi\n      mload(0x40)\n      0x08c379a000000000000000000000000000000000000000000000000000000000\n      dup2\n      mstore\n      0x04\n      add\n      tag_217\n      swap1\n      tag_218\n      jump\t// in\n    tag_217:\n      mload(0x40)\n      dup1\n      swap2\n      sub\n      swap1\n      revert\n    tag_216:\n        /* \"PropertyOwnership.sol\":4403:4404  1 */\n      0x01\n        /* \"PropertyOwnership.sol\":4385:4390  users */\n      0x04\n        /* \"PropertyOwnership.sol\":4385:4400  users[_newUser] */\n      0x00\n        /* \"PropertyOwnership.sol\":4391:4399  _newUser */\n      dup5\n        /* \"PropertyOwnership.sol\":4385:4400  users[_newUser] */\n      0xffffffffffffffffffffffffffffffffffffffff\n      and\n      0xffffffffffffffffffffffffffffffffffffffff\n      and\n      dup2\n      mstore\n      0x20\n      add\n      swap1\n      dup2\n      mstore\n      0x20\n      add\n      0x00\n      keccak256\n        /* \"PropertyOwnership.sol\":4385:4404  users[_newUser] = 1 */\n      dup2\n      swap1\n      sstore\n      pop\n        /* \"PropertyOwnership.sol\":4419:4423  true */\n      0x01\n        /* \"PropertyOwnership.sol\":4412:4423  return true */\n      swap1\n      pop\n        /* \"PropertyOwnership.sol\":4242:4428  function addNewUser(address _newUser) public verifiedAdmin returns (bool) {\r... */\n      swap2\n      swap1\n      pop\n      jump\t// out\n        /* \"PropertyOwnership.sol\":548:593  mapping(address => bool) public verifiedUsers */\n    tag_95:\n      mstore(0x20, 0x05)\n      dup1\n      0x00\n      mstore\n      keccak256(0x00, 0x40)\n      0x00\n      swap2\n      pop\n      sload\n      swap1\n      0x0100\n      exp\n      swap1\n      div\n      0xff\n      and\n      dup2\n      jump\t// out\n        /* \"PropertyOwnership.sol\":1698:1957  function approveProperty(uint _propId) public verifiedSuperAdmin returns (bool){\r... */\n    tag_99:\n        /* \"PropertyOwnership.sol\":1772:1776  bool */\n      0x00\n        /* \"PropertyOwnership.sol\":1117:1118  3 */\n      0x03\n        /* \"PropertyOwnership.sol\":1096:1101  users */\n      0x04\n        /* \"PropertyOwnership.sol\":1096:1113  users[msg.sender] */\n      0x00\n        /* \"PropertyOwnership.sol\":1102:1112  msg.sender */\n      caller\n        /* \"PropertyOwnership.sol\":1096:1113  users[msg.sender] */\n      0xffffffffffffffffffffffffffffffffffffffff\n      and\n      0xffffffffffffffffffffffffffffffffffffffff\n      and\n      dup2\n      mstore\n      0x20\n      add\n      swap1\n      dup2\n      mstore\n      0x20\n      add\n      0x00\n      keccak256\n      sload\n        /* \"PropertyOwnership.sol\":1096:1118  users[msg.sender] == 3 */\n      eq\n        /* \"PropertyOwnership.sol\":1096:1147  users[msg.sender] == 3 && verifiedUsers[msg.sender] */\n      dup1\n      iszero\n      tag_220\n      jumpi\n      pop\n        /* \"PropertyOwnership.sol\":1122:1135  verifiedUsers */\n      0x05\n        /* \"PropertyOwnership.sol\":1122:1147  verifiedUsers[msg.sender] */\n      0x00\n        /* \"PropertyOwnership.sol\":1136:1146  msg.sender */\n      caller\n        /* \"PropertyOwnership.sol\":1122:1147  verifiedUsers[msg.sender] */\n      0xffffffffffffffffffffffffffffffffffffffff\n      and\n      0xffffffffffffffffffffffffffffffffffffffff\n      and\n      dup2\n      mstore\n      0x20\n      add\n      swap1\n      dup2\n      mstore\n      0x20\n      add\n      0x00\n      keccak256\n      0x00\n      swap1\n      sload\n      swap1\n      0x0100\n      exp\n      swap1\n      div\n      0xff\n      and\n        /* \"PropertyOwnership.sol\":1096:1147  users[msg.sender] == 3 && verifiedUsers[msg.sender] */\n    tag_220:\n        /* \"PropertyOwnership.sol\":1088:1204  require(users[msg.sender] == 3 && verifiedUsers[msg.sender], \"Super Admin is authorized for this transaction only!\") */\n      tag_221\n      jumpi\n      mload(0x40)\n      0x08c379a000000000000000000000000000000000000000000000000000000000\n      dup2\n      mstore\n      0x04\n      add\n      tag_222\n      swap1\n      tag_117\n      jump\t// in\n    tag_222:\n      mload(0x40)\n      dup1\n      swap2\n      sub\n      swap1\n      revert\n    tag_221:\n        /* \"PropertyOwnership.sol\":1823:1833  msg.sender */\n      caller\n        /* \"PropertyOwnership.sol\":1790:1833  properties[_propId].currOwner != msg.sender */\n      0xffffffffffffffffffffffffffffffffffffffff\n      and\n        /* \"PropertyOwnership.sol\":1790:1800  properties */\n      0x02\n        /* \"PropertyOwnership.sol\":1790:1809  properties[_propId] */\n      0x00\n        /* \"PropertyOwnership.sol\":1801:1808  _propId */\n      dup5\n        /* \"PropertyOwnership.sol\":1790:1809  properties[_propId] */\n      dup2\n      mstore\n      0x20\n      add\n      swap1\n      dup2\n      mstore\n      0x20\n      add\n      0x00\n      keccak256\n        /* \"PropertyOwnership.sol\":1790:1819  properties[_propId].currOwner */\n      0x02\n      add\n      0x00\n      swap1\n      sload\n      swap1\n      0x0100\n      exp\n      swap1\n      div\n      0xffffffffffffffffffffffffffffffffffffffff\n      and\n        /* \"PropertyOwnership.sol\":1790:1833  properties[_propId].currOwner != msg.sender */\n      0xffffffffffffffffffffffffffffffffffffffff\n      and\n      eq\n      iszero\n        /* \"PropertyOwnership.sol\":1782:1887  require(properties[_propId].currOwner != msg.sender, \"Owner of a property is not allowed to approve it!\") */\n      tag_224\n      jumpi\n      mload(0x40)\n      0x08c379a000000000000000000000000000000000000000000000000000000000\n      dup2\n      mstore\n      0x04\n      add\n      tag_225\n      swap1\n      tag_226\n      jump\t// in\n    tag_225:\n      mload(0x40)\n      dup1\n      swap2\n      sub\n      swap1\n      revert\n    tag_224:\n        /* \"PropertyOwnership.sol\":1921:1936  Status.Approved */\n      0x02\n        /* \"PropertyOwnership.sol\":1892:1902  properties */\n      dup1\n        /* \"PropertyOwnership.sol\":1892:1911  properties[_propId] */\n      0x00\n        /* \"PropertyOwnership.sol\":1903:1910  _propId */\n      dup5\n        /* \"PropertyOwnership.sol\":1892:1911  properties[_propId] */\n      dup2\n      mstore\n      0x20\n      add\n      swap1\n      dup2\n      mstore\n      0x20\n      add\n      0x00\n      keccak256\n        /* \"PropertyOwnership.sol\":1892:1918  properties[_propId].status */\n      0x00\n      add\n      0x00\n        /* \"PropertyOwnership.sol\":1892:1936  properties[_propId].status = Status.Approved */\n      0x0100\n      exp\n      dup2\n      sload\n      dup2\n      0xff\n      mul\n      not\n      and\n      swap1\n      dup4\n      0x03\n      dup2\n      gt\n      iszero\n      tag_227\n      jumpi\n      mstore(0x00, 0x4e487b7100000000000000000000000000000000000000000000000000000000)\n      mstore(0x04, 0x21)\n      revert(0x00, 0x24)\n    tag_227:\n      mul\n      or\n      swap1\n      sstore\n      pop\n        /* \"PropertyOwnership.sol\":1948:1952  true */\n      0x01\n        /* \"PropertyOwnership.sol\":1941:1952  return true */\n      swap1\n      pop\n        /* \"PropertyOwnership.sol\":1698:1957  function approveProperty(uint _propId) public verifiedSuperAdmin returns (bool){\r... */\n      swap2\n      swap1\n      pop\n      jump\t// out\n        /* \"PropertyOwnership.sol\":3687:4218  function getProperties() public view returns (Status[] memory, uint[] memory, address[] memory) {\r... */\n    tag_102:\n        /* \"PropertyOwnership.sol\":3733:3748  Status[] memory */\n      0x60\n        /* \"PropertyOwnership.sol\":3750:3763  uint[] memory */\n      dup1\n        /* \"PropertyOwnership.sol\":3765:3781  address[] memory */\n      0x60\n        /* \"PropertyOwnership.sol\":3794:3818  Status[] memory statuses */\n      0x00\n        /* \"PropertyOwnership.sol\":3834:3840  propId */\n      sload(0x01)\n        /* \"PropertyOwnership.sol\":3821:3841  new Status[](propId) */\n      0xffffffffffffffff\n      dup2\n      gt\n      iszero\n      tag_229\n      jumpi\n      mstore(0x00, 0x4e487b7100000000000000000000000000000000000000000000000000000000)\n      mstore(0x04, 0x41)\n      revert(0x00, 0x24)\n    tag_229:\n      mload(0x40)\n      swap1\n      dup1\n      dup3\n      mstore\n      dup1\n      0x20\n      mul\n      0x20\n      add\n      dup3\n      add\n      0x40\n      mstore\n      dup1\n      iszero\n      tag_230\n      jumpi\n      dup2\n      0x20\n      add\n      0x20\n      dup3\n      mul\n      dup1\n      calldatasize\n      dup4\n      calldatacopy\n      dup1\n      dup3\n      add\n      swap2\n      pop\n      pop\n      swap1\n      pop\n    tag_230:\n      pop\n        /* \"PropertyOwnership.sol\":3794:3841  Status[] memory statuses = new Status[](propId) */\n      swap1\n      pop\n        /* \"PropertyOwnership.sol\":3852:3872  uint[] memory values */\n      0x00\n        /* \"PropertyOwnership.sol\":3886:3892  propId */\n      sload(0x01)\n        /* \"PropertyOwnership.sol\":3875:3893  new uint[](propId) */\n      0xffffffffffffffff\n      dup2\n      gt\n      iszero\n      tag_231\n      jumpi\n      mstore(0x00, 0x4e487b7100000000000000000000000000000000000000000000000000000000)\n      mstore(0x04, 0x41)\n      revert(0x00, 0x24)\n    tag_231:\n      mload(0x40)\n      swap1\n      dup1\n      dup3\n      mstore\n      dup1\n      0x20\n      mul\n      0x20\n      add\n      dup3\n      add\n      0x40\n      mstore\n      dup1\n      iszero\n      tag_232\n      jumpi\n      dup2\n      0x20\n      add\n      0x20\n      dup3\n      mul\n      dup1\n      calldatasize\n      dup4\n      calldatacopy\n      dup1\n      dup3\n      add\n      swap2\n      pop\n      pop\n      swap1\n      pop\n    tag_232:\n      pop\n        /* \"PropertyOwnership.sol\":3852:3893  uint[] memory values = new uint[](propId) */\n      swap1\n      pop\n        /* \"PropertyOwnership.sol\":3901:3924  address[] memory owners */\n      0x00\n        /* \"PropertyOwnership.sol\":3941:3947  propId */\n      sload(0x01)\n        /* \"PropertyOwnership.sol\":3927:3948  new address[](propId) */\n      0xffffffffffffffff\n      dup2\n      gt\n      iszero\n      tag_233\n      jumpi\n      mstore(0x00, 0x4e487b7100000000000000000000000000000000000000000000000000000000)\n      mstore(0x04, 0x41)\n      revert(0x00, 0x24)\n    tag_233:\n      mload(0x40)\n      swap1\n      dup1\n      dup3\n      mstore\n      dup1\n      0x20\n      mul\n      0x20\n      add\n      dup3\n      add\n      0x40\n      mstore\n      dup1\n      iszero\n      tag_234\n      jumpi\n      dup2\n      0x20\n      add\n      0x20\n      dup3\n      mul\n      dup1\n      calldatasize\n      dup4\n      calldatacopy\n      dup1\n      dup3\n      add\n      swap2\n      pop\n      pop\n      swap1\n      pop\n    tag_234:\n      pop\n        /* \"PropertyOwnership.sol\":3901:3948  address[] memory owners = new address[](propId) */\n      swap1\n      pop\n        /* \"PropertyOwnership.sol\":3974:3980  uint i */\n      0x00\n        /* \"PropertyOwnership.sol\":3969:4160  for (uint i = 0; i < propId; i++) {\r... */\n    tag_235:\n        /* \"PropertyOwnership.sol\":3990:3996  propId */\n      sload(0x01)\n        /* \"PropertyOwnership.sol\":3986:3987  i */\n      dup2\n        /* \"PropertyOwnership.sol\":3986:3996  i < propId */\n      lt\n        /* \"PropertyOwnership.sol\":3969:4160  for (uint i = 0; i < propId; i++) {\r... */\n      iszero\n      tag_236\n      jumpi\n        /* \"PropertyOwnership.sol\":4032:4042  properties */\n      0x02\n        /* \"PropertyOwnership.sol\":4032:4045  properties[i] */\n      0x00\n        /* \"PropertyOwnership.sol\":4043:4044  i */\n      dup3\n        /* \"PropertyOwnership.sol\":4032:4045  properties[i] */\n      dup2\n      mstore\n      0x20\n      add\n      swap1\n      dup2\n      mstore\n      0x20\n      add\n      0x00\n      keccak256\n        /* \"PropertyOwnership.sol\":4032:4052  properties[i].status */\n      0x00\n      add\n      0x00\n      swap1\n      sload\n      swap1\n      0x0100\n      exp\n      swap1\n      div\n      0xff\n      and\n        /* \"PropertyOwnership.sol\":4018:4026  statuses */\n      dup5\n        /* \"PropertyOwnership.sol\":4027:4028  i */\n      dup3\n        /* \"PropertyOwnership.sol\":4018:4029  statuses[i] */\n      dup2\n      mload\n      dup2\n      lt\n      tag_238\n      jumpi\n      mstore(0x00, 0x4e487b7100000000000000000000000000000000000000000000000000000000)\n      mstore(0x04, 0x32)\n      revert(0x00, 0x24)\n    tag_238:\n      0x20\n      mul\n      0x20\n      add\n      add\n        /* \"PropertyOwnership.sol\":4018:4052  statuses[i] = properties[i].status */\n      swap1\n      0x03\n      dup2\n      gt\n      iszero\n      tag_239\n      jumpi\n      mstore(0x00, 0x4e487b7100000000000000000000000000000000000000000000000000000000)\n      mstore(0x04, 0x21)\n      revert(0x00, 0x24)\n    tag_239:\n      swap1\n      dup2\n      0x03\n      dup2\n      gt\n      iszero\n      tag_240\n      jumpi\n      mstore(0x00, 0x4e487b7100000000000000000000000000000000000000000000000000000000)\n      mstore(0x04, 0x21)\n      revert(0x00, 0x24)\n    tag_240:\n      dup2\n      mstore\n      pop\n      pop\n        /* \"PropertyOwnership.sol\":4079:4089  properties */\n      0x02\n        /* \"PropertyOwnership.sol\":4079:4092  properties[i] */\n      0x00\n        /* \"PropertyOwnership.sol\":4090:4091  i */\n      dup3\n        /* \"PropertyOwnership.sol\":4079:4092  properties[i] */\n      dup2\n      mstore\n      0x20\n      add\n      swap1\n      dup2\n      mstore\n      0x20\n      add\n      0x00\n      keccak256\n        /* \"PropertyOwnership.sol\":4079:4098  properties[i].value */\n      0x01\n      add\n      sload\n        /* \"PropertyOwnership.sol\":4067:4073  values */\n      dup4\n        /* \"PropertyOwnership.sol\":4074:4075  i */\n      dup3\n        /* \"PropertyOwnership.sol\":4067:4076  values[i] */\n      dup2\n      mload\n      dup2\n      lt\n      tag_241\n      jumpi\n      mstore(0x00, 0x4e487b7100000000000000000000000000000000000000000000000000000000)\n      mstore(0x04, 0x32)\n      revert(0x00, 0x24)\n    tag_241:\n      0x20\n      mul\n      0x20\n      add\n      add\n        /* \"PropertyOwnership.sol\":4067:4098  values[i] = properties[i].value */\n      dup2\n      dup2\n      mstore\n      pop\n      pop\n        /* \"PropertyOwnership.sol\":4125:4135  properties */\n      0x02\n        /* \"PropertyOwnership.sol\":4125:4138  properties[i] */\n      0x00\n        /* \"PropertyOwnership.sol\":4136:4137  i */\n      dup3\n        /* \"PropertyOwnership.sol\":4125:4138  properties[i] */\n      dup2\n      mstore\n      0x20\n      add\n      swap1\n      dup2\n      mstore\n      0x20\n      add\n      0x00\n      keccak256\n        /* \"PropertyOwnership.sol\":4125:4148  properties[i].currOwner */\n      0x02\n      add\n      0x00\n      swap1\n      sload\n      swap1\n      0x0100\n      exp\n      swap1\n      div\n      0xffffffffffffffffffffffffffffffffffffffff\n      and\n        /* \"PropertyOwnership.sol\":4113:4119  owners */\n      dup3\n        /* \"PropertyOwnership.sol\":4120:4121  i */\n      dup3\n        /* \"PropertyOwnership.sol\":4113:4122  owners[i] */\n      dup2\n      mload\n      dup2\n      lt\n      tag_242\n      jumpi\n      mstore(0x00, 0x4e487b7100000000000000000000000000000000000000000000000000000000)\n      mstore(0x04, 0x32)\n      revert(0x00, 0x24)\n    tag_242:\n      0x20\n      mul\n      0x20\n      add\n      add\n        /* \"PropertyOwnership.sol\":4113:4148  owners[i] = properties[i].currOwner */\n      swap1\n      0xffffffffffffffffffffffffffffffffffffffff\n      and\n      swap1\n      dup2\n      0xffffffffffffffffffffffffffffffffffffffff\n      and\n      dup2\n      mstore\n      pop\n      pop\n        /* \"PropertyOwnership.sol\":3998:4001  i++ */\n      dup1\n      dup1\n      tag_243\n      swap1\n      tag_201\n      jump\t// in\n    tag_243:\n      swap2\n      pop\n      pop\n        /* \"PropertyOwnership.sol\":3969:4160  for (uint i = 0; i < propId; i++) {\r... */\n      jump(tag_235)\n    tag_236:\n      pop\n        /* \"PropertyOwnership.sol\":4188:4196  statuses */\n      dup3\n        /* \"PropertyOwnership.sol\":4198:4204  values */\n      dup3\n        /* \"PropertyOwnership.sol\":4206:4212  owners */\n      dup3\n        /* \"PropertyOwnership.sol\":4180:4213  return (statuses, values, owners) */\n      swap6\n      pop\n      swap6\n      pop\n      swap6\n      pop\n      pop\n      pop\n      pop\n        /* \"PropertyOwnership.sol\":3687:4218  function getProperties() public view returns (Status[] memory, uint[] memory, address[] memory) {\r... */\n      swap1\n      swap2\n      swap3\n      jump\t// out\n        /* \"PropertyOwnership.sol\":2752:3088  function approveChangeOwnership(uint _propId) public verifiedSuperAdmin returns (bool) {\r... */\n    tag_107:\n        /* \"PropertyOwnership.sol\":2833:2837  bool */\n      0x00\n        /* \"PropertyOwnership.sol\":1117:1118  3 */\n      0x03\n        /* \"PropertyOwnership.sol\":1096:1101  users */\n      0x04\n        /* \"PropertyOwnership.sol\":1096:1113  users[msg.sender] */\n      0x00\n        /* \"PropertyOwnership.sol\":1102:1112  msg.sender */\n      caller\n        /* \"PropertyOwnership.sol\":1096:1113  users[msg.sender] */\n      0xffffffffffffffffffffffffffffffffffffffff\n      and\n      0xffffffffffffffffffffffffffffffffffffffff\n      and\n      dup2\n      mstore\n      0x20\n      add\n      swap1\n      dup2\n      mstore\n      0x20\n      add\n      0x00\n      keccak256\n      sload\n        /* \"PropertyOwnership.sol\":1096:1118  users[msg.sender] == 3 */\n      eq\n        /* \"PropertyOwnership.sol\":1096:1147  users[msg.sender] == 3 && verifiedUsers[msg.sender] */\n      dup1\n      iszero\n      tag_245\n      jumpi\n      pop\n        /* \"PropertyOwnership.sol\":1122:1135  verifiedUsers */\n      0x05\n        /* \"PropertyOwnership.sol\":1122:1147  verifiedUsers[msg.sender] */\n      0x00\n        /* \"PropertyOwnership.sol\":1136:1146  msg.sender */\n      caller\n        /* \"PropertyOwnership.sol\":1122:1147  verifiedUsers[msg.sender] */\n      0xffffffffffffffffffffffffffffffffffffffff\n      and\n      0xffffffffffffffffffffffffffffffffffffffff\n      and\n      dup2\n      mstore\n      0x20\n      add\n      swap1\n      dup2\n      mstore\n      0x20\n      add\n      0x00\n      keccak256\n      0x00\n      swap1\n      sload\n      swap1\n      0x0100\n      exp\n      swap1\n      div\n      0xff\n      and\n        /* \"PropertyOwnership.sol\":1096:1147  users[msg.sender] == 3 && verifiedUsers[msg.sender] */\n    tag_245:\n        /* \"PropertyOwnership.sol\":1088:1204  require(users[msg.sender] == 3 && verifiedUsers[msg.sender], \"Super Admin is authorized for this transaction only!\") */\n      tag_246\n      jumpi\n      mload(0x40)\n      0x08c379a000000000000000000000000000000000000000000000000000000000\n      dup2\n      mstore\n      0x04\n      add\n      tag_247\n      swap1\n      tag_117\n      jump\t// in\n    tag_247:\n      mload(0x40)\n      dup1\n      swap2\n      sub\n      swap1\n      revert\n    tag_246:\n        /* \"PropertyOwnership.sol\":2891:2892  0 */\n      0x00\n        /* \"PropertyOwnership.sol\":2855:2893  propOwnerChange[_propId] != address(0) */\n      0xffffffffffffffffffffffffffffffffffffffff\n      and\n        /* \"PropertyOwnership.sol\":2855:2870  propOwnerChange */\n      0x03\n        /* \"PropertyOwnership.sol\":2855:2879  propOwnerChange[_propId] */\n      0x00\n        /* \"PropertyOwnership.sol\":2871:2878  _propId */\n      dup5\n        /* \"PropertyOwnership.sol\":2855:2879  propOwnerChange[_propId] */\n      dup2\n      mstore\n      0x20\n      add\n      swap1\n      dup2\n      mstore\n      0x20\n      add\n      0x00\n      keccak256\n      0x00\n      swap1\n      sload\n      swap1\n      0x0100\n      exp\n      swap1\n      div\n      0xffffffffffffffffffffffffffffffffffffffff\n      and\n        /* \"PropertyOwnership.sol\":2855:2893  propOwnerChange[_propId] != address(0) */\n      0xffffffffffffffffffffffffffffffffffffffff\n      and\n      eq\n      iszero\n        /* \"PropertyOwnership.sol\":2847:2955  require(propOwnerChange[_propId] != address(0), \"A change of ownership is not requested for this property!\") */\n      tag_249\n      jumpi\n      mload(0x40)\n      0x08c379a000000000000000000000000000000000000000000000000000000000\n      dup2\n      mstore\n      0x04\n      add\n      tag_250\n      swap1\n      tag_251\n      jump\t// in\n    tag_250:\n      mload(0x40)\n      dup1\n      swap2\n      sub\n      swap1\n      revert\n    tag_249:\n        /* \"PropertyOwnership.sol\":2995:3010  propOwnerChange */\n      0x03\n        /* \"PropertyOwnership.sol\":2995:3019  propOwnerChange[_propId] */\n      0x00\n        /* \"PropertyOwnership.sol\":3011:3018  _propId */\n      dup4\n        /* \"PropertyOwnership.sol\":2995:3019  propOwnerChange[_propId] */\n      dup2\n      mstore\n      0x20\n      add\n      swap1\n      dup2\n      mstore\n      0x20\n      add\n      0x00\n      keccak256\n      0x00\n      swap1\n      sload\n      swap1\n      0x0100\n      exp\n      swap1\n      div\n      0xffffffffffffffffffffffffffffffffffffffff\n      and\n        /* \"PropertyOwnership.sol\":2963:2973  properties */\n      0x02\n        /* \"PropertyOwnership.sol\":2963:2982  properties[_propId] */\n      0x00\n        /* \"PropertyOwnership.sol\":2974:2981  _propId */\n      dup5\n        /* \"PropertyOwnership.sol\":2963:2982  properties[_propId] */\n      dup2\n      mstore\n      0x20\n      add\n      swap1\n      dup2\n      mstore\n      0x20\n      add\n      0x00\n      keccak256\n        /* \"PropertyOwnership.sol\":2963:2992  properties[_propId].currOwner */\n      0x02\n      add\n      0x00\n        /* \"PropertyOwnership.sol\":2963:3019  properties[_propId].currOwner = propOwnerChange[_propId] */\n      0x0100\n      exp\n      dup2\n      sload\n      dup2\n      0xffffffffffffffffffffffffffffffffffffffff\n      mul\n      not\n      and\n      swap1\n      dup4\n      0xffffffffffffffffffffffffffffffffffffffff\n      and\n      mul\n      or\n      swap1\n      sstore\n      pop\n        /* \"PropertyOwnership.sol\":3062:3063  0 */\n      0x00\n        /* \"PropertyOwnership.sol\":3027:3042  propOwnerChange */\n      0x03\n        /* \"PropertyOwnership.sol\":3027:3051  propOwnerChange[_propId] */\n      0x00\n        /* \"PropertyOwnership.sol\":3043:3050  _propId */\n      dup5\n        /* \"PropertyOwnership.sol\":3027:3051  propOwnerChange[_propId] */\n      dup2\n      mstore\n      0x20\n      add\n      swap1\n      dup2\n      mstore\n      0x20\n      add\n      0x00\n      keccak256\n      0x00\n        /* \"PropertyOwnership.sol\":3027:3064  propOwnerChange[_propId] = address(0) */\n      0x0100\n      exp\n      dup2\n      sload\n      dup2\n      0xffffffffffffffffffffffffffffffffffffffff\n      mul\n      not\n      and\n      swap1\n      dup4\n      0xffffffffffffffffffffffffffffffffffffffff\n      and\n      mul\n      or\n      swap1\n      sstore\n      pop\n        /* \"PropertyOwnership.sol\":3079:3083  true */\n      0x01\n        /* \"PropertyOwnership.sol\":3072:3083  return true */\n      swap1\n      pop\n        /* \"PropertyOwnership.sol\":2752:3088  function approveChangeOwnership(uint _propId) public verifiedSuperAdmin returns (bool) {\r... */\n      swap2\n      swap1\n      pop\n      jump\t// out\n        /* \"PropertyOwnership.sol\":396:445  mapping(uint => PropertyDetail) public properties */\n    tag_111:\n      mstore(0x20, 0x02)\n      dup1\n      0x00\n      mstore\n      keccak256(0x00, 0x40)\n      0x00\n      swap2\n      pop\n      swap1\n      pop\n      dup1\n      0x00\n      add\n      0x00\n      swap1\n      sload\n      swap1\n      0x0100\n      exp\n      swap1\n      div\n      0xff\n      and\n      swap1\n      dup1\n      0x01\n      add\n      sload\n      swap1\n      dup1\n      0x02\n      add\n      0x00\n      swap1\n      sload\n      swap1\n      0x0100\n      exp\n      swap1\n      div\n      0xffffffffffffffffffffffffffffffffffffffff\n      and\n      swap1\n      pop\n      dup4\n      jump\t// out\n        /* \"#utility.yul\":7:146   */\n    tag_253:\n      0x00\n        /* \"#utility.yul\":91:97   */\n      dup2\n        /* \"#utility.yul\":78:98   */\n      calldataload\n        /* \"#utility.yul\":69:98   */\n      swap1\n      pop\n        /* \"#utility.yul\":107:140   */\n      tag_255\n        /* \"#utility.yul\":134:139   */\n      dup2\n        /* \"#utility.yul\":107:140   */\n      tag_256\n      jump\t// in\n    tag_255:\n        /* \"#utility.yul\":59:146   */\n      swap3\n      swap2\n      pop\n      pop\n      jump\t// out\n        /* \"#utility.yul\":152:291   */\n    tag_257:\n      0x00\n        /* \"#utility.yul\":236:242   */\n      dup2\n        /* \"#utility.yul\":223:243   */\n      calldataload\n        /* \"#utility.yul\":214:243   */\n      swap1\n      pop\n        /* \"#utility.yul\":252:285   */\n      tag_259\n        /* \"#utility.yul\":279:284   */\n      dup2\n        /* \"#utility.yul\":252:285   */\n      tag_260\n      jump\t// in\n    tag_259:\n        /* \"#utility.yul\":204:291   */\n      swap3\n      swap2\n      pop\n      pop\n      jump\t// out\n        /* \"#utility.yul\":297:559   */\n    tag_28:\n      0x00\n        /* \"#utility.yul\":405:407   */\n      0x20\n        /* \"#utility.yul\":393:402   */\n      dup3\n        /* \"#utility.yul\":384:391   */\n      dup5\n        /* \"#utility.yul\":380:403   */\n      sub\n        /* \"#utility.yul\":376:408   */\n      slt\n        /* \"#utility.yul\":373:375   */\n      iszero\n      tag_262\n      jumpi\n        /* \"#utility.yul\":421:422   */\n      0x00\n        /* \"#utility.yul\":418:419   */\n      dup1\n        /* \"#utility.yul\":411:423   */\n      revert\n        /* \"#utility.yul\":373:375   */\n    tag_262:\n        /* \"#utility.yul\":464:465   */\n      0x00\n        /* \"#utility.yul\":489:542   */\n      tag_263\n        /* \"#utility.yul\":534:541   */\n      dup5\n        /* \"#utility.yul\":525:531   */\n      dup3\n        /* \"#utility.yul\":514:523   */\n      dup6\n        /* \"#utility.yul\":510:532   */\n      add\n        /* \"#utility.yul\":489:542   */\n      tag_253\n      jump\t// in\n    tag_263:\n        /* \"#utility.yul\":479:542   */\n      swap2\n      pop\n        /* \"#utility.yul\":435:552   */\n      pop\n        /* \"#utility.yul\":363:559   */\n      swap3\n      swap2\n      pop\n      pop\n      jump\t// out\n        /* \"#utility.yul\":565:827   */\n    tag_34:\n      0x00\n        /* \"#utility.yul\":673:675   */\n      0x20\n        /* \"#utility.yul\":661:670   */\n      dup3\n        /* \"#utility.yul\":652:659   */\n      dup5\n        /* \"#utility.yul\":648:671   */\n      sub\n        /* \"#utility.yul\":644:676   */\n      slt\n        /* \"#utility.yul\":641:643   */\n      iszero\n      tag_265\n      jumpi\n        /* \"#utility.yul\":689:690   */\n      0x00\n        /* \"#utility.yul\":686:687   */\n      dup1\n        /* \"#utility.yul\":679:691   */\n      revert\n        /* \"#utility.yul\":641:643   */\n    tag_265:\n        /* \"#utility.yul\":732:733   */\n      0x00\n        /* \"#utility.yul\":757:810   */\n      tag_266\n        /* \"#utility.yul\":802:809   */\n      dup5\n        /* \"#utility.yul\":793:799   */\n      dup3\n        /* \"#utility.yul\":782:791   */\n      dup6\n        /* \"#utility.yul\":778:800   */\n      add\n        /* \"#utility.yul\":757:810   */\n      tag_257\n      jump\t// in\n    tag_266:\n        /* \"#utility.yul\":747:810   */\n      swap2\n      pop\n        /* \"#utility.yul\":703:820   */\n      pop\n        /* \"#utility.yul\":631:827   */\n      swap3\n      swap2\n      pop\n      pop\n      jump\t// out\n        /* \"#utility.yul\":833:1240   */\n    tag_69:\n      0x00\n      dup1\n        /* \"#utility.yul\":958:960   */\n      0x40\n        /* \"#utility.yul\":946:955   */\n      dup4\n        /* \"#utility.yul\":937:944   */\n      dup6\n        /* \"#utility.yul\":933:956   */\n      sub\n        /* \"#utility.yul\":929:961   */\n      slt\n        /* \"#utility.yul\":926:928   */\n      iszero\n      tag_268\n      jumpi\n        /* \"#utility.yul\":974:975   */\n      0x00\n        /* \"#utility.yul\":971:972   */\n      dup1\n        /* \"#utility.yul\":964:976   */\n      revert\n        /* \"#utility.yul\":926:928   */\n    tag_268:\n        /* \"#utility.yul\":1017:1018   */\n      0x00\n        /* \"#utility.yul\":1042:1095   */\n      tag_269\n        /* \"#utility.yul\":1087:1094   */\n      dup6\n        /* \"#utility.yul\":1078:1084   */\n      dup3\n        /* \"#utility.yul\":1067:1076   */\n      dup7\n        /* \"#utility.yul\":1063:1085   */\n      add\n        /* \"#utility.yul\":1042:1095   */\n      tag_257\n      jump\t// in\n    tag_269:\n        /* \"#utility.yul\":1032:1095   */\n      swap3\n      pop\n        /* \"#utility.yul\":988:1105   */\n      pop\n        /* \"#utility.yul\":1144:1146   */\n      0x20\n        /* \"#utility.yul\":1170:1223   */\n      tag_270\n        /* \"#utility.yul\":1215:1222   */\n      dup6\n        /* \"#utility.yul\":1206:1212   */\n      dup3\n        /* \"#utility.yul\":1195:1204   */\n      dup7\n        /* \"#utility.yul\":1191:1213   */\n      add\n        /* \"#utility.yul\":1170:1223   */\n      tag_253\n      jump\t// in\n    tag_270:\n        /* \"#utility.yul\":1160:1223   */\n      swap2\n      pop\n        /* \"#utility.yul\":1115:1233   */\n      pop\n        /* \"#utility.yul\":916:1240   */\n      swap3\n      pop\n      swap3\n      swap1\n      pop\n      jump\t// out\n        /* \"#utility.yul\":1246:1653   */\n    tag_64:\n      0x00\n      dup1\n        /* \"#utility.yul\":1371:1373   */\n      0x40\n        /* \"#utility.yul\":1359:1368   */\n      dup4\n        /* \"#utility.yul\":1350:1357   */\n      dup6\n        /* \"#utility.yul\":1346:1369   */\n      sub\n        /* \"#utility.yul\":1342:1374   */\n      slt\n        /* \"#utility.yul\":1339:1341   */\n      iszero\n      tag_272\n      jumpi\n        /* \"#utility.yul\":1387:1388   */\n      0x00\n        /* \"#utility.yul\":1384:1385   */\n      dup1\n        /* \"#utility.yul\":1377:1389   */\n      revert\n        /* \"#utility.yul\":1339:1341   */\n    tag_272:\n        /* \"#utility.yul\":1430:1431   */\n      0x00\n        /* \"#utility.yul\":1455:1508   */\n      tag_273\n        /* \"#utility.yul\":1500:1507   */\n      dup6\n        /* \"#utility.yul\":1491:1497   */\n      dup3\n        /* \"#utility.yul\":1480:1489   */\n      dup7\n        /* \"#utility.yul\":1476:1498   */\n      add\n        /* \"#utility.yul\":1455:1508   */\n      tag_257\n      jump\t// in\n    tag_273:\n        /* \"#utility.yul\":1445:1508   */\n      swap3\n      pop\n        /* \"#utility.yul\":1401:1518   */\n      pop\n        /* \"#utility.yul\":1557:1559   */\n      0x20\n        /* \"#utility.yul\":1583:1636   */\n      tag_274\n        /* \"#utility.yul\":1628:1635   */\n      dup6\n        /* \"#utility.yul\":1619:1625   */\n      dup3\n        /* \"#utility.yul\":1608:1617   */\n      dup7\n        /* \"#utility.yul\":1604:1626   */\n      add\n        /* \"#utility.yul\":1583:1636   */\n      tag_257\n      jump\t// in\n    tag_274:\n        /* \"#utility.yul\":1573:1636   */\n      swap2\n      pop\n        /* \"#utility.yul\":1528:1646   */\n      pop\n        /* \"#utility.yul\":1329:1653   */\n      swap3\n      pop\n      swap3\n      swap1\n      pop\n      jump\t// out\n        /* \"#utility.yul\":1659:1838   */\n    tag_275:\n      0x00\n        /* \"#utility.yul\":1749:1795   */\n      tag_277\n        /* \"#utility.yul\":1791:1794   */\n      dup4\n        /* \"#utility.yul\":1783:1789   */\n      dup4\n        /* \"#utility.yul\":1749:1795   */\n      tag_278\n      jump\t// in\n    tag_277:\n        /* \"#utility.yul\":1827:1831   */\n      0x20\n        /* \"#utility.yul\":1822:1825   */\n      dup4\n        /* \"#utility.yul\":1818:1832   */\n      add\n        /* \"#utility.yul\":1804:1832   */\n      swap1\n      pop\n        /* \"#utility.yul\":1739:1838   */\n      swap3\n      swap2\n      pop\n      pop\n      jump\t// out\n        /* \"#utility.yul\":1844:2037   */\n    tag_279:\n      0x00\n        /* \"#utility.yul\":1941:1994   */\n      tag_281\n        /* \"#utility.yul\":1990:1993   */\n      dup4\n        /* \"#utility.yul\":1982:1988   */\n      dup4\n        /* \"#utility.yul\":1941:1994   */\n      tag_282\n      jump\t// in\n    tag_281:\n        /* \"#utility.yul\":2026:2030   */\n      0x20\n        /* \"#utility.yul\":2021:2024   */\n      dup4\n        /* \"#utility.yul\":2017:2031   */\n      add\n        /* \"#utility.yul\":2003:2031   */\n      swap1\n      pop\n        /* \"#utility.yul\":1931:2037   */\n      swap3\n      swap2\n      pop\n      pop\n      jump\t// out\n        /* \"#utility.yul\":2043:2222   */\n    tag_283:\n      0x00\n        /* \"#utility.yul\":2133:2179   */\n      tag_285\n        /* \"#utility.yul\":2175:2178   */\n      dup4\n        /* \"#utility.yul\":2167:2173   */\n      dup4\n        /* \"#utility.yul\":2133:2179   */\n      tag_286\n      jump\t// in\n    tag_285:\n        /* \"#utility.yul\":2211:2215   */\n      0x20\n        /* \"#utility.yul\":2206:2209   */\n      dup4\n        /* \"#utility.yul\":2202:2216   */\n      add\n        /* \"#utility.yul\":2188:2216   */\n      swap1\n      pop\n        /* \"#utility.yul\":2123:2222   */\n      swap3\n      swap2\n      pop\n      pop\n      jump\t// out\n        /* \"#utility.yul\":2228:2336   */\n    tag_278:\n        /* \"#utility.yul\":2305:2329   */\n      tag_288\n        /* \"#utility.yul\":2323:2328   */\n      dup2\n        /* \"#utility.yul\":2305:2329   */\n      tag_289\n      jump\t// in\n    tag_288:\n        /* \"#utility.yul\":2300:2303   */\n      dup3\n        /* \"#utility.yul\":2293:2330   */\n      mstore\n        /* \"#utility.yul\":2283:2336   */\n      pop\n      pop\n      jump\t// out\n        /* \"#utility.yul\":2342:2460   */\n    tag_290:\n        /* \"#utility.yul\":2429:2453   */\n      tag_292\n        /* \"#utility.yul\":2447:2452   */\n      dup2\n        /* \"#utility.yul\":2429:2453   */\n      tag_289\n      jump\t// in\n    tag_292:\n        /* \"#utility.yul\":2424:2427   */\n      dup3\n        /* \"#utility.yul\":2417:2454   */\n      mstore\n        /* \"#utility.yul\":2407:2460   */\n      pop\n      pop\n      jump\t// out\n        /* \"#utility.yul\":2496:3228   */\n    tag_293:\n      0x00\n        /* \"#utility.yul\":2644:2698   */\n      tag_295\n        /* \"#utility.yul\":2692:2697   */\n      dup3\n        /* \"#utility.yul\":2644:2698   */\n      tag_296\n      jump\t// in\n    tag_295:\n        /* \"#utility.yul\":2714:2800   */\n      tag_297\n        /* \"#utility.yul\":2793:2799   */\n      dup2\n        /* \"#utility.yul\":2788:2791   */\n      dup6\n        /* \"#utility.yul\":2714:2800   */\n      tag_298\n      jump\t// in\n    tag_297:\n        /* \"#utility.yul\":2707:2800   */\n      swap4\n      pop\n        /* \"#utility.yul\":2824:2880   */\n      tag_299\n        /* \"#utility.yul\":2874:2879   */\n      dup4\n        /* \"#utility.yul\":2824:2880   */\n      tag_300\n      jump\t// in\n    tag_299:\n        /* \"#utility.yul\":2903:2910   */\n      dup1\n        /* \"#utility.yul\":2934:2935   */\n      0x00\n        /* \"#utility.yul\":2919:3203   */\n    tag_301:\n        /* \"#utility.yul\":2944:2950   */\n      dup4\n        /* \"#utility.yul\":2941:2942   */\n      dup2\n        /* \"#utility.yul\":2938:2951   */\n      lt\n        /* \"#utility.yul\":2919:3203   */\n      iszero\n      tag_303\n      jumpi\n        /* \"#utility.yul\":3020:3026   */\n      dup2\n        /* \"#utility.yul\":3014:3027   */\n      mload\n        /* \"#utility.yul\":3047:3110   */\n      tag_304\n        /* \"#utility.yul\":3106:3109   */\n      dup9\n        /* \"#utility.yul\":3091:3104   */\n      dup3\n        /* \"#utility.yul\":3047:3110   */\n      tag_275\n      jump\t// in\n    tag_304:\n        /* \"#utility.yul\":3040:3110   */\n      swap8\n      pop\n        /* \"#utility.yul\":3133:3193   */\n      tag_305\n        /* \"#utility.yul\":3186:3192   */\n      dup4\n        /* \"#utility.yul\":3133:3193   */\n      tag_306\n      jump\t// in\n    tag_305:\n        /* \"#utility.yul\":3123:3193   */\n      swap3\n      pop\n        /* \"#utility.yul\":2979:3203   */\n      pop\n        /* \"#utility.yul\":2966:2967   */\n      0x01\n        /* \"#utility.yul\":2963:2964   */\n      dup2\n        /* \"#utility.yul\":2959:2968   */\n      add\n        /* \"#utility.yul\":2954:2968   */\n      swap1\n      pop\n        /* \"#utility.yul\":2919:3203   */\n      jump(tag_301)\n    tag_303:\n        /* \"#utility.yul\":2923:2937   */\n      pop\n        /* \"#utility.yul\":3219:3222   */\n      dup6\n        /* \"#utility.yul\":3212:3222   */\n      swap4\n      pop\n        /* \"#utility.yul\":2620:3228   */\n      pop\n      pop\n      pop\n      swap3\n      swap2\n      pop\n      pop\n      jump\t// out\n        /* \"#utility.yul\":3284:4055   */\n    tag_307:\n      0x00\n        /* \"#utility.yul\":3439:3502   */\n      tag_309\n        /* \"#utility.yul\":3496:3501   */\n      dup3\n        /* \"#utility.yul\":3439:3502   */\n      tag_310\n      jump\t// in\n    tag_309:\n        /* \"#utility.yul\":3518:3602   */\n      tag_311\n        /* \"#utility.yul\":3595:3601   */\n      dup2\n        /* \"#utility.yul\":3590:3593   */\n      dup6\n        /* \"#utility.yul\":3518:3602   */\n      tag_312\n      jump\t// in\n    tag_311:\n        /* \"#utility.yul\":3511:3602   */\n      swap4\n      pop\n        /* \"#utility.yul\":3626:3691   */\n      tag_313\n        /* \"#utility.yul\":3685:3690   */\n      dup4\n        /* \"#utility.yul\":3626:3691   */\n      tag_314\n      jump\t// in\n    tag_313:\n        /* \"#utility.yul\":3714:3721   */\n      dup1\n        /* \"#utility.yul\":3745:3746   */\n      0x00\n        /* \"#utility.yul\":3730:4030   */\n    tag_315:\n        /* \"#utility.yul\":3755:3761   */\n      dup4\n        /* \"#utility.yul\":3752:3753   */\n      dup2\n        /* \"#utility.yul\":3749:3762   */\n      lt\n        /* \"#utility.yul\":3730:4030   */\n      iszero\n      tag_317\n      jumpi\n        /* \"#utility.yul\":3831:3837   */\n      dup2\n        /* \"#utility.yul\":3825:3838   */\n      mload\n        /* \"#utility.yul\":3858:3928   */\n      tag_318\n        /* \"#utility.yul\":3924:3927   */\n      dup9\n        /* \"#utility.yul\":3909:3922   */\n      dup3\n        /* \"#utility.yul\":3858:3928   */\n      tag_279\n      jump\t// in\n    tag_318:\n        /* \"#utility.yul\":3851:3928   */\n      swap8\n      pop\n        /* \"#utility.yul\":3951:4020   */\n      tag_319\n        /* \"#utility.yul\":4013:4019   */\n      dup4\n        /* \"#utility.yul\":3951:4020   */\n      tag_320\n      jump\t// in\n    tag_319:\n        /* \"#utility.yul\":3941:4020   */\n      swap3\n      pop\n        /* \"#utility.yul\":3790:4030   */\n      pop\n        /* \"#utility.yul\":3777:3778   */\n      0x01\n        /* \"#utility.yul\":3774:3775   */\n      dup2\n        /* \"#utility.yul\":3770:3779   */\n      add\n        /* \"#utility.yul\":3765:3779   */\n      swap1\n      pop\n        /* \"#utility.yul\":3730:4030   */\n      jump(tag_315)\n    tag_317:\n        /* \"#utility.yul\":3734:3748   */\n      pop\n        /* \"#utility.yul\":4046:4049   */\n      dup6\n        /* \"#utility.yul\":4039:4049   */\n      swap4\n      pop\n        /* \"#utility.yul\":3415:4055   */\n      pop\n      pop\n      pop\n      swap3\n      swap2\n      pop\n      pop\n      jump\t// out\n        /* \"#utility.yul\":4091:4823   */\n    tag_321:\n      0x00\n        /* \"#utility.yul\":4239:4293   */\n      tag_323\n        /* \"#utility.yul\":4287:4292   */\n      dup3\n        /* \"#utility.yul\":4239:4293   */\n      tag_324\n      jump\t// in\n    tag_323:\n        /* \"#utility.yul\":4309:4395   */\n      tag_325\n        /* \"#utility.yul\":4388:4394   */\n      dup2\n        /* \"#utility.yul\":4383:4386   */\n      dup6\n        /* \"#utility.yul\":4309:4395   */\n      tag_326\n      jump\t// in\n    tag_325:\n        /* \"#utility.yul\":4302:4395   */\n      swap4\n      pop\n        /* \"#utility.yul\":4419:4475   */\n      tag_327\n        /* \"#utility.yul\":4469:4474   */\n      dup4\n        /* \"#utility.yul\":4419:4475   */\n      tag_328\n      jump\t// in\n    tag_327:\n        /* \"#utility.yul\":4498:4505   */\n      dup1\n        /* \"#utility.yul\":4529:4530   */\n      0x00\n        /* \"#utility.yul\":4514:4798   */\n    tag_329:\n        /* \"#utility.yul\":4539:4545   */\n      dup4\n        /* \"#utility.yul\":4536:4537   */\n      dup2\n        /* \"#utility.yul\":4533:4546   */\n      lt\n        /* \"#utility.yul\":4514:4798   */\n      iszero\n      tag_331\n      jumpi\n        /* \"#utility.yul\":4615:4621   */\n      dup2\n        /* \"#utility.yul\":4609:4622   */\n      mload\n        /* \"#utility.yul\":4642:4705   */\n      tag_332\n        /* \"#utility.yul\":4701:4704   */\n      dup9\n        /* \"#utility.yul\":4686:4699   */\n      dup3\n        /* \"#utility.yul\":4642:4705   */\n      tag_283\n      jump\t// in\n    tag_332:\n        /* \"#utility.yul\":4635:4705   */\n      swap8\n      pop\n        /* \"#utility.yul\":4728:4788   */\n      tag_333\n        /* \"#utility.yul\":4781:4787   */\n      dup4\n        /* \"#utility.yul\":4728:4788   */\n      tag_334\n      jump\t// in\n    tag_333:\n        /* \"#utility.yul\":4718:4788   */\n      swap3\n      pop\n        /* \"#utility.yul\":4574:4798   */\n      pop\n        /* \"#utility.yul\":4561:4562   */\n      0x01\n        /* \"#utility.yul\":4558:4559   */\n      dup2\n        /* \"#utility.yul\":4554:4563   */\n      add\n        /* \"#utility.yul\":4549:4563   */\n      swap1\n      pop\n        /* \"#utility.yul\":4514:4798   */\n      jump(tag_329)\n    tag_331:\n        /* \"#utility.yul\":4518:4532   */\n      pop\n        /* \"#utility.yul\":4814:4817   */\n      dup6\n        /* \"#utility.yul\":4807:4817   */\n      swap4\n      pop\n        /* \"#utility.yul\":4215:4823   */\n      pop\n      pop\n      pop\n      swap3\n      swap2\n      pop\n      pop\n      jump\t// out\n        /* \"#utility.yul\":4829:4938   */\n    tag_335:\n        /* \"#utility.yul\":4910:4931   */\n      tag_337\n        /* \"#utility.yul\":4925:4930   */\n      dup2\n        /* \"#utility.yul\":4910:4931   */\n      tag_338\n      jump\t// in\n    tag_337:\n        /* \"#utility.yul\":4905:4908   */\n      dup3\n        /* \"#utility.yul\":4898:4932   */\n      mstore\n        /* \"#utility.yul\":4888:4938   */\n      pop\n      pop\n      jump\t// out\n        /* \"#utility.yul\":4944:5079   */\n    tag_282:\n        /* \"#utility.yul\":5028:5072   */\n      tag_340\n        /* \"#utility.yul\":5066:5071   */\n      dup2\n        /* \"#utility.yul\":5028:5072   */\n      tag_341\n      jump\t// in\n    tag_340:\n        /* \"#utility.yul\":5023:5026   */\n      dup3\n        /* \"#utility.yul\":5016:5073   */\n      mstore\n        /* \"#utility.yul\":5006:5079   */\n      pop\n      pop\n      jump\t// out\n        /* \"#utility.yul\":5085:5230   */\n    tag_342:\n        /* \"#utility.yul\":5179:5223   */\n      tag_344\n        /* \"#utility.yul\":5217:5222   */\n      dup2\n        /* \"#utility.yul\":5179:5223   */\n      tag_341\n      jump\t// in\n    tag_344:\n        /* \"#utility.yul\":5174:5177   */\n      dup3\n        /* \"#utility.yul\":5167:5224   */\n      mstore\n        /* \"#utility.yul\":5157:5230   */\n      pop\n      pop\n      jump\t// out\n        /* \"#utility.yul\":5236:5351   */\n    tag_345:\n        /* \"#utility.yul\":5321:5344   */\n      tag_347\n        /* \"#utility.yul\":5338:5343   */\n      dup2\n        /* \"#utility.yul\":5321:5344   */\n      tag_348\n      jump\t// in\n    tag_347:\n        /* \"#utility.yul\":5316:5319   */\n      dup3\n        /* \"#utility.yul\":5309:5345   */\n      mstore\n        /* \"#utility.yul\":5299:5351   */\n      pop\n      pop\n      jump\t// out\n        /* \"#utility.yul\":5357:5723   */\n    tag_349:\n      0x00\n        /* \"#utility.yul\":5520:5587   */\n      tag_351\n        /* \"#utility.yul\":5584:5586   */\n      0x14\n        /* \"#utility.yul\":5579:5582   */\n      dup4\n        /* \"#utility.yul\":5520:5587   */\n      tag_352\n      jump\t// in\n    tag_351:\n        /* \"#utility.yul\":5513:5587   */\n      swap2\n      pop\n        /* \"#utility.yul\":5596:5689   */\n      tag_353\n        /* \"#utility.yul\":5685:5688   */\n      dup3\n        /* \"#utility.yul\":5596:5689   */\n      tag_354\n      jump\t// in\n    tag_353:\n        /* \"#utility.yul\":5714:5716   */\n      0x20\n        /* \"#utility.yul\":5709:5712   */\n      dup3\n        /* \"#utility.yul\":5705:5717   */\n      add\n        /* \"#utility.yul\":5698:5717   */\n      swap1\n      pop\n        /* \"#utility.yul\":5503:5723   */\n      swap2\n      swap1\n      pop\n      jump\t// out\n        /* \"#utility.yul\":5729:6095   */\n    tag_355:\n      0x00\n        /* \"#utility.yul\":5892:5959   */\n      tag_357\n        /* \"#utility.yul\":5956:5958   */\n      0x31\n        /* \"#utility.yul\":5951:5954   */\n      dup4\n        /* \"#utility.yul\":5892:5959   */\n      tag_352\n      jump\t// in\n    tag_357:\n        /* \"#utility.yul\":5885:5959   */\n      swap2\n      pop\n        /* \"#utility.yul\":5968:6061   */\n      tag_358\n        /* \"#utility.yul\":6057:6060   */\n      dup3\n        /* \"#utility.yul\":5968:6061   */\n      tag_359\n      jump\t// in\n    tag_358:\n        /* \"#utility.yul\":6086:6088   */\n      0x40\n        /* \"#utility.yul\":6081:6084   */\n      dup3\n        /* \"#utility.yul\":6077:6089   */\n      add\n        /* \"#utility.yul\":6070:6089   */\n      swap1\n      pop\n        /* \"#utility.yul\":5875:6095   */\n      swap2\n      swap1\n      pop\n      jump\t// out\n        /* \"#utility.yul\":6101:6467   */\n    tag_360:\n      0x00\n        /* \"#utility.yul\":6264:6331   */\n      tag_362\n        /* \"#utility.yul\":6328:6330   */\n      0x34\n        /* \"#utility.yul\":6323:6326   */\n      dup4\n        /* \"#utility.yul\":6264:6331   */\n      tag_352\n      jump\t// in\n    tag_362:\n        /* \"#utility.yul\":6257:6331   */\n      swap2\n      pop\n        /* \"#utility.yul\":6340:6433   */\n      tag_363\n        /* \"#utility.yul\":6429:6432   */\n      dup3\n        /* \"#utility.yul\":6340:6433   */\n      tag_364\n      jump\t// in\n    tag_363:\n        /* \"#utility.yul\":6458:6460   */\n      0x40\n        /* \"#utility.yul\":6453:6456   */\n      dup3\n        /* \"#utility.yul\":6449:6461   */\n      add\n        /* \"#utility.yul\":6442:6461   */\n      swap1\n      pop\n        /* \"#utility.yul\":6247:6467   */\n      swap2\n      swap1\n      pop\n      jump\t// out\n        /* \"#utility.yul\":6473:6839   */\n    tag_365:\n      0x00\n        /* \"#utility.yul\":6636:6703   */\n      tag_367\n        /* \"#utility.yul\":6700:6702   */\n      0x3a\n        /* \"#utility.yul\":6695:6698   */\n      dup4\n        /* \"#utility.yul\":6636:6703   */\n      tag_352\n      jump\t// in\n    tag_367:\n        /* \"#utility.yul\":6629:6703   */\n      swap2\n      pop\n        /* \"#utility.yul\":6712:6805   */\n      tag_368\n        /* \"#utility.yul\":6801:6804   */\n      dup3\n        /* \"#utility.yul\":6712:6805   */\n      tag_369\n      jump\t// in\n    tag_368:\n        /* \"#utility.yul\":6830:6832   */\n      0x40\n        /* \"#utility.yul\":6825:6828   */\n      dup3\n        /* \"#utility.yul\":6821:6833   */\n      add\n        /* \"#utility.yul\":6814:6833   */\n      swap1\n      pop\n        /* \"#utility.yul\":6619:6839   */\n      swap2\n      swap1\n      pop\n      jump\t// out\n        /* \"#utility.yul\":6845:7211   */\n    tag_370:\n      0x00\n        /* \"#utility.yul\":7008:7075   */\n      tag_372\n        /* \"#utility.yul\":7072:7074   */\n      0x38\n        /* \"#utility.yul\":7067:7070   */\n      dup4\n        /* \"#utility.yul\":7008:7075   */\n      tag_352\n      jump\t// in\n    tag_372:\n        /* \"#utility.yul\":7001:7075   */\n      swap2\n      pop\n        /* \"#utility.yul\":7084:7177   */\n      tag_373\n        /* \"#utility.yul\":7173:7176   */\n      dup3\n        /* \"#utility.yul\":7084:7177   */\n      tag_374\n      jump\t// in\n    tag_373:\n        /* \"#utility.yul\":7202:7204   */\n      0x40\n        /* \"#utility.yul\":7197:7200   */\n      dup3\n        /* \"#utility.yul\":7193:7205   */\n      add\n        /* \"#utility.yul\":7186:7205   */\n      swap1\n      pop\n        /* \"#utility.yul\":6991:7211   */\n      swap2\n      swap1\n      pop\n      jump\t// out\n        /* \"#utility.yul\":7217:7583   */\n    tag_375:\n      0x00\n        /* \"#utility.yul\":7380:7447   */\n      tag_377\n        /* \"#utility.yul\":7444:7446   */\n      0x39\n        /* \"#utility.yul\":7439:7442   */\n      dup4\n        /* \"#utility.yul\":7380:7447   */\n      tag_352\n      jump\t// in\n    tag_377:\n        /* \"#utility.yul\":7373:7447   */\n      swap2\n      pop\n        /* \"#utility.yul\":7456:7549   */\n      tag_378\n        /* \"#utility.yul\":7545:7548   */\n      dup3\n        /* \"#utility.yul\":7456:7549   */\n      tag_379\n      jump\t// in\n    tag_378:\n        /* \"#utility.yul\":7574:7576   */\n      0x40\n        /* \"#utility.yul\":7569:7572   */\n      dup3\n        /* \"#utility.yul\":7565:7577   */\n      add\n        /* \"#utility.yul\":7558:7577   */\n      swap1\n      pop\n        /* \"#utility.yul\":7363:7583   */\n      swap2\n      swap1\n      pop\n      jump\t// out\n        /* \"#utility.yul\":7589:7955   */\n    tag_380:\n      0x00\n        /* \"#utility.yul\":7752:7819   */\n      tag_382\n        /* \"#utility.yul\":7816:7818   */\n      0x13\n        /* \"#utility.yul\":7811:7814   */\n      dup4\n        /* \"#utility.yul\":7752:7819   */\n      tag_352\n      jump\t// in\n    tag_382:\n        /* \"#utility.yul\":7745:7819   */\n      swap2\n      pop\n        /* \"#utility.yul\":7828:7921   */\n      tag_383\n        /* \"#utility.yul\":7917:7920   */\n      dup3\n        /* \"#utility.yul\":7828:7921   */\n      tag_384\n      jump\t// in\n    tag_383:\n        /* \"#utility.yul\":7946:7948   */\n      0x20\n        /* \"#utility.yul\":7941:7944   */\n      dup3\n        /* \"#utility.yul\":7937:7949   */\n      add\n        /* \"#utility.yul\":7930:7949   */\n      swap1\n      pop\n        /* \"#utility.yul\":7735:7955   */\n      swap2\n      swap1\n      pop\n      jump\t// out\n        /* \"#utility.yul\":7961:8327   */\n    tag_385:\n      0x00\n        /* \"#utility.yul\":8124:8191   */\n      tag_387\n        /* \"#utility.yul\":8188:8190   */\n      0x2e\n        /* \"#utility.yul\":8183:8186   */\n      dup4\n        /* \"#utility.yul\":8124:8191   */\n      tag_352\n      jump\t// in\n    tag_387:\n        /* \"#utility.yul\":8117:8191   */\n      swap2\n      pop\n        /* \"#utility.yul\":8200:8293   */\n      tag_388\n        /* \"#utility.yul\":8289:8292   */\n      dup3\n        /* \"#utility.yul\":8200:8293   */\n      tag_389\n      jump\t// in\n    tag_388:\n        /* \"#utility.yul\":8318:8320   */\n      0x40\n        /* \"#utility.yul\":8313:8316   */\n      dup3\n        /* \"#utility.yul\":8309:8321   */\n      add\n        /* \"#utility.yul\":8302:8321   */\n      swap1\n      pop\n        /* \"#utility.yul\":8107:8327   */\n      swap2\n      swap1\n      pop\n      jump\t// out\n        /* \"#utility.yul\":8333:8699   */\n    tag_390:\n      0x00\n        /* \"#utility.yul\":8496:8563   */\n      tag_392\n        /* \"#utility.yul\":8560:8562   */\n      0x16\n        /* \"#utility.yul\":8555:8558   */\n      dup4\n        /* \"#utility.yul\":8496:8563   */\n      tag_352\n      jump\t// in\n    tag_392:\n        /* \"#utility.yul\":8489:8563   */\n      swap2\n      pop\n        /* \"#utility.yul\":8572:8665   */\n      tag_393\n        /* \"#utility.yul\":8661:8664   */\n      dup3\n        /* \"#utility.yul\":8572:8665   */\n      tag_394\n      jump\t// in\n    tag_393:\n        /* \"#utility.yul\":8690:8692   */\n      0x20\n        /* \"#utility.yul\":8685:8688   */\n      dup3\n        /* \"#utility.yul\":8681:8693   */\n      add\n        /* \"#utility.yul\":8674:8693   */\n      swap1\n      pop\n        /* \"#utility.yul\":8479:8699   */\n      swap2\n      swap1\n      pop\n      jump\t// out\n        /* \"#utility.yul\":8705:9071   */\n    tag_395:\n      0x00\n        /* \"#utility.yul\":8868:8935   */\n      tag_397\n        /* \"#utility.yul\":8932:8934   */\n      0x24\n        /* \"#utility.yul\":8927:8930   */\n      dup4\n        /* \"#utility.yul\":8868:8935   */\n      tag_352\n      jump\t// in\n    tag_397:\n        /* \"#utility.yul\":8861:8935   */\n      swap2\n      pop\n        /* \"#utility.yul\":8944:9037   */\n      tag_398\n        /* \"#utility.yul\":9033:9036   */\n      dup3\n        /* \"#utility.yul\":8944:9037   */\n      tag_399\n      jump\t// in\n    tag_398:\n        /* \"#utility.yul\":9062:9064   */\n      0x40\n        /* \"#utility.yul\":9057:9060   */\n      dup3\n        /* \"#utility.yul\":9053:9065   */\n      add\n        /* \"#utility.yul\":9046:9065   */\n      swap1\n      pop\n        /* \"#utility.yul\":8851:9071   */\n      swap2\n      swap1\n      pop\n      jump\t// out\n        /* \"#utility.yul\":9077:9443   */\n    tag_400:\n      0x00\n        /* \"#utility.yul\":9240:9307   */\n      tag_402\n        /* \"#utility.yul\":9304:9306   */\n      0x40\n        /* \"#utility.yul\":9299:9302   */\n      dup4\n        /* \"#utility.yul\":9240:9307   */\n      tag_352\n      jump\t// in\n    tag_402:\n        /* \"#utility.yul\":9233:9307   */\n      swap2\n      pop\n        /* \"#utility.yul\":9316:9409   */\n      tag_403\n        /* \"#utility.yul\":9405:9408   */\n      dup3\n        /* \"#utility.yul\":9316:9409   */\n      tag_404\n      jump\t// in\n    tag_403:\n        /* \"#utility.yul\":9434:9436   */\n      0x40\n        /* \"#utility.yul\":9429:9432   */\n      dup3\n        /* \"#utility.yul\":9425:9437   */\n      add\n        /* \"#utility.yul\":9418:9437   */\n      swap1\n      pop\n        /* \"#utility.yul\":9223:9443   */\n      swap2\n      swap1\n      pop\n      jump\t// out\n        /* \"#utility.yul\":9449:9815   */\n    tag_405:\n      0x00\n        /* \"#utility.yul\":9612:9679   */\n      tag_407\n        /* \"#utility.yul\":9676:9678   */\n      0x1a\n        /* \"#utility.yul\":9671:9674   */\n      dup4\n        /* \"#utility.yul\":9612:9679   */\n      tag_352\n      jump\t// in\n    tag_407:\n        /* \"#utility.yul\":9605:9679   */\n      swap2\n      pop\n        /* \"#utility.yul\":9688:9781   */\n      tag_408\n        /* \"#utility.yul\":9777:9780   */\n      dup3\n        /* \"#utility.yul\":9688:9781   */\n      tag_409\n      jump\t// in\n    tag_408:\n        /* \"#utility.yul\":9806:9808   */\n      0x20\n        /* \"#utility.yul\":9801:9804   */\n      dup3\n        /* \"#utility.yul\":9797:9809   */\n      add\n        /* \"#utility.yul\":9790:9809   */\n      swap1\n      pop\n        /* \"#utility.yul\":9595:9815   */\n      swap2\n      swap1\n      pop\n      jump\t// out\n        /* \"#utility.yul\":9821:10187   */\n    tag_410:\n      0x00\n        /* \"#utility.yul\":9984:10051   */\n      tag_412\n        /* \"#utility.yul\":10048:10050   */\n      0x3d\n        /* \"#utility.yul\":10043:10046   */\n      dup4\n        /* \"#utility.yul\":9984:10051   */\n      tag_352\n      jump\t// in\n    tag_412:\n        /* \"#utility.yul\":9977:10051   */\n      swap2\n      pop\n        /* \"#utility.yul\":10060:10153   */\n      tag_413\n        /* \"#utility.yul\":10149:10152   */\n      dup3\n        /* \"#utility.yul\":10060:10153   */\n      tag_414\n      jump\t// in\n    tag_413:\n        /* \"#utility.yul\":10178:10180   */\n      0x40\n        /* \"#utility.yul\":10173:10176   */\n      dup3\n        /* \"#utility.yul\":10169:10181   */\n      add\n        /* \"#utility.yul\":10162:10181   */\n      swap1\n      pop\n        /* \"#utility.yul\":9967:10187   */\n      swap2\n      swap1\n      pop\n      jump\t// out\n        /* \"#utility.yul\":10193:10559   */\n    tag_415:\n      0x00\n        /* \"#utility.yul\":10356:10423   */\n      tag_417\n        /* \"#utility.yul\":10420:10422   */\n      0x30\n        /* \"#utility.yul\":10415:10418   */\n      dup4\n        /* \"#utility.yul\":10356:10423   */\n      tag_352\n      jump\t// in\n    tag_417:\n        /* \"#utility.yul\":10349:10423   */\n      swap2\n      pop\n        /* \"#utility.yul\":10432:10525   */\n      tag_418\n        /* \"#utility.yul\":10521:10524   */\n      dup3\n        /* \"#utility.yul\":10432:10525   */\n      tag_419\n      jump\t// in\n    tag_418:\n        /* \"#utility.yul\":10550:10552   */\n      0x40\n        /* \"#utility.yul\":10545:10548   */\n      dup3\n        /* \"#utility.yul\":10541:10553   */\n      add\n        /* \"#utility.yul\":10534:10553   */\n      swap1\n      pop\n        /* \"#utility.yul\":10339:10559   */\n      swap2\n      swap1\n      pop\n      jump\t// out\n        /* \"#utility.yul\":10565:10931   */\n    tag_420:\n      0x00\n        /* \"#utility.yul\":10728:10795   */\n      tag_422\n        /* \"#utility.yul\":10792:10794   */\n      0x1e\n        /* \"#utility.yul\":10787:10790   */\n      dup4\n        /* \"#utility.yul\":10728:10795   */\n      tag_352\n      jump\t// in\n    tag_422:\n        /* \"#utility.yul\":10721:10795   */\n      swap2\n      pop\n        /* \"#utility.yul\":10804:10897   */\n      tag_423\n        /* \"#utility.yul\":10893:10896   */\n      dup3\n        /* \"#utility.yul\":10804:10897   */\n      tag_424\n      jump\t// in\n    tag_423:\n        /* \"#utility.yul\":10922:10924   */\n      0x20\n        /* \"#utility.yul\":10917:10920   */\n      dup3\n        /* \"#utility.yul\":10913:10925   */\n      add\n        /* \"#utility.yul\":10906:10925   */\n      swap1\n      pop\n        /* \"#utility.yul\":10711:10931   */\n      swap2\n      swap1\n      pop\n      jump\t// out\n        /* \"#utility.yul\":10937:11303   */\n    tag_425:\n      0x00\n        /* \"#utility.yul\":11100:11167   */\n      tag_427\n        /* \"#utility.yul\":11164:11166   */\n      0x2a\n        /* \"#utility.yul\":11159:11162   */\n      dup4\n        /* \"#utility.yul\":11100:11167   */\n      tag_352\n      jump\t// in\n    tag_427:\n        /* \"#utility.yul\":11093:11167   */\n      swap2\n      pop\n        /* \"#utility.yul\":11176:11269   */\n      tag_428\n        /* \"#utility.yul\":11265:11268   */\n      dup3\n        /* \"#utility.yul\":11176:11269   */\n      tag_429\n      jump\t// in\n    tag_428:\n        /* \"#utility.yul\":11294:11296   */\n      0x40\n        /* \"#utility.yul\":11289:11292   */\n      dup3\n        /* \"#utility.yul\":11285:11297   */\n      add\n        /* \"#utility.yul\":11278:11297   */\n      swap1\n      pop\n        /* \"#utility.yul\":11083:11303   */\n      swap2\n      swap1\n      pop\n      jump\t// out\n        /* \"#utility.yul\":11309:11675   */\n    tag_430:\n      0x00\n        /* \"#utility.yul\":11472:11539   */\n      tag_432\n        /* \"#utility.yul\":11536:11538   */\n      0x19\n        /* \"#utility.yul\":11531:11534   */\n      dup4\n        /* \"#utility.yul\":11472:11539   */\n      tag_352\n      jump\t// in\n    tag_432:\n        /* \"#utility.yul\":11465:11539   */\n      swap2\n      pop\n        /* \"#utility.yul\":11548:11641   */\n      tag_433\n        /* \"#utility.yul\":11637:11640   */\n      dup3\n        /* \"#utility.yul\":11548:11641   */\n      tag_434\n      jump\t// in\n    tag_433:\n        /* \"#utility.yul\":11666:11668   */\n      0x20\n        /* \"#utility.yul\":11661:11664   */\n      dup3\n        /* \"#utility.yul\":11657:11669   */\n      add\n        /* \"#utility.yul\":11650:11669   */\n      swap1\n      pop\n        /* \"#utility.yul\":11455:11675   */\n      swap2\n      swap1\n      pop\n      jump\t// out\n        /* \"#utility.yul\":11681:12047   */\n    tag_435:\n      0x00\n        /* \"#utility.yul\":11844:11911   */\n      tag_437\n        /* \"#utility.yul\":11908:11910   */\n      0x36\n        /* \"#utility.yul\":11903:11906   */\n      dup4\n        /* \"#utility.yul\":11844:11911   */\n      tag_352\n      jump\t// in\n    tag_437:\n        /* \"#utility.yul\":11837:11911   */\n      swap2\n      pop\n        /* \"#utility.yul\":11920:12013   */\n      tag_438\n        /* \"#utility.yul\":12009:12012   */\n      dup3\n        /* \"#utility.yul\":11920:12013   */\n      tag_439\n      jump\t// in\n    tag_438:\n        /* \"#utility.yul\":12038:12040   */\n      0x40\n        /* \"#utility.yul\":12033:12036   */\n      dup3\n        /* \"#utility.yul\":12029:12041   */\n      add\n        /* \"#utility.yul\":12022:12041   */\n      swap1\n      pop\n        /* \"#utility.yul\":11827:12047   */\n      swap2\n      swap1\n      pop\n      jump\t// out\n        /* \"#utility.yul\":12053:12161   */\n    tag_286:\n        /* \"#utility.yul\":12130:12154   */\n      tag_441\n        /* \"#utility.yul\":12148:12153   */\n      dup2\n        /* \"#utility.yul\":12130:12154   */\n      tag_442\n      jump\t// in\n    tag_441:\n        /* \"#utility.yul\":12125:12128   */\n      dup3\n        /* \"#utility.yul\":12118:12155   */\n      mstore\n        /* \"#utility.yul\":12108:12161   */\n      pop\n      pop\n      jump\t// out\n        /* \"#utility.yul\":12167:12285   */\n    tag_443:\n        /* \"#utility.yul\":12254:12278   */\n      tag_445\n        /* \"#utility.yul\":12272:12277   */\n      dup2\n        /* \"#utility.yul\":12254:12278   */\n      tag_442\n      jump\t// in\n    tag_445:\n        /* \"#utility.yul\":12249:12252   */\n      dup3\n        /* \"#utility.yul\":12242:12279   */\n      mstore\n        /* \"#utility.yul\":12232:12285   */\n      pop\n      pop\n      jump\t// out\n        /* \"#utility.yul\":12291:12513   */\n    tag_61:\n      0x00\n        /* \"#utility.yul\":12422:12424   */\n      0x20\n        /* \"#utility.yul\":12411:12420   */\n      dup3\n        /* \"#utility.yul\":12407:12425   */\n      add\n        /* \"#utility.yul\":12399:12425   */\n      swap1\n      pop\n        /* \"#utility.yul\":12435:12506   */\n      tag_447\n        /* \"#utility.yul\":12503:12504   */\n      0x00\n        /* \"#utility.yul\":12492:12501   */\n      dup4\n        /* \"#utility.yul\":12488:12505   */\n      add\n        /* \"#utility.yul\":12479:12485   */\n      dup5\n        /* \"#utility.yul\":12435:12506   */\n      tag_290\n      jump\t// in\n    tag_447:\n        /* \"#utility.yul\":12389:12513   */\n      swap3\n      swap2\n      pop\n      pop\n      jump\t// out\n        /* \"#utility.yul\":12519:13428   */\n    tag_104:\n      0x00\n        /* \"#utility.yul\":12863:12865   */\n      0x60\n        /* \"#utility.yul\":12852:12861   */\n      dup3\n        /* \"#utility.yul\":12848:12866   */\n      add\n        /* \"#utility.yul\":12840:12866   */\n      swap1\n      pop\n        /* \"#utility.yul\":12912:12921   */\n      dup2\n        /* \"#utility.yul\":12906:12910   */\n      dup2\n        /* \"#utility.yul\":12902:12922   */\n      sub\n        /* \"#utility.yul\":12898:12899   */\n      0x00\n        /* \"#utility.yul\":12887:12896   */\n      dup4\n        /* \"#utility.yul\":12883:12900   */\n      add\n        /* \"#utility.yul\":12876:12923   */\n      mstore\n        /* \"#utility.yul\":12940:13055   */\n      tag_449\n        /* \"#utility.yul\":13050:13054   */\n      dup2\n        /* \"#utility.yul\":13041:13047   */\n      dup7\n        /* \"#utility.yul\":12940:13055   */\n      tag_307\n      jump\t// in\n    tag_449:\n        /* \"#utility.yul\":12932:13055   */\n      swap1\n      pop\n        /* \"#utility.yul\":13102:13111   */\n      dup2\n        /* \"#utility.yul\":13096:13100   */\n      dup2\n        /* \"#utility.yul\":13092:13112   */\n      sub\n        /* \"#utility.yul\":13087:13089   */\n      0x20\n        /* \"#utility.yul\":13076:13085   */\n      dup4\n        /* \"#utility.yul\":13072:13090   */\n      add\n        /* \"#utility.yul\":13065:13113   */\n      mstore\n        /* \"#utility.yul\":13130:13238   */\n      tag_450\n        /* \"#utility.yul\":13233:13237   */\n      dup2\n        /* \"#utility.yul\":13224:13230   */\n      dup6\n        /* \"#utility.yul\":13130:13238   */\n      tag_321\n      jump\t// in\n    tag_450:\n        /* \"#utility.yul\":13122:13238   */\n      swap1\n      pop\n        /* \"#utility.yul\":13285:13294   */\n      dup2\n        /* \"#utility.yul\":13279:13283   */\n      dup2\n        /* \"#utility.yul\":13275:13295   */\n      sub\n        /* \"#utility.yul\":13270:13272   */\n      0x40\n        /* \"#utility.yul\":13259:13268   */\n      dup4\n        /* \"#utility.yul\":13255:13273   */\n      add\n        /* \"#utility.yul\":13248:13296   */\n      mstore\n        /* \"#utility.yul\":13313:13421   */\n      tag_451\n        /* \"#utility.yul\":13416:13420   */\n      dup2\n        /* \"#utility.yul\":13407:13413   */\n      dup5\n        /* \"#utility.yul\":13313:13421   */\n      tag_293\n      jump\t// in\n    tag_451:\n        /* \"#utility.yul\":13305:13421   */\n      swap1\n      pop\n        /* \"#utility.yul\":12830:13428   */\n      swap5\n      swap4\n      pop\n      pop\n      pop\n      pop\n      jump\t// out\n        /* \"#utility.yul\":13434:13644   */\n    tag_31:\n      0x00\n        /* \"#utility.yul\":13559:13561   */\n      0x20\n        /* \"#utility.yul\":13548:13557   */\n      dup3\n        /* \"#utility.yul\":13544:13562   */\n      add\n        /* \"#utility.yul\":13536:13562   */\n      swap1\n      pop\n        /* \"#utility.yul\":13572:13637   */\n      tag_453\n        /* \"#utility.yul\":13634:13635   */\n      0x00\n        /* \"#utility.yul\":13623:13632   */\n      dup4\n        /* \"#utility.yul\":13619:13636   */\n      add\n        /* \"#utility.yul\":13610:13616   */\n      dup5\n        /* \"#utility.yul\":13572:13637   */\n      tag_335\n      jump\t// in\n    tag_453:\n        /* \"#utility.yul\":13526:13644   */\n      swap3\n      swap2\n      pop\n      pop\n      jump\t// out\n        /* \"#utility.yul\":13650:14106   */\n    tag_37:\n      0x00\n        /* \"#utility.yul\":13844:13846   */\n      0x60\n        /* \"#utility.yul\":13833:13842   */\n      dup3\n        /* \"#utility.yul\":13829:13847   */\n      add\n        /* \"#utility.yul\":13821:13847   */\n      swap1\n      pop\n        /* \"#utility.yul\":13857:13935   */\n      tag_455\n        /* \"#utility.yul\":13932:13933   */\n      0x00\n        /* \"#utility.yul\":13921:13930   */\n      dup4\n        /* \"#utility.yul\":13917:13934   */\n      add\n        /* \"#utility.yul\":13908:13914   */\n      dup7\n        /* \"#utility.yul\":13857:13935   */\n      tag_342\n      jump\t// in\n    tag_455:\n        /* \"#utility.yul\":13945:14017   */\n      tag_456\n        /* \"#utility.yul\":14013:14015   */\n      0x20\n        /* \"#utility.yul\":14002:14011   */\n      dup4\n        /* \"#utility.yul\":13998:14016   */\n      add\n        /* \"#utility.yul\":13989:13995   */\n      dup6\n        /* \"#utility.yul\":13945:14017   */\n      tag_443\n      jump\t// in\n    tag_456:\n        /* \"#utility.yul\":14027:14099   */\n      tag_457\n        /* \"#utility.yul\":14095:14097   */\n      0x40\n        /* \"#utility.yul\":14084:14093   */\n      dup4\n        /* \"#utility.yul\":14080:14098   */\n      add\n        /* \"#utility.yul\":14071:14077   */\n      dup5\n        /* \"#utility.yul\":14027:14099   */\n      tag_290\n      jump\t// in\n    tag_457:\n        /* \"#utility.yul\":13811:14106   */\n      swap5\n      swap4\n      pop\n      pop\n      pop\n      pop\n      jump\t// out\n        /* \"#utility.yul\":14112:14330   */\n    tag_84:\n      0x00\n        /* \"#utility.yul\":14241:14243   */\n      0x20\n        /* \"#utility.yul\":14230:14239   */\n      dup3\n        /* \"#utility.yul\":14226:14244   */\n      add\n        /* \"#utility.yul\":14218:14244   */\n      swap1\n      pop\n        /* \"#utility.yul\":14254:14323   */\n      tag_459\n        /* \"#utility.yul\":14320:14321   */\n      0x00\n        /* \"#utility.yul\":14309:14318   */\n      dup4\n        /* \"#utility.yul\":14305:14322   */\n      add\n        /* \"#utility.yul\":14296:14302   */\n      dup5\n        /* \"#utility.yul\":14254:14323   */\n      tag_345\n      jump\t// in\n    tag_459:\n        /* \"#utility.yul\":14208:14330   */\n      swap3\n      swap2\n      pop\n      pop\n      jump\t// out\n        /* \"#utility.yul\":14336:14755   */\n    tag_218:\n      0x00\n        /* \"#utility.yul\":14540:14542   */\n      0x20\n        /* \"#utility.yul\":14529:14538   */\n      dup3\n        /* \"#utility.yul\":14525:14543   */\n      add\n        /* \"#utility.yul\":14517:14543   */\n      swap1\n      pop\n        /* \"#utility.yul\":14589:14598   */\n      dup2\n        /* \"#utility.yul\":14583:14587   */\n      dup2\n        /* \"#utility.yul\":14579:14599   */\n      sub\n        /* \"#utility.yul\":14575:14576   */\n      0x00\n        /* \"#utility.yul\":14564:14573   */\n      dup4\n        /* \"#utility.yul\":14560:14577   */\n      add\n        /* \"#utility.yul\":14553:14600   */\n      mstore\n        /* \"#utility.yul\":14617:14748   */\n      tag_461\n        /* \"#utility.yul\":14743:14747   */\n      dup2\n        /* \"#utility.yul\":14617:14748   */\n      tag_349\n      jump\t// in\n    tag_461:\n        /* \"#utility.yul\":14609:14748   */\n      swap1\n      pop\n        /* \"#utility.yul\":14507:14755   */\n      swap2\n      swap1\n      pop\n      jump\t// out\n        /* \"#utility.yul\":14761:15180   */\n    tag_226:\n      0x00\n        /* \"#utility.yul\":14965:14967   */\n      0x20\n        /* \"#utility.yul\":14954:14963   */\n      dup3\n        /* \"#utility.yul\":14950:14968   */\n      add\n        /* \"#utility.yul\":14942:14968   */\n      swap1\n      pop\n        /* \"#utility.yul\":15014:15023   */\n      dup2\n        /* \"#utility.yul\":15008:15012   */\n      dup2\n        /* \"#utility.yul\":15004:15024   */\n      sub\n        /* \"#utility.yul\":15000:15001   */\n      0x00\n        /* \"#utility.yul\":14989:14998   */\n      dup4\n        /* \"#utility.yul\":14985:15002   */\n      add\n        /* \"#utility.yul\":14978:15025   */\n      mstore\n        /* \"#utility.yul\":15042:15173   */\n      tag_463\n        /* \"#utility.yul\":15168:15172   */\n      dup2\n        /* \"#utility.yul\":15042:15173   */\n      tag_355\n      jump\t// in\n    tag_463:\n        /* \"#utility.yul\":15034:15173   */\n      swap1\n      pop\n        /* \"#utility.yul\":14932:15180   */\n      swap2\n      swap1\n      pop\n      jump\t// out\n        /* \"#utility.yul\":15186:15605   */\n    tag_117:\n      0x00\n        /* \"#utility.yul\":15390:15392   */\n      0x20\n        /* \"#utility.yul\":15379:15388   */\n      dup3\n        /* \"#utility.yul\":15375:15393   */\n      add\n        /* \"#utility.yul\":15367:15393   */\n      swap1\n      pop\n        /* \"#utility.yul\":15439:15448   */\n      dup2\n        /* \"#utility.yul\":15433:15437   */\n      dup2\n        /* \"#utility.yul\":15429:15449   */\n      sub\n        /* \"#utility.yul\":15425:15426   */\n      0x00\n        /* \"#utility.yul\":15414:15423   */\n      dup4\n        /* \"#utility.yul\":15410:15427   */\n      add\n        /* \"#utility.yul\":15403:15450   */\n      mstore\n        /* \"#utility.yul\":15467:15598   */\n      tag_465\n        /* \"#utility.yul\":15593:15597   */\n      dup2\n        /* \"#utility.yul\":15467:15598   */\n      tag_360\n      jump\t// in\n    tag_465:\n        /* \"#utility.yul\":15459:15598   */\n      swap1\n      pop\n        /* \"#utility.yul\":15357:15605   */\n      swap2\n      swap1\n      pop\n      jump\t// out\n        /* \"#utility.yul\":15611:16030   */\n    tag_193:\n      0x00\n        /* \"#utility.yul\":15815:15817   */\n      0x20\n        /* \"#utility.yul\":15804:15813   */\n      dup3\n        /* \"#utility.yul\":15800:15818   */\n      add\n        /* \"#utility.yul\":15792:15818   */\n      swap1\n      pop\n        /* \"#utility.yul\":15864:15873   */\n      dup2\n        /* \"#utility.yul\":15858:15862   */\n      dup2\n        /* \"#utility.yul\":15854:15874   */\n      sub\n        /* \"#utility.yul\":15850:15851   */\n      0x00\n        /* \"#utility.yul\":15839:15848   */\n      dup4\n        /* \"#utility.yul\":15835:15852   */\n      add\n        /* \"#utility.yul\":15828:15875   */\n      mstore\n        /* \"#utility.yul\":15892:16023   */\n      tag_467\n        /* \"#utility.yul\":16018:16022   */\n      dup2\n        /* \"#utility.yul\":15892:16023   */\n      tag_365\n      jump\t// in\n    tag_467:\n        /* \"#utility.yul\":15884:16023   */\n      swap1\n      pop\n        /* \"#utility.yul\":15782:16030   */\n      swap2\n      swap1\n      pop\n      jump\t// out\n        /* \"#utility.yul\":16036:16455   */\n    tag_174:\n      0x00\n        /* \"#utility.yul\":16240:16242   */\n      0x20\n        /* \"#utility.yul\":16229:16238   */\n      dup3\n        /* \"#utility.yul\":16225:16243   */\n      add\n        /* \"#utility.yul\":16217:16243   */\n      swap1\n      pop\n        /* \"#utility.yul\":16289:16298   */\n      dup2\n        /* \"#utility.yul\":16283:16287   */\n      dup2\n        /* \"#utility.yul\":16279:16299   */\n      sub\n        /* \"#utility.yul\":16275:16276   */\n      0x00\n        /* \"#utility.yul\":16264:16273   */\n      dup4\n        /* \"#utility.yul\":16260:16277   */\n      add\n        /* \"#utility.yul\":16253:16300   */\n      mstore\n        /* \"#utility.yul\":16317:16448   */\n      tag_469\n        /* \"#utility.yul\":16443:16447   */\n      dup2\n        /* \"#utility.yul\":16317:16448   */\n      tag_370\n      jump\t// in\n    tag_469:\n        /* \"#utility.yul\":16309:16448   */\n      swap1\n      pop\n        /* \"#utility.yul\":16207:16455   */\n      swap2\n      swap1\n      pop\n      jump\t// out\n        /* \"#utility.yul\":16461:16880   */\n    tag_251:\n      0x00\n        /* \"#utility.yul\":16665:16667   */\n      0x20\n        /* \"#utility.yul\":16654:16663   */\n      dup3\n        /* \"#utility.yul\":16650:16668   */\n      add\n        /* \"#utility.yul\":16642:16668   */\n      swap1\n      pop\n        /* \"#utility.yul\":16714:16723   */\n      dup2\n        /* \"#utility.yul\":16708:16712   */\n      dup2\n        /* \"#utility.yul\":16704:16724   */\n      sub\n        /* \"#utility.yul\":16700:16701   */\n      0x00\n        /* \"#utility.yul\":16689:16698   */\n      dup4\n        /* \"#utility.yul\":16685:16702   */\n      add\n        /* \"#utility.yul\":16678:16725   */\n      mstore\n        /* \"#utility.yul\":16742:16873   */\n      tag_471\n        /* \"#utility.yul\":16868:16872   */\n      dup2\n        /* \"#utility.yul\":16742:16873   */\n      tag_375\n      jump\t// in\n    tag_471:\n        /* \"#utility.yul\":16734:16873   */\n      swap1\n      pop\n        /* \"#utility.yul\":16632:16880   */\n      swap2\n      swap1\n      pop\n      jump\t// out\n        /* \"#utility.yul\":16886:17305   */\n    tag_156:\n      0x00\n        /* \"#utility.yul\":17090:17092   */\n      0x20\n        /* \"#utility.yul\":17079:17088   */\n      dup3\n        /* \"#utility.yul\":17075:17093   */\n      add\n        /* \"#utility.yul\":17067:17093   */\n      swap1\n      pop\n        /* \"#utility.yul\":17139:17148   */\n      dup2\n        /* \"#utility.yul\":17133:17137   */\n      dup2\n        /* \"#utility.yul\":17129:17149   */\n      sub\n        /* \"#utility.yul\":17125:17126   */\n      0x00\n        /* \"#utility.yul\":17114:17123   */\n      dup4\n        /* \"#utility.yul\":17110:17127   */\n      add\n        /* \"#utility.yul\":17103:17150   */\n      mstore\n        /* \"#utility.yul\":17167:17298   */\n      tag_473\n        /* \"#utility.yul\":17293:17297   */\n      dup2\n        /* \"#utility.yul\":17167:17298   */\n      tag_380\n      jump\t// in\n    tag_473:\n        /* \"#utility.yul\":17159:17298   */\n      swap1\n      pop\n        /* \"#utility.yul\":17057:17305   */\n      swap2\n      swap1\n      pop\n      jump\t// out\n        /* \"#utility.yul\":17311:17730   */\n    tag_170:\n      0x00\n        /* \"#utility.yul\":17515:17517   */\n      0x20\n        /* \"#utility.yul\":17504:17513   */\n      dup3\n        /* \"#utility.yul\":17500:17518   */\n      add\n        /* \"#utility.yul\":17492:17518   */\n      swap1\n      pop\n        /* \"#utility.yul\":17564:17573   */\n      dup2\n        /* \"#utility.yul\":17558:17562   */\n      dup2\n        /* \"#utility.yul\":17554:17574   */\n      sub\n        /* \"#utility.yul\":17550:17551   */\n      0x00\n        /* \"#utility.yul\":17539:17548   */\n      dup4\n        /* \"#utility.yul\":17535:17552   */\n      add\n        /* \"#utility.yul\":17528:17575   */\n      mstore\n        /* \"#utility.yul\":17592:17723   */\n      tag_475\n        /* \"#utility.yul\":17718:17722   */\n      dup2\n        /* \"#utility.yul\":17592:17723   */\n      tag_385\n      jump\t// in\n    tag_475:\n        /* \"#utility.yul\":17584:17723   */\n      swap1\n      pop\n        /* \"#utility.yul\":17482:17730   */\n      swap2\n      swap1\n      pop\n      jump\t// out\n        /* \"#utility.yul\":17736:18155   */\n    tag_121:\n      0x00\n        /* \"#utility.yul\":17940:17942   */\n      0x20\n        /* \"#utility.yul\":17929:17938   */\n      dup3\n        /* \"#utility.yul\":17925:17943   */\n      add\n        /* \"#utility.yul\":17917:17943   */\n      swap1\n      pop\n        /* \"#utility.yul\":17989:17998   */\n      dup2\n        /* \"#utility.yul\":17983:17987   */\n      dup2\n        /* \"#utility.yul\":17979:17999   */\n      sub\n        /* \"#utility.yul\":17975:17976   */\n      0x00\n        /* \"#utility.yul\":17964:17973   */\n      dup4\n        /* \"#utility.yul\":17960:17977   */\n      add\n        /* \"#utility.yul\":17953:18000   */\n      mstore\n        /* \"#utility.yul\":18017:18148   */\n      tag_477\n        /* \"#utility.yul\":18143:18147   */\n      dup2\n        /* \"#utility.yul\":18017:18148   */\n      tag_390\n      jump\t// in\n    tag_477:\n        /* \"#utility.yul\":18009:18148   */\n      swap1\n      pop\n        /* \"#utility.yul\":17907:18155   */\n      swap2\n      swap1\n      pop\n      jump\t// out\n        /* \"#utility.yul\":18161:18580   */\n    tag_142:\n      0x00\n        /* \"#utility.yul\":18365:18367   */\n      0x20\n        /* \"#utility.yul\":18354:18363   */\n      dup3\n        /* \"#utility.yul\":18350:18368   */\n      add\n        /* \"#utility.yul\":18342:18368   */\n      swap1\n      pop\n        /* \"#utility.yul\":18414:18423   */\n      dup2\n        /* \"#utility.yul\":18408:18412   */\n      dup2\n        /* \"#utility.yul\":18404:18424   */\n      sub\n        /* \"#utility.yul\":18400:18401   */\n      0x00\n        /* \"#utility.yul\":18389:18398   */\n      dup4\n        /* \"#utility.yul\":18385:18402   */\n      add\n        /* \"#utility.yul\":18378:18425   */\n      mstore\n        /* \"#utility.yul\":18442:18573   */\n      tag_479\n        /* \"#utility.yul\":18568:18572   */\n      dup2\n        /* \"#utility.yul\":18442:18573   */\n      tag_395\n      jump\t// in\n    tag_479:\n        /* \"#utility.yul\":18434:18573   */\n      swap1\n      pop\n        /* \"#utility.yul\":18332:18580   */\n      swap2\n      swap1\n      pop\n      jump\t// out\n        /* \"#utility.yul\":18586:19005   */\n    tag_188:\n      0x00\n        /* \"#utility.yul\":18790:18792   */\n      0x20\n        /* \"#utility.yul\":18779:18788   */\n      dup3\n        /* \"#utility.yul\":18775:18793   */\n      add\n        /* \"#utility.yul\":18767:18793   */\n      swap1\n      pop\n        /* \"#utility.yul\":18839:18848   */\n      dup2\n        /* \"#utility.yul\":18833:18837   */\n      dup2\n        /* \"#utility.yul\":18829:18849   */\n      sub\n        /* \"#utility.yul\":18825:18826   */\n      0x00\n        /* \"#utility.yul\":18814:18823   */\n      dup4\n        /* \"#utility.yul\":18810:18827   */\n      add\n        /* \"#utility.yul\":18803:18850   */\n      mstore\n        /* \"#utility.yul\":18867:18998   */\n      tag_481\n        /* \"#utility.yul\":18993:18997   */\n      dup2\n        /* \"#utility.yul\":18867:18998   */\n      tag_400\n      jump\t// in\n    tag_481:\n        /* \"#utility.yul\":18859:18998   */\n      swap1\n      pop\n        /* \"#utility.yul\":18757:19005   */\n      swap2\n      swap1\n      pop\n      jump\t// out\n        /* \"#utility.yul\":19011:19430   */\n    tag_153:\n      0x00\n        /* \"#utility.yul\":19215:19217   */\n      0x20\n        /* \"#utility.yul\":19204:19213   */\n      dup3\n        /* \"#utility.yul\":19200:19218   */\n      add\n        /* \"#utility.yul\":19192:19218   */\n      swap1\n      pop\n        /* \"#utility.yul\":19264:19273   */\n      dup2\n        /* \"#utility.yul\":19258:19262   */\n      dup2\n        /* \"#utility.yul\":19254:19274   */\n      sub\n        /* \"#utility.yul\":19250:19251   */\n      0x00\n        /* \"#utility.yul\":19239:19248   */\n      dup4\n        /* \"#utility.yul\":19235:19252   */\n      add\n        /* \"#utility.yul\":19228:19275   */\n      mstore\n        /* \"#utility.yul\":19292:19423   */\n      tag_483\n        /* \"#utility.yul\":19418:19422   */\n      dup2\n        /* \"#utility.yul\":19292:19423   */\n      tag_405\n      jump\t// in\n    tag_483:\n        /* \"#utility.yul\":19284:19423   */\n      swap1\n      pop\n        /* \"#utility.yul\":19182:19430   */\n      swap2\n      swap1\n      pop\n      jump\t// out\n        /* \"#utility.yul\":19436:19855   */\n    tag_185:\n      0x00\n        /* \"#utility.yul\":19640:19642   */\n      0x20\n        /* \"#utility.yul\":19629:19638   */\n      dup3\n        /* \"#utility.yul\":19625:19643   */\n      add\n        /* \"#utility.yul\":19617:19643   */\n      swap1\n      pop\n        /* \"#utility.yul\":19689:19698   */\n      dup2\n        /* \"#utility.yul\":19683:19687   */\n      dup2\n        /* \"#utility.yul\":19679:19699   */\n      sub\n        /* \"#utility.yul\":19675:19676   */\n      0x00\n        /* \"#utility.yul\":19664:19673   */\n      dup4\n        /* \"#utility.yul\":19660:19677   */\n      add\n        /* \"#utility.yul\":19653:19700   */\n      mstore\n        /* \"#utility.yul\":19717:19848   */\n      tag_485\n        /* \"#utility.yul\":19843:19847   */\n      dup2\n        /* \"#utility.yul\":19717:19848   */\n      tag_410\n      jump\t// in\n    tag_485:\n        /* \"#utility.yul\":19709:19848   */\n      swap1\n      pop\n        /* \"#utility.yul\":19607:19855   */\n      swap2\n      swap1\n      pop\n      jump\t// out\n        /* \"#utility.yul\":19861:20280   */\n    tag_133:\n      0x00\n        /* \"#utility.yul\":20065:20067   */\n      0x20\n        /* \"#utility.yul\":20054:20063   */\n      dup3\n        /* \"#utility.yul\":20050:20068   */\n      add\n        /* \"#utility.yul\":20042:20068   */\n      swap1\n      pop\n        /* \"#utility.yul\":20114:20123   */\n      dup2\n        /* \"#utility.yul\":20108:20112   */\n      dup2\n        /* \"#utility.yul\":20104:20124   */\n      sub\n        /* \"#utility.yul\":20100:20101   */\n      0x00\n        /* \"#utility.yul\":20089:20098   */\n      dup4\n        /* \"#utility.yul\":20085:20102   */\n      add\n        /* \"#utility.yul\":20078:20125   */\n      mstore\n        /* \"#utility.yul\":20142:20273   */\n      tag_487\n        /* \"#utility.yul\":20268:20272   */\n      dup2\n        /* \"#utility.yul\":20142:20273   */\n      tag_415\n      jump\t// in\n    tag_487:\n        /* \"#utility.yul\":20134:20273   */\n      swap1\n      pop\n        /* \"#utility.yul\":20032:20280   */\n      swap2\n      swap1\n      pop\n      jump\t// out\n        /* \"#utility.yul\":20286:20705   */\n    tag_181:\n      0x00\n        /* \"#utility.yul\":20490:20492   */\n      0x20\n        /* \"#utility.yul\":20479:20488   */\n      dup3\n        /* \"#utility.yul\":20475:20493   */\n      add\n        /* \"#utility.yul\":20467:20493   */\n      swap1\n      pop\n        /* \"#utility.yul\":20539:20548   */\n      dup2\n        /* \"#utility.yul\":20533:20537   */\n      dup2\n        /* \"#utility.yul\":20529:20549   */\n      sub\n        /* \"#utility.yul\":20525:20526   */\n      0x00\n        /* \"#utility.yul\":20514:20523   */\n      dup4\n        /* \"#utility.yul\":20510:20527   */\n      add\n        /* \"#utility.yul\":20503:20550   */\n      mstore\n        /* \"#utility.yul\":20567:20698   */\n      tag_489\n        /* \"#utility.yul\":20693:20697   */\n      dup2\n        /* \"#utility.yul\":20567:20698   */\n      tag_420\n      jump\t// in\n    tag_489:\n        /* \"#utility.yul\":20559:20698   */\n      swap1\n      pop\n        /* \"#utility.yul\":20457:20705   */\n      swap2\n      swap1\n      pop\n      jump\t// out\n        /* \"#utility.yul\":20711:21130   */\n    tag_166:\n      0x00\n        /* \"#utility.yul\":20915:20917   */\n      0x20\n        /* \"#utility.yul\":20904:20913   */\n      dup3\n        /* \"#utility.yul\":20900:20918   */\n      add\n        /* \"#utility.yul\":20892:20918   */\n      swap1\n      pop\n        /* \"#utility.yul\":20964:20973   */\n      dup2\n        /* \"#utility.yul\":20958:20962   */\n      dup2\n        /* \"#utility.yul\":20954:20974   */\n      sub\n        /* \"#utility.yul\":20950:20951   */\n      0x00\n        /* \"#utility.yul\":20939:20948   */\n      dup4\n        /* \"#utility.yul\":20935:20952   */\n      add\n        /* \"#utility.yul\":20928:20975   */\n      mstore\n        /* \"#utility.yul\":20992:21123   */\n      tag_491\n        /* \"#utility.yul\":21118:21122   */\n      dup2\n        /* \"#utility.yul\":20992:21123   */\n      tag_425\n      jump\t// in\n    tag_491:\n        /* \"#utility.yul\":20984:21123   */\n      swap1\n      pop\n        /* \"#utility.yul\":20882:21130   */\n      swap2\n      swap1\n      pop\n      jump\t// out\n        /* \"#utility.yul\":21136:21555   */\n    tag_124:\n      0x00\n        /* \"#utility.yul\":21340:21342   */\n      0x20\n        /* \"#utility.yul\":21329:21338   */\n      dup3\n        /* \"#utility.yul\":21325:21343   */\n      add\n        /* \"#utility.yul\":21317:21343   */\n      swap1\n      pop\n        /* \"#utility.yul\":21389:21398   */\n      dup2\n        /* \"#utility.yul\":21383:21387   */\n      dup2\n        /* \"#utility.yul\":21379:21399   */\n      sub\n        /* \"#utility.yul\":21375:21376   */\n      0x00\n        /* \"#utility.yul\":21364:21373   */\n      dup4\n        /* \"#utility.yul\":21360:21377   */\n      add\n        /* \"#utility.yul\":21353:21400   */\n      mstore\n        /* \"#utility.yul\":21417:21548   */\n      tag_493\n        /* \"#utility.yul\":21543:21547   */\n      dup2\n        /* \"#utility.yul\":21417:21548   */\n      tag_430\n      jump\t// in\n    tag_493:\n        /* \"#utility.yul\":21409:21548   */\n      swap1\n      pop\n        /* \"#utility.yul\":21307:21555   */\n      swap2\n      swap1\n      pop\n      jump\t// out\n        /* \"#utility.yul\":21561:21980   */\n    tag_150:\n      0x00\n        /* \"#utility.yul\":21765:21767   */\n      0x20\n        /* \"#utility.yul\":21754:21763   */\n      dup3\n        /* \"#utility.yul\":21750:21768   */\n      add\n        /* \"#utility.yul\":21742:21768   */\n      swap1\n      pop\n        /* \"#utility.yul\":21814:21823   */\n      dup2\n        /* \"#utility.yul\":21808:21812   */\n      dup2\n        /* \"#utility.yul\":21804:21824   */\n      sub\n        /* \"#utility.yul\":21800:21801   */\n      0x00\n        /* \"#utility.yul\":21789:21798   */\n      dup4\n        /* \"#utility.yul\":21785:21802   */\n      add\n        /* \"#utility.yul\":21778:21825   */\n      mstore\n        /* \"#utility.yul\":21842:21973   */\n      tag_495\n        /* \"#utility.yul\":21968:21972   */\n      dup2\n        /* \"#utility.yul\":21842:21973   */\n      tag_435\n      jump\t// in\n    tag_495:\n        /* \"#utility.yul\":21834:21973   */\n      swap1\n      pop\n        /* \"#utility.yul\":21732:21980   */\n      swap2\n      swap1\n      pop\n      jump\t// out\n        /* \"#utility.yul\":21986:22208   */\n    tag_49:\n      0x00\n        /* \"#utility.yul\":22117:22119   */\n      0x20\n        /* \"#utility.yul\":22106:22115   */\n      dup3\n        /* \"#utility.yul\":22102:22120   */\n      add\n        /* \"#utility.yul\":22094:22120   */\n      swap1\n      pop\n        /* \"#utility.yul\":22130:22201   */\n      tag_497\n        /* \"#utility.yul\":22198:22199   */\n      0x00\n        /* \"#utility.yul\":22187:22196   */\n      dup4\n        /* \"#utility.yul\":22183:22200   */\n      add\n        /* \"#utility.yul\":22174:22180   */\n      dup5\n        /* \"#utility.yul\":22130:22201   */\n      tag_443\n      jump\t// in\n    tag_497:\n        /* \"#utility.yul\":22084:22208   */\n      swap3\n      swap2\n      pop\n      pop\n      jump\t// out\n        /* \"#utility.yul\":22214:22346   */\n    tag_300:\n      0x00\n        /* \"#utility.yul\":22304:22307   */\n      dup2\n        /* \"#utility.yul\":22296:22307   */\n      swap1\n      pop\n        /* \"#utility.yul\":22334:22338   */\n      0x20\n        /* \"#utility.yul\":22329:22332   */\n      dup3\n        /* \"#utility.yul\":22325:22339   */\n      add\n        /* \"#utility.yul\":22317:22339   */\n      swap1\n      pop\n        /* \"#utility.yul\":22286:22346   */\n      swap2\n      swap1\n      pop\n      jump\t// out\n        /* \"#utility.yul\":22352:22493   */\n    tag_314:\n      0x00\n        /* \"#utility.yul\":22451:22454   */\n      dup2\n        /* \"#utility.yul\":22443:22454   */\n      swap1\n      pop\n        /* \"#utility.yul\":22481:22485   */\n      0x20\n        /* \"#utility.yul\":22476:22479   */\n      dup3\n        /* \"#utility.yul\":22472:22486   */\n      add\n        /* \"#utility.yul\":22464:22486   */\n      swap1\n      pop\n        /* \"#utility.yul\":22433:22493   */\n      swap2\n      swap1\n      pop\n      jump\t// out\n        /* \"#utility.yul\":22499:22631   */\n    tag_328:\n      0x00\n        /* \"#utility.yul\":22589:22592   */\n      dup2\n        /* \"#utility.yul\":22581:22592   */\n      swap1\n      pop\n        /* \"#utility.yul\":22619:22623   */\n      0x20\n        /* \"#utility.yul\":22614:22617   */\n      dup3\n        /* \"#utility.yul\":22610:22624   */\n      add\n        /* \"#utility.yul\":22602:22624   */\n      swap1\n      pop\n        /* \"#utility.yul\":22571:22631   */\n      swap2\n      swap1\n      pop\n      jump\t// out\n        /* \"#utility.yul\":22637:22751   */\n    tag_296:\n      0x00\n        /* \"#utility.yul\":22738:22743   */\n      dup2\n        /* \"#utility.yul\":22732:22744   */\n      mload\n        /* \"#utility.yul\":22722:22744   */\n      swap1\n      pop\n        /* \"#utility.yul\":22711:22751   */\n      swap2\n      swap1\n      pop\n      jump\t// out\n        /* \"#utility.yul\":22757:22880   */\n    tag_310:\n      0x00\n        /* \"#utility.yul\":22867:22872   */\n      dup2\n        /* \"#utility.yul\":22861:22873   */\n      mload\n        /* \"#utility.yul\":22851:22873   */\n      swap1\n      pop\n        /* \"#utility.yul\":22840:22880   */\n      swap2\n      swap1\n      pop\n      jump\t// out\n        /* \"#utility.yul\":22886:23000   */\n    tag_324:\n      0x00\n        /* \"#utility.yul\":22987:22992   */\n      dup2\n        /* \"#utility.yul\":22981:22993   */\n      mload\n        /* \"#utility.yul\":22971:22993   */\n      swap1\n      pop\n        /* \"#utility.yul\":22960:23000   */\n      swap2\n      swap1\n      pop\n      jump\t// out\n        /* \"#utility.yul\":23006:23119   */\n    tag_306:\n      0x00\n        /* \"#utility.yul\":23108:23112   */\n      0x20\n        /* \"#utility.yul\":23103:23106   */\n      dup3\n        /* \"#utility.yul\":23099:23113   */\n      add\n        /* \"#utility.yul\":23091:23113   */\n      swap1\n      pop\n        /* \"#utility.yul\":23081:23119   */\n      swap2\n      swap1\n      pop\n      jump\t// out\n        /* \"#utility.yul\":23125:23247   */\n    tag_320:\n      0x00\n        /* \"#utility.yul\":23236:23240   */\n      0x20\n        /* \"#utility.yul\":23231:23234   */\n      dup3\n        /* \"#utility.yul\":23227:23241   */\n      add\n        /* \"#utility.yul\":23219:23241   */\n      swap1\n      pop\n        /* \"#utility.yul\":23209:23247   */\n      swap2\n      swap1\n      pop\n      jump\t// out\n        /* \"#utility.yul\":23253:23366   */\n    tag_334:\n      0x00\n        /* \"#utility.yul\":23355:23359   */\n      0x20\n        /* \"#utility.yul\":23350:23353   */\n      dup3\n        /* \"#utility.yul\":23346:23360   */\n      add\n        /* \"#utility.yul\":23338:23360   */\n      swap1\n      pop\n        /* \"#utility.yul\":23328:23366   */\n      swap2\n      swap1\n      pop\n      jump\t// out\n        /* \"#utility.yul\":23372:23556   */\n    tag_298:\n      0x00\n        /* \"#utility.yul\":23505:23511   */\n      dup3\n        /* \"#utility.yul\":23500:23503   */\n      dup3\n        /* \"#utility.yul\":23493:23512   */\n      mstore\n        /* \"#utility.yul\":23545:23549   */\n      0x20\n        /* \"#utility.yul\":23540:23543   */\n      dup3\n        /* \"#utility.yul\":23536:23550   */\n      add\n        /* \"#utility.yul\":23521:23550   */\n      swap1\n      pop\n        /* \"#utility.yul\":23483:23556   */\n      swap3\n      swap2\n      pop\n      pop\n      jump\t// out\n        /* \"#utility.yul\":23562:23746   */\n    tag_326:\n      0x00\n        /* \"#utility.yul\":23695:23701   */\n      dup3\n        /* \"#utility.yul\":23690:23693   */\n      dup3\n        /* \"#utility.yul\":23683:23702   */\n      mstore\n        /* \"#utility.yul\":23735:23739   */\n      0x20\n        /* \"#utility.yul\":23730:23733   */\n      dup3\n        /* \"#utility.yul\":23726:23740   */\n      add\n        /* \"#utility.yul\":23711:23740   */\n      swap1\n      pop\n        /* \"#utility.yul\":23673:23746   */\n      swap3\n      swap2\n      pop\n      pop\n      jump\t// out\n        /* \"#utility.yul\":23752:23934   */\n    tag_312:\n      0x00\n        /* \"#utility.yul\":23883:23889   */\n      dup3\n        /* \"#utility.yul\":23878:23881   */\n      dup3\n        /* \"#utility.yul\":23871:23890   */\n      mstore\n        /* \"#utility.yul\":23923:23927   */\n      0x20\n        /* \"#utility.yul\":23918:23921   */\n      dup3\n        /* \"#utility.yul\":23914:23928   */\n      add\n        /* \"#utility.yul\":23899:23928   */\n      swap1\n      pop\n        /* \"#utility.yul\":23861:23934   */\n      swap3\n      swap2\n      pop\n      pop\n      jump\t// out\n        /* \"#utility.yul\":23940:24109   */\n    tag_352:\n      0x00\n        /* \"#utility.yul\":24058:24064   */\n      dup3\n        /* \"#utility.yul\":24053:24056   */\n      dup3\n        /* \"#utility.yul\":24046:24065   */\n      mstore\n        /* \"#utility.yul\":24098:24102   */\n      0x20\n        /* \"#utility.yul\":24093:24096   */\n      dup3\n        /* \"#utility.yul\":24089:24103   */\n      add\n        /* \"#utility.yul\":24074:24103   */\n      swap1\n      pop\n        /* \"#utility.yul\":24036:24109   */\n      swap3\n      swap2\n      pop\n      pop\n      jump\t// out\n        /* \"#utility.yul\":24115:24211   */\n    tag_289:\n      0x00\n        /* \"#utility.yul\":24181:24205   */\n      tag_512\n        /* \"#utility.yul\":24199:24204   */\n      dup3\n        /* \"#utility.yul\":24181:24205   */\n      tag_513\n      jump\t// in\n    tag_512:\n        /* \"#utility.yul\":24170:24205   */\n      swap1\n      pop\n        /* \"#utility.yul\":24160:24211   */\n      swap2\n      swap1\n      pop\n      jump\t// out\n        /* \"#utility.yul\":24217:24307   */\n    tag_338:\n      0x00\n        /* \"#utility.yul\":24294:24299   */\n      dup2\n        /* \"#utility.yul\":24287:24300   */\n      iszero\n        /* \"#utility.yul\":24280:24301   */\n      iszero\n        /* \"#utility.yul\":24269:24301   */\n      swap1\n      pop\n        /* \"#utility.yul\":24259:24307   */\n      swap2\n      swap1\n      pop\n      jump\t// out\n        /* \"#utility.yul\":24313:24442   */\n    tag_515:\n      0x00\n        /* \"#utility.yul\":24388:24393   */\n      dup2\n        /* \"#utility.yul\":24377:24393   */\n      swap1\n      pop\n        /* \"#utility.yul\":24394:24436   */\n      tag_517\n        /* \"#utility.yul\":24430:24435   */\n      dup3\n        /* \"#utility.yul\":24394:24436   */\n      tag_518\n      jump\t// in\n    tag_517:\n        /* \"#utility.yul\":24367:24442   */\n      swap2\n      swap1\n      pop\n      jump\t// out\n        /* \"#utility.yul\":24448:24524   */\n    tag_348:\n      0x00\n        /* \"#utility.yul\":24513:24518   */\n      dup2\n        /* \"#utility.yul\":24502:24518   */\n      swap1\n      pop\n        /* \"#utility.yul\":24492:24524   */\n      swap2\n      swap1\n      pop\n      jump\t// out\n        /* \"#utility.yul\":24530:24656   */\n    tag_513:\n      0x00\n        /* \"#utility.yul\":24607:24649   */\n      0xffffffffffffffffffffffffffffffffffffffff\n        /* \"#utility.yul\":24600:24605   */\n      dup3\n        /* \"#utility.yul\":24596:24650   */\n      and\n        /* \"#utility.yul\":24585:24650   */\n      swap1\n      pop\n        /* \"#utility.yul\":24575:24656   */\n      swap2\n      swap1\n      pop\n      jump\t// out\n        /* \"#utility.yul\":24662:24739   */\n    tag_442:\n      0x00\n        /* \"#utility.yul\":24728:24733   */\n      dup2\n        /* \"#utility.yul\":24717:24733   */\n      swap1\n      pop\n        /* \"#utility.yul\":24707:24739   */\n      swap2\n      swap1\n      pop\n      jump\t// out\n        /* \"#utility.yul\":24745:24874   */\n    tag_341:\n      0x00\n        /* \"#utility.yul\":24835:24868   */\n      tag_523\n        /* \"#utility.yul\":24862:24867   */\n      dup3\n        /* \"#utility.yul\":24835:24868   */\n      tag_515\n      jump\t// in\n    tag_523:\n        /* \"#utility.yul\":24822:24868   */\n      swap1\n      pop\n        /* \"#utility.yul\":24812:24874   */\n      swap2\n      swap1\n      pop\n      jump\t// out\n        /* \"#utility.yul\":24880:25113   */\n    tag_201:\n      0x00\n        /* \"#utility.yul\":24942:24966   */\n      tag_525\n        /* \"#utility.yul\":24960:24965   */\n      dup3\n        /* \"#utility.yul\":24942:24966   */\n      tag_442\n      jump\t// in\n    tag_525:\n        /* \"#utility.yul\":24933:24966   */\n      swap2\n      pop\n        /* \"#utility.yul\":24988:25054   */\n      0xffffffffffffffffffffffffffffffffffffffffffffffffffffffffffffffff\n        /* \"#utility.yul\":24981:24986   */\n      dup3\n        /* \"#utility.yul\":24978:25055   */\n      eq\n        /* \"#utility.yul\":24975:24977   */\n      iszero\n      tag_526\n      jumpi\n        /* \"#utility.yul\":25058:25076   */\n      tag_527\n      tag_528\n      jump\t// in\n    tag_527:\n        /* \"#utility.yul\":24975:24977   */\n    tag_526:\n        /* \"#utility.yul\":25105:25106   */\n      0x01\n        /* \"#utility.yul\":25098:25103   */\n      dup3\n        /* \"#utility.yul\":25094:25107   */\n      add\n        /* \"#utility.yul\":25087:25107   */\n      swap1\n      pop\n        /* \"#utility.yul\":24923:25113   */\n      swap2\n      swap1\n      pop\n      jump\t// out\n        /* \"#utility.yul\":25119:25299   */\n    tag_528:\n        /* \"#utility.yul\":25167:25244   */\n      0x4e487b7100000000000000000000000000000000000000000000000000000000\n        /* \"#utility.yul\":25164:25165   */\n      0x00\n        /* \"#utility.yul\":25157:25245   */\n      mstore\n        /* \"#utility.yul\":25264:25268   */\n      0x11\n        /* \"#utility.yul\":25261:25262   */\n      0x04\n        /* \"#utility.yul\":25254:25269   */\n      mstore\n        /* \"#utility.yul\":25288:25292   */\n      0x24\n        /* \"#utility.yul\":25285:25286   */\n      0x00\n        /* \"#utility.yul\":25278:25293   */\n      revert\n        /* \"#utility.yul\":25305:25485   */\n    tag_530:\n        /* \"#utility.yul\":25353:25430   */\n      0x4e487b7100000000000000000000000000000000000000000000000000000000\n        /* \"#utility.yul\":25350:25351   */\n      0x00\n        /* \"#utility.yul\":25343:25431   */\n      mstore\n        /* \"#utility.yul\":25450:25454   */\n      0x21\n        /* \"#utility.yul\":25447:25448   */\n      0x04\n        /* \"#utility.yul\":25440:25455   */\n      mstore\n        /* \"#utility.yul\":25474:25478   */\n      0x24\n        /* \"#utility.yul\":25471:25472   */\n      0x00\n        /* \"#utility.yul\":25464:25479   */\n      revert\n        /* \"#utility.yul\":25491:25661   */\n    tag_354:\n        /* \"#utility.yul\":25631:25653   */\n      0x557365722065786973747320616c726561647921000000000000000000000000\n        /* \"#utility.yul\":25627:25628   */\n      0x00\n        /* \"#utility.yul\":25619:25625   */\n      dup3\n        /* \"#utility.yul\":25615:25629   */\n      add\n        /* \"#utility.yul\":25608:25654   */\n      mstore\n        /* \"#utility.yul\":25597:25661   */\n      pop\n      jump\t// out\n        /* \"#utility.yul\":25667:25903   */\n    tag_359:\n        /* \"#utility.yul\":25807:25841   */\n      0x4f776e6572206f6620612070726f7065727479206973206e6f7420616c6c6f77\n        /* \"#utility.yul\":25803:25804   */\n      0x00\n        /* \"#utility.yul\":25795:25801   */\n      dup3\n        /* \"#utility.yul\":25791:25805   */\n      add\n        /* \"#utility.yul\":25784:25842   */\n      mstore\n        /* \"#utility.yul\":25876:25895   */\n      0x656420746f20617070726f766520697421000000000000000000000000000000\n        /* \"#utility.yul\":25871:25873   */\n      0x20\n        /* \"#utility.yul\":25863:25869   */\n      dup3\n        /* \"#utility.yul\":25859:25874   */\n      add\n        /* \"#utility.yul\":25852:25896   */\n      mstore\n        /* \"#utility.yul\":25773:25903   */\n      pop\n      jump\t// out\n        /* \"#utility.yul\":25909:26148   */\n    tag_364:\n        /* \"#utility.yul\":26049:26083   */\n      0x53757065722041646d696e20697320617574686f72697a656420666f72207468\n        /* \"#utility.yul\":26045:26046   */\n      0x00\n        /* \"#utility.yul\":26037:26043   */\n      dup3\n        /* \"#utility.yul\":26033:26047   */\n      add\n        /* \"#utility.yul\":26026:26084   */\n      mstore\n        /* \"#utility.yul\":26118:26140   */\n      0x6973207472616e73616374696f6e206f6e6c7921000000000000000000000000\n        /* \"#utility.yul\":26113:26115   */\n      0x20\n        /* \"#utility.yul\":26105:26111   */\n      dup3\n        /* \"#utility.yul\":26101:26116   */\n      add\n        /* \"#utility.yul\":26094:26141   */\n      mstore\n        /* \"#utility.yul\":26015:26148   */\n      pop\n      jump\t// out\n        /* \"#utility.yul\":26154:26399   */\n    tag_369:\n        /* \"#utility.yul\":26294:26328   */\n      0x53757065722041646d696e20616e642041646d696e2061726520617574686f72\n        /* \"#utility.yul\":26290:26291   */\n      0x00\n        /* \"#utility.yul\":26282:26288   */\n      dup3\n        /* \"#utility.yul\":26278:26292   */\n      add\n        /* \"#utility.yul\":26271:26329   */\n      mstore\n        /* \"#utility.yul\":26363:26391   */\n      0x697a656420666f722074686973207472616e73616374696f6e21000000000000\n        /* \"#utility.yul\":26358:26360   */\n      0x20\n        /* \"#utility.yul\":26350:26356   */\n      dup3\n        /* \"#utility.yul\":26346:26361   */\n      add\n        /* \"#utility.yul\":26339:26392   */\n      mstore\n        /* \"#utility.yul\":26260:26399   */\n      pop\n      jump\t// out\n        /* \"#utility.yul\":26405:26648   */\n    tag_374:\n        /* \"#utility.yul\":26545:26579   */\n      0x546869732070726f70657274792068617320612070656e64696e67206368616e\n        /* \"#utility.yul\":26541:26542   */\n      0x00\n        /* \"#utility.yul\":26533:26539   */\n      dup3\n        /* \"#utility.yul\":26529:26543   */\n      add\n        /* \"#utility.yul\":26522:26580   */\n      mstore\n        /* \"#utility.yul\":26614:26640   */\n      0x6765206f66206f776e6572736869702072657175657374210000000000000000\n        /* \"#utility.yul\":26609:26611   */\n      0x20\n        /* \"#utility.yul\":26601:26607   */\n      dup3\n        /* \"#utility.yul\":26597:26612   */\n      add\n        /* \"#utility.yul\":26590:26641   */\n      mstore\n        /* \"#utility.yul\":26511:26648   */\n      pop\n      jump\t// out\n        /* \"#utility.yul\":26654:26898   */\n    tag_379:\n        /* \"#utility.yul\":26794:26828   */\n      0x41206368616e6765206f66206f776e657273686970206973206e6f7420726571\n        /* \"#utility.yul\":26790:26791   */\n      0x00\n        /* \"#utility.yul\":26782:26788   */\n      dup3\n        /* \"#utility.yul\":26778:26792   */\n      add\n        /* \"#utility.yul\":26771:26829   */\n      mstore\n        /* \"#utility.yul\":26863:26890   */\n      0x75657374656420666f7220746869732070726f70657274792100000000000000\n        /* \"#utility.yul\":26858:26860   */\n      0x20\n        /* \"#utility.yul\":26850:26856   */\n      dup3\n        /* \"#utility.yul\":26846:26861   */\n      add\n        /* \"#utility.yul\":26839:26891   */\n      mstore\n        /* \"#utility.yul\":26760:26898   */\n      pop\n      jump\t// out\n        /* \"#utility.yul\":26904:27073   */\n    tag_384:\n        /* \"#utility.yul\":27044:27065   */\n      0x5573657220646f65736e27742065786973742100000000000000000000000000\n        /* \"#utility.yul\":27040:27041   */\n      0x00\n        /* \"#utility.yul\":27032:27038   */\n      dup3\n        /* \"#utility.yul\":27028:27042   */\n      add\n        /* \"#utility.yul\":27021:27066   */\n      mstore\n        /* \"#utility.yul\":27010:27073   */\n      pop\n      jump\t// out\n        /* \"#utility.yul\":27079:27312   */\n    tag_389:\n        /* \"#utility.yul\":27219:27253   */\n      0x4f776e657220697320617574686f72697a656420666f72207468697320747261\n        /* \"#utility.yul\":27215:27216   */\n      0x00\n        /* \"#utility.yul\":27207:27213   */\n      dup3\n        /* \"#utility.yul\":27203:27217   */\n      add\n        /* \"#utility.yul\":27196:27254   */\n      mstore\n        /* \"#utility.yul\":27288:27304   */\n      0x6e73616374696f6e206f6e6c7921000000000000000000000000000000000000\n        /* \"#utility.yul\":27283:27285   */\n      0x20\n        /* \"#utility.yul\":27275:27281   */\n      dup3\n        /* \"#utility.yul\":27271:27286   */\n      add\n        /* \"#utility.yul\":27264:27305   */\n      mstore\n        /* \"#utility.yul\":27185:27312   */\n      pop\n      jump\t// out\n        /* \"#utility.yul\":27318:27490   */\n    tag_394:\n        /* \"#utility.yul\":27458:27482   */\n      0x5573657220697320612053757065722041646d696e2100000000000000000000\n        /* \"#utility.yul\":27454:27455   */\n      0x00\n        /* \"#utility.yul\":27446:27452   */\n      dup3\n        /* \"#utility.yul\":27442:27456   */\n      add\n        /* \"#utility.yul\":27435:27483   */\n      mstore\n        /* \"#utility.yul\":27424:27490   */\n      pop\n      jump\t// out\n        /* \"#utility.yul\":27496:27719   */\n    tag_399:\n        /* \"#utility.yul\":27636:27670   */\n      0x412072657175657374206973206e6f74206d61646520666f7220746869732075\n        /* \"#utility.yul\":27632:27633   */\n      0x00\n        /* \"#utility.yul\":27624:27630   */\n      dup3\n        /* \"#utility.yul\":27620:27634   */\n      add\n        /* \"#utility.yul\":27613:27671   */\n      mstore\n        /* \"#utility.yul\":27705:27711   */\n      0x7365722100000000000000000000000000000000000000000000000000000000\n        /* \"#utility.yul\":27700:27702   */\n      0x20\n        /* \"#utility.yul\":27692:27698   */\n      dup3\n        /* \"#utility.yul\":27688:27703   */\n      add\n        /* \"#utility.yul\":27681:27712   */\n      mstore\n        /* \"#utility.yul\":27602:27719   */\n      pop\n      jump\t// out\n        /* \"#utility.yul\":27725:27976   */\n    tag_404:\n        /* \"#utility.yul\":27865:27899   */\n      0x546869732070726f706572747920616c72656164792068617320612070656e64\n        /* \"#utility.yul\":27861:27862   */\n      0x00\n        /* \"#utility.yul\":27853:27859   */\n      dup3\n        /* \"#utility.yul\":27849:27863   */\n      add\n        /* \"#utility.yul\":27842:27900   */\n      mstore\n        /* \"#utility.yul\":27934:27968   */\n      0x696e67206368616e6765206f66206f776e657273686970207265717565737421\n        /* \"#utility.yul\":27929:27931   */\n      0x20\n        /* \"#utility.yul\":27921:27927   */\n      dup3\n        /* \"#utility.yul\":27917:27932   */\n      add\n        /* \"#utility.yul\":27910:27969   */\n      mstore\n        /* \"#utility.yul\":27831:27976   */\n      pop\n      jump\t// out\n        /* \"#utility.yul\":27982:28158   */\n    tag_409:\n        /* \"#utility.yul\":28122:28150   */\n      0x55736572206973206e6f7420612053757065722041646d696e21000000000000\n        /* \"#utility.yul\":28118:28119   */\n      0x00\n        /* \"#utility.yul\":28110:28116   */\n      dup3\n        /* \"#utility.yul\":28106:28120   */\n      add\n        /* \"#utility.yul\":28099:28151   */\n      mstore\n        /* \"#utility.yul\":28088:28158   */\n      pop\n      jump\t// out\n        /* \"#utility.yul\":28164:28412   */\n    tag_414:\n        /* \"#utility.yul\":28304:28338   */\n      0x4e6577206f776e657227732061646472657373206d7573742064696666657220\n        /* \"#utility.yul\":28300:28301   */\n      0x00\n        /* \"#utility.yul\":28292:28298   */\n      dup3\n        /* \"#utility.yul\":28288:28302   */\n      add\n        /* \"#utility.yul\":28281:28339   */\n      mstore\n        /* \"#utility.yul\":28373:28404   */\n      0x66726f6d2063757272656e74206f776e65722773206164647265737321000000\n        /* \"#utility.yul\":28368:28370   */\n      0x20\n        /* \"#utility.yul\":28360:28366   */\n      dup3\n        /* \"#utility.yul\":28356:28371   */\n      add\n        /* \"#utility.yul\":28349:28405   */\n      mstore\n        /* \"#utility.yul\":28270:28412   */\n      pop\n      jump\t// out\n        /* \"#utility.yul\":28418:28653   */\n    tag_419:\n        /* \"#utility.yul\":28558:28592   */\n      0x4f776e6572206f6620612070726f7065727479206973206e6f7420616c6c6f77\n        /* \"#utility.yul\":28554:28555   */\n      0x00\n        /* \"#utility.yul\":28546:28552   */\n      dup3\n        /* \"#utility.yul\":28542:28556   */\n      add\n        /* \"#utility.yul\":28535:28593   */\n      mstore\n        /* \"#utility.yul\":28627:28645   */\n      0x656420746f2072656a6563742069742100000000000000000000000000000000\n        /* \"#utility.yul\":28622:28624   */\n      0x20\n        /* \"#utility.yul\":28614:28620   */\n      dup3\n        /* \"#utility.yul\":28610:28625   */\n      add\n        /* \"#utility.yul\":28603:28646   */\n      mstore\n        /* \"#utility.yul\":28524:28653   */\n      pop\n      jump\t// out\n        /* \"#utility.yul\":28659:28839   */\n    tag_424:\n        /* \"#utility.yul\":28799:28831   */\n      0x4f776e6572206d75737420626520612076657269666965642075736572210000\n        /* \"#utility.yul\":28795:28796   */\n      0x00\n        /* \"#utility.yul\":28787:28793   */\n      dup3\n        /* \"#utility.yul\":28783:28797   */\n      add\n        /* \"#utility.yul\":28776:28832   */\n      mstore\n        /* \"#utility.yul\":28765:28839   */\n      pop\n      jump\t// out\n        /* \"#utility.yul\":28845:29074   */\n    tag_429:\n        /* \"#utility.yul\":28985:29019   */\n      0x5573657220697320617574686f72697a65642061732053757065722041646d69\n        /* \"#utility.yul\":28981:28982   */\n      0x00\n        /* \"#utility.yul\":28973:28979   */\n      dup3\n        /* \"#utility.yul\":28969:28983   */\n      add\n        /* \"#utility.yul\":28962:29020   */\n      mstore\n        /* \"#utility.yul\":29054:29066   */\n      0x6e20616c72656164792100000000000000000000000000000000000000000000\n        /* \"#utility.yul\":29049:29051   */\n      0x20\n        /* \"#utility.yul\":29041:29047   */\n      dup3\n        /* \"#utility.yul\":29037:29052   */\n      add\n        /* \"#utility.yul\":29030:29067   */\n      mstore\n        /* \"#utility.yul\":28951:29074   */\n      pop\n      jump\t// out\n        /* \"#utility.yul\":29080:29255   */\n    tag_434:\n        /* \"#utility.yul\":29220:29247   */\n      0x5573657220697320616e2041646d696e20616c72656164792100000000000000\n        /* \"#utility.yul\":29216:29217   */\n      0x00\n        /* \"#utility.yul\":29208:29214   */\n      dup3\n        /* \"#utility.yul\":29204:29218   */\n      add\n        /* \"#utility.yul\":29197:29248   */\n      mstore\n        /* \"#utility.yul\":29186:29255   */\n      pop\n      jump\t// out\n        /* \"#utility.yul\":29261:29502   */\n    tag_439:\n        /* \"#utility.yul\":29401:29435   */\n      0x43726561746f722041646d696e20697320617574686f72697a656420666f7220\n        /* \"#utility.yul\":29397:29398   */\n      0x00\n        /* \"#utility.yul\":29389:29395   */\n      dup3\n        /* \"#utility.yul\":29385:29399   */\n      add\n        /* \"#utility.yul\":29378:29436   */\n      mstore\n        /* \"#utility.yul\":29470:29494   */\n      0x74686973207472616e73616374696f6e206f6e6c792100000000000000000000\n        /* \"#utility.yul\":29465:29467   */\n      0x20\n        /* \"#utility.yul\":29457:29463   */\n      dup3\n        /* \"#utility.yul\":29453:29468   */\n      add\n        /* \"#utility.yul\":29446:29495   */\n      mstore\n        /* \"#utility.yul\":29367:29502   */\n      pop\n      jump\t// out\n        /* \"#utility.yul\":29508:29622   */\n    tag_518:\n        /* \"#utility.yul\":29590:29591   */\n      0x04\n        /* \"#utility.yul\":29583:29588   */\n      dup2\n        /* \"#utility.yul\":29580:29592   */\n      lt\n        /* \"#utility.yul\":29570:29572   */\n      tag_551\n      jumpi\n        /* \"#utility.yul\":29596:29614   */\n      tag_552\n      tag_530\n      jump\t// in\n    tag_552:\n        /* \"#utility.yul\":29570:29572   */\n    tag_551:\n        /* \"#utility.yul\":29560:29622   */\n      pop\n      jump\t// out\n        /* \"#utility.yul\":29628:29750   */\n    tag_256:\n        /* \"#utility.yul\":29701:29725   */\n      tag_554\n        /* \"#utility.yul\":29719:29724   */\n      dup2\n        /* \"#utility.yul\":29701:29725   */\n      tag_289\n      jump\t// in\n    tag_554:\n        /* \"#utility.yul\":29694:29699   */\n      dup2\n        /* \"#utility.yul\":29691:29726   */\n      eq\n        /* \"#utility.yul\":29681:29683   */\n      tag_555\n      jumpi\n        /* \"#utility.yul\":29740:29741   */\n      0x00\n        /* \"#utility.yul\":29737:29738   */\n      dup1\n        /* \"#utility.yul\":29730:29742   */\n      revert\n        /* \"#utility.yul\":29681:29683   */\n    tag_555:\n        /* \"#utility.yul\":29671:29750   */\n      pop\n      jump\t// out\n        /* \"#utility.yul\":29756:29878   */\n    tag_260:\n        /* \"#utility.yul\":29829:29853   */\n      tag_557\n        /* \"#utility.yul\":29847:29852   */\n      dup2\n        /* \"#utility.yul\":29829:29853   */\n      tag_442\n      jump\t// in\n    tag_557:\n        /* \"#utility.yul\":29822:29827   */\n      dup2\n        /* \"#utility.yul\":29819:29854   */\n      eq\n        /* \"#utility.yul\":29809:29811   */\n      tag_558\n      jumpi\n        /* \"#utility.yul\":29868:29869   */\n      0x00\n        /* \"#utility.yul\":29865:29866   */\n      dup1\n        /* \"#utility.yul\":29858:29870   */\n      revert\n        /* \"#utility.yul\":29809:29811   */\n    tag_558:\n        /* \"#utility.yul\":29799:29878   */\n      pop\n      jump\t// out\n\n    auxdata: 0xa2646970667358221220ea5c67ff4f1550b3a9a2af4242a21891c48d571834b8d1edf86938fcafa2255564736f6c63430008020033\n}\n","bytecode":{"linkReferences":{},"object":"608060405234801561001057600080fd5b5060018081905550336000806101000a81548173ffffffffffffffffffffffffffffffffffffffff021916908373ffffffffffffffffffffffffffffffffffffffff1602179055506003600460008060009054906101000a900473ffffffffffffffffffffffffffffffffffffffff1673ffffffffffffffffffffffffffffffffffffffff1673ffffffffffffffffffffffffffffffffffffffff168152602001908152602001600020819055506001600560008060009054906101000a900473ffffffffffffffffffffffffffffffffffffffff1673ffffffffffffffffffffffffffffffffffffffff1673ffffffffffffffffffffffffffffffffffffffff16815260200190815260200160002060006101000a81548160ff0219169083151502179055506133b1806101466000396000f3fe608060405234801561001057600080fd5b506004361061012c5760003560e01c80639935c963116100ad578063e35fe36611610071578063e35fe366146103df578063e9b66f8c1461040f578063ec0cfd0b1461043f578063eeb294e21461045f578063f7b108081461048f5761012c565b80639935c963146102ef5780639c4ea46a1461031f578063a87430ba1461034f578063be1d04411461037f578063c1d5e84f146103af5761012c565b80634902e4aa116100f45780634902e4aa146102115780634c82d0e4146102415780637b855bf0146102715780638709b2e71461028f57806389b3887e146102bf5761012c565b80630a1b10e114610131578063126dbe431461016157806327983fcf1461019357806332282f8e146101c3578063422fd14e146101f3575b600080fd5b61014b6004803603810190610146919061246c565b6104c1565b60405161015891906129ed565b60405180910390f35b61017b60048036038101906101769190612495565b6106ed565b60405161018a93929190612a08565b60405180910390f35b6101ad60048036038101906101a89190612495565b610771565b6040516101ba91906129ed565b60405180910390f35b6101dd60048036038101906101d8919061246c565b61095d565b6040516101ea91906129ed565b60405180910390f35b6101fb610b1a565b6040516102089190612c9a565b60405180910390f35b61022b6004803603810190610226919061246c565b610b20565b60405161023891906129ed565b60405180910390f35b61025b6004803603810190610256919061246c565b610e32565b60405161026891906129ed565b60405180910390f35b610279611069565b6040516102869190612986565b60405180910390f35b6102a960048036038101906102a491906124fa565b61108d565b6040516102b691906129ed565b60405180910390f35b6102d960048036038101906102d491906124be565b6111fc565b6040516102e691906129ed565b60405180910390f35b610309600480360381019061030491906124be565b6114d5565b6040516103169190612c9a565b60405180910390f35b61033960048036038101906103349190612495565b61178f565b6040516103469190612986565b60405180910390f35b6103696004803603810190610364919061246c565b6117c2565b6040516103769190612a3f565b60405180910390f35b6103996004803603810190610394919061246c565b6117da565b6040516103a691906129ed565b60405180910390f35b6103c960048036038101906103c4919061246c565b611a5f565b6040516103d691906129ed565b60405180910390f35b6103f960048036038101906103f4919061246c565b611c09565b60405161040691906129ed565b60405180910390f35b61042960048036038101906104249190612495565b611c29565b60405161043691906129ed565b60405180910390f35b610447611e14565b604051610456939291906129a1565b60405180910390f35b61047960048036038101906104749190612495565b61218b565b60405161048691906129ed565b60405180910390f35b6104a960048036038101906104a49190612495565b6123eb565b6040516104b893929190612a08565b60405180910390f35b60006003600460003373ffffffffffffffffffffffffffffffffffffffff1673ffffffffffffffffffffffffffffffffffffffff1681526020019081526020016000205414801561055b5750600560003373ffffffffffffffffffffffffffffffffffffffff1673ffffffffffffffffffffffffffffffffffffffff16815260200190815260200160002060009054906101000a900460ff165b61059a576040517f08c379a000000000000000000000000000000000000000000000000000000000815260040161059190612a9a565b60405180910390fd5b6003600460008473ffffffffffffffffffffffffffffffffffffffff1673ffffffffffffffffffffffffffffffffffffffff16815260200190815260200160002054141561061d576040517f08c379a000000000000000000000000000000000000000000000000000000000815260040161061490612b5a565b60405180910390fd5b6002600460008473ffffffffffffffffffffffffffffffffffffffff1673ffffffffffffffffffffffffffffffffffffffff168152602001908152602001600020541261069f576040517f08c379a000000000000000000000000000000000000000000000000000000000815260040161069690612c5a565b60405180910390fd5b6002600460008473ffffffffffffffffffffffffffffffffffffffff1673ffffffffffffffffffffffffffffffffffffffff1681526020019081526020016000208190555060019050919050565b60008060006002600085815260200190815260200160002060000160009054906101000a900460ff1660026000868152602001908152602001600020600101546002600087815260200190815260200160002060020160009054906101000a900473ffffffffffffffffffffffffffffffffffffffff169250925092509193909250565b60006003600460003373ffffffffffffffffffffffffffffffffffffffff1673ffffffffffffffffffffffffffffffffffffffff1681526020019081526020016000205414801561080b5750600560003373ffffffffffffffffffffffffffffffffffffffff1673ffffffffffffffffffffffffffffffffffffffff16815260200190815260200160002060009054906101000a900460ff165b61084a576040517f08c379a000000000000000000000000000000000000000000000000000000000815260040161084190612a9a565b60405180910390fd5b3373ffffffffffffffffffffffffffffffffffffffff166002600084815260200190815260200160002060020160009054906101000a900473ffffffffffffffffffffffffffffffffffffffff1673ffffffffffffffffffffffffffffffffffffffff1614156108ef576040517f08c379a00000000000000000000000000000000000000000000000000000000081526004016108e690612bfa565b60405180910390fd5b60036002600084815260200190815260200160002060000160006101000a81548160ff0219169083600381111561094f577f4e487b7100000000000000000000000000000000000000000000000000000000600052602160045260246000fd5b021790555060019050919050565b60006003600460003373ffffffffffffffffffffffffffffffffffffffff1673ffffffffffffffffffffffffffffffffffffffff168152602001908152602001600020541480156109f75750600560003373ffffffffffffffffffffffffffffffffffffffff1673ffffffffffffffffffffffffffffffffffffffff16815260200190815260200160002060009054906101000a900460ff165b610a36576040517f08c379a0000000000000000000000000000000000000000000000000000000008152600401610a2d90612a9a565b60405180910390fd5b6000600460008473ffffffffffffffffffffffffffffffffffffffff1673ffffffffffffffffffffffffffffffffffffffff168152602001908152602001600020541415610ab9576040517f08c379a0000000000000000000000000000000000000000000000000000000008152600401610ab090612b7a565b60405180910390fd5b6001600560008473ffffffffffffffffffffffffffffffffffffffff1673ffffffffffffffffffffffffffffffffffffffff16815260200190815260200160002060006101000a81548160ff02191690831515021790555060019050919050565b60015481565b60006003600460003373ffffffffffffffffffffffffffffffffffffffff1673ffffffffffffffffffffffffffffffffffffffff16815260200190815260200160002054148015610bba5750600560003373ffffffffffffffffffffffffffffffffffffffff1673ffffffffffffffffffffffffffffffffffffffff16815260200190815260200160002060009054906101000a900460ff165b610bf9576040517f08c379a0000000000000000000000000000000000000000000000000000000008152600401610bf090612a9a565b60405180910390fd5b3373ffffffffffffffffffffffffffffffffffffffff1660008054906101000a900473ffffffffffffffffffffffffffffffffffffffff1673ffffffffffffffffffffffffffffffffffffffff1614610c87576040517f08c379a0000000000000000000000000000000000000000000000000000000008152600401610c7e90612c7a565b60405180910390fd5b6003600460008473ffffffffffffffffffffffffffffffffffffffff1673ffffffffffffffffffffffffffffffffffffffff1681526020019081526020016000205414610d09576040517f08c379a0000000000000000000000000000000000000000000000000000000008152600401610d0090612bba565b60405180910390fd5b6000600460008473ffffffffffffffffffffffffffffffffffffffff1673ffffffffffffffffffffffffffffffffffffffff168152602001908152602001600020541415610d8c576040517f08c379a0000000000000000000000000000000000000000000000000000000008152600401610d8390612b1a565b60405180910390fd5b6000600460008473ffffffffffffffffffffffffffffffffffffffff1673ffffffffffffffffffffffffffffffffffffffff168152602001908152602001600020819055506000600560008473ffffffffffffffffffffffffffffffffffffffff1673ffffffffffffffffffffffffffffffffffffffff16815260200190815260200160002060006101000a81548160ff02191690831515021790555060019050919050565b60006003600460003373ffffffffffffffffffffffffffffffffffffffff1673ffffffffffffffffffffffffffffffffffffffff16815260200190815260200160002054148015610ecc5750600560003373ffffffffffffffffffffffffffffffffffffffff1673ffffffffffffffffffffffffffffffffffffffff16815260200190815260200160002060009054906101000a900460ff165b610f0b576040517f08c379a0000000000000000000000000000000000000000000000000000000008152600401610f0290612a9a565b60405180910390fd5b3373ffffffffffffffffffffffffffffffffffffffff1660008054906101000a900473ffffffffffffffffffffffffffffffffffffffff1673ffffffffffffffffffffffffffffffffffffffff1614610f99576040517f08c379a0000000000000000000000000000000000000000000000000000000008152600401610f9090612c7a565b60405180910390fd5b6003600460008473ffffffffffffffffffffffffffffffffffffffff1673ffffffffffffffffffffffffffffffffffffffff168152602001908152602001600020541261101b576040517f08c379a000000000000000000000000000000000000000000000000000000000815260040161101290612c3a565b60405180910390fd5b6003600460008473ffffffffffffffffffffffffffffffffffffffff1673ffffffffffffffffffffffffffffffffffffffff1681526020019081526020016000208190555060019050919050565b60008054906101000a900473ffffffffffffffffffffffffffffffffffffffff1681565b6000823373ffffffffffffffffffffffffffffffffffffffff166002600083815260200190815260200160002060020160009054906101000a900473ffffffffffffffffffffffffffffffffffffffff1673ffffffffffffffffffffffffffffffffffffffff1614611134576040517f08c379a000000000000000000000000000000000000000000000000000000000815260040161112b90612b3a565b60405180910390fd5b600073ffffffffffffffffffffffffffffffffffffffff166003600086815260200190815260200160002060009054906101000a900473ffffffffffffffffffffffffffffffffffffffff1673ffffffffffffffffffffffffffffffffffffffff16146111d6576040517f08c379a00000000000000000000000000000000000000000000000000000000081526004016111cd90612ada565b60405180910390fd5b826002600086815260200190815260200160002060010181905550600191505092915050565b6000823373ffffffffffffffffffffffffffffffffffffffff166002600083815260200190815260200160002060020160009054906101000a900473ffffffffffffffffffffffffffffffffffffffff1673ffffffffffffffffffffffffffffffffffffffff16146112a3576040517f08c379a000000000000000000000000000000000000000000000000000000000815260040161129a90612b3a565b60405180910390fd5b82600560008273ffffffffffffffffffffffffffffffffffffffff1673ffffffffffffffffffffffffffffffffffffffff16815260200190815260200160002060009054906101000a900460ff16611330576040517f08c379a000000000000000000000000000000000000000000000000000000000815260040161132790612c1a565b60405180910390fd5b8373ffffffffffffffffffffffffffffffffffffffff166002600087815260200190815260200160002060020160009054906101000a900473ffffffffffffffffffffffffffffffffffffffff1673ffffffffffffffffffffffffffffffffffffffff1614156113d5576040517f08c379a00000000000000000000000000000000000000000000000000000000081526004016113cc90612bda565b60405180910390fd5b600073ffffffffffffffffffffffffffffffffffffffff166003600087815260200190815260200160002060009054906101000a900473ffffffffffffffffffffffffffffffffffffffff1673ffffffffffffffffffffffffffffffffffffffff1614611477576040517f08c379a000000000000000000000000000000000000000000000000000000000815260040161146e90612b9a565b60405180910390fd5b836003600087815260200190815260200160002060006101000a81548173ffffffffffffffffffffffffffffffffffffffff021916908373ffffffffffffffffffffffffffffffffffffffff16021790555060019250505092915050565b60006002600460003373ffffffffffffffffffffffffffffffffffffffff1673ffffffffffffffffffffffffffffffffffffffff16815260200190815260200160002054121580156115705750600560003373ffffffffffffffffffffffffffffffffffffffff1673ffffffffffffffffffffffffffffffffffffffff16815260200190815260200160002060009054906101000a900460ff165b6115af576040517f08c379a00000000000000000000000000000000000000000000000000000000081526004016115a690612aba565b60405180910390fd5b81600560008273ffffffffffffffffffffffffffffffffffffffff1673ffffffffffffffffffffffffffffffffffffffff16815260200190815260200160002060009054906101000a900460ff1661163c576040517f08c379a000000000000000000000000000000000000000000000000000000000815260040161163390612c1a565b60405180910390fd5b604051806060016040528060016003811115611681577f4e487b7100000000000000000000000000000000000000000000000000000000600052602160045260246000fd5b81526020018581526020018473ffffffffffffffffffffffffffffffffffffffff1681525060026000600154815260200190815260200160002060008201518160000160006101000a81548160ff0219169083600381111561170c577f4e487b7100000000000000000000000000000000000000000000000000000000600052602160045260246000fd5b02179055506020820151816001015560408201518160020160006101000a81548173ffffffffffffffffffffffffffffffffffffffff021916908373ffffffffffffffffffffffffffffffffffffffff160217905550905050600060015490506001600081548092919061177f90612de8565b9190505550809250505092915050565b60036020528060005260406000206000915054906101000a900473ffffffffffffffffffffffffffffffffffffffff1681565b60046020528060005260406000206000915090505481565b60006003600460003373ffffffffffffffffffffffffffffffffffffffff1673ffffffffffffffffffffffffffffffffffffffff168152602001908152602001600020541480156118745750600560003373ffffffffffffffffffffffffffffffffffffffff1673ffffffffffffffffffffffffffffffffffffffff16815260200190815260200160002060009054906101000a900460ff165b6118b3576040517f08c379a00000000000000000000000000000000000000000000000000000000081526004016118aa90612a9a565b60405180910390fd5b6003600460008473ffffffffffffffffffffffffffffffffffffffff1673ffffffffffffffffffffffffffffffffffffffff168152602001908152602001600020541415611936576040517f08c379a000000000000000000000000000000000000000000000000000000000815260040161192d90612b5a565b60405180910390fd5b6000600460008473ffffffffffffffffffffffffffffffffffffffff1673ffffffffffffffffffffffffffffffffffffffff1681526020019081526020016000205414156119b9576040517f08c379a00000000000000000000000000000000000000000000000000000000081526004016119b090612b1a565b60405180910390fd5b6000600460008473ffffffffffffffffffffffffffffffffffffffff1673ffffffffffffffffffffffffffffffffffffffff168152602001908152602001600020819055506000600560008473ffffffffffffffffffffffffffffffffffffffff1673ffffffffffffffffffffffffffffffffffffffff16815260200190815260200160002060006101000a81548160ff02191690831515021790555060019050919050565b60006002600460003373ffffffffffffffffffffffffffffffffffffffff1673ffffffffffffffffffffffffffffffffffffffff1681526020019081526020016000205412158015611afa5750600560003373ffffffffffffffffffffffffffffffffffffffff1673ffffffffffffffffffffffffffffffffffffffff16815260200190815260200160002060009054906101000a900460ff165b611b39576040517f08c379a0000000000000000000000000000000000000000000000000000000008152600401611b3090612aba565b60405180910390fd5b6000600460008473ffffffffffffffffffffffffffffffffffffffff1673ffffffffffffffffffffffffffffffffffffffff1681526020019081526020016000205414611bbb576040517f08c379a0000000000000000000000000000000000000000000000000000000008152600401611bb290612a5a565b60405180910390fd5b6001600460008473ffffffffffffffffffffffffffffffffffffffff1673ffffffffffffffffffffffffffffffffffffffff1681526020019081526020016000208190555060019050919050565b60056020528060005260406000206000915054906101000a900460ff1681565b60006003600460003373ffffffffffffffffffffffffffffffffffffffff1673ffffffffffffffffffffffffffffffffffffffff16815260200190815260200160002054148015611cc35750600560003373ffffffffffffffffffffffffffffffffffffffff1673ffffffffffffffffffffffffffffffffffffffff16815260200190815260200160002060009054906101000a900460ff165b611d02576040517f08c379a0000000000000000000000000000000000000000000000000000000008152600401611cf990612a9a565b60405180910390fd5b3373ffffffffffffffffffffffffffffffffffffffff166002600084815260200190815260200160002060020160009054906101000a900473ffffffffffffffffffffffffffffffffffffffff1673ffffffffffffffffffffffffffffffffffffffff161415611da7576040517f08c379a0000000000000000000000000000000000000000000000000000000008152600401611d9e90612a7a565b60405180910390fd5b600280600084815260200190815260200160002060000160006101000a81548160ff02191690836003811115611e06577f4e487b7100000000000000000000000000000000000000000000000000000000600052602160045260246000fd5b021790555060019050919050565b6060806060600060015467ffffffffffffffff811115611e5d577f4e487b7100000000000000000000000000000000000000000000000000000000600052604160045260246000fd5b604051908082528060200260200182016040528015611e8b5781602001602082028036833780820191505090505b509050600060015467ffffffffffffffff811115611ed2577f4e487b7100000000000000000000000000000000000000000000000000000000600052604160045260246000fd5b604051908082528060200260200182016040528015611f005781602001602082028036833780820191505090505b509050600060015467ffffffffffffffff811115611f47577f4e487b7100000000000000000000000000000000000000000000000000000000600052604160045260246000fd5b604051908082528060200260200182016040528015611f755781602001602082028036833780820191505090505b50905060005b600154811015612179576002600082815260200190815260200160002060000160009054906101000a900460ff16848281518110611fe2577f4e487b7100000000000000000000000000000000000000000000000000000000600052603260045260246000fd5b60200260200101906003811115612022577f4e487b7100000000000000000000000000000000000000000000000000000000600052602160045260246000fd5b9081600381111561205c577f4e487b7100000000000000000000000000000000000000000000000000000000600052602160045260246000fd5b8152505060026000828152602001908152602001600020600101548382815181106120b0577f4e487b7100000000000000000000000000000000000000000000000000000000600052603260045260246000fd5b6020026020010181815250506002600082815260200190815260200160002060020160009054906101000a900473ffffffffffffffffffffffffffffffffffffffff1682828151811061212c577f4e487b7100000000000000000000000000000000000000000000000000000000600052603260045260246000fd5b602002602001019073ffffffffffffffffffffffffffffffffffffffff16908173ffffffffffffffffffffffffffffffffffffffff1681525050808061217190612de8565b915050611f7b565b50828282955095509550505050909192565b60006003600460003373ffffffffffffffffffffffffffffffffffffffff1673ffffffffffffffffffffffffffffffffffffffff168152602001908152602001600020541480156122255750600560003373ffffffffffffffffffffffffffffffffffffffff1673ffffffffffffffffffffffffffffffffffffffff16815260200190815260200160002060009054906101000a900460ff165b612264576040517f08c379a000000000000000000000000000000000000000000000000000000000815260040161225b90612a9a565b60405180910390fd5b600073ffffffffffffffffffffffffffffffffffffffff166003600084815260200190815260200160002060009054906101000a900473ffffffffffffffffffffffffffffffffffffffff1673ffffffffffffffffffffffffffffffffffffffff161415612307576040517f08c379a00000000000000000000000000000000000000000000000000000000081526004016122fe90612afa565b60405180910390fd5b6003600083815260200190815260200160002060009054906101000a900473ffffffffffffffffffffffffffffffffffffffff166002600084815260200190815260200160002060020160006101000a81548173ffffffffffffffffffffffffffffffffffffffff021916908373ffffffffffffffffffffffffffffffffffffffff16021790555060006003600084815260200190815260200160002060006101000a81548173ffffffffffffffffffffffffffffffffffffffff021916908373ffffffffffffffffffffffffffffffffffffffff16021790555060019050919050565b60026020528060005260406000206000915090508060000160009054906101000a900460ff16908060010154908060020160009054906101000a900473ffffffffffffffffffffffffffffffffffffffff16905083565b6000813590506124518161334d565b92915050565b60008135905061246681613364565b92915050565b60006020828403121561247e57600080fd5b600061248c84828501612442565b91505092915050565b6000602082840312156124a757600080fd5b60006124b584828501612457565b91505092915050565b600080604083850312156124d157600080fd5b60006124df85828601612457565b92505060206124f085828601612442565b9150509250929050565b6000806040838503121561250d57600080fd5b600061251b85828601612457565b925050602061252c85828601612457565b9150509250929050565b6000612542838361257e565b60208301905092915050565b600061255a83836126c5565b60208301905092915050565b60006125728383612968565b60208301905092915050565b61258781612d71565b82525050565b61259681612d71565b82525050565b60006125a782612ce5565b6125b18185612d2d565b93506125bc83612cb5565b8060005b838110156125ed5781516125d48882612536565b97506125df83612d06565b9250506001810190506125c0565b5085935050505092915050565b600061260582612cf0565b61260f8185612d4f565b935061261a83612cc5565b8060005b8381101561264b578151612632888261254e565b975061263d83612d13565b92505060018101905061261e565b5085935050505092915050565b600061266382612cfb565b61266d8185612d3e565b935061267883612cd5565b8060005b838110156126a95781516126908882612566565b975061269b83612d20565b92505060018101905061267c565b5085935050505092915050565b6126bf81612d83565b82525050565b6126ce81612dd6565b82525050565b6126dd81612dd6565b82525050565b6126ec81612da2565b82525050565b60006126ff601483612d60565b915061270a82612e8f565b602082019050919050565b6000612722603183612d60565b915061272d82612eb8565b604082019050919050565b6000612745603483612d60565b915061275082612f07565b604082019050919050565b6000612768603a83612d60565b915061277382612f56565b604082019050919050565b600061278b603883612d60565b915061279682612fa5565b604082019050919050565b60006127ae603983612d60565b91506127b982612ff4565b604082019050919050565b60006127d1601383612d60565b91506127dc82613043565b602082019050919050565b60006127f4602e83612d60565b91506127ff8261306c565b604082019050919050565b6000612817601683612d60565b9150612822826130bb565b602082019050919050565b600061283a602483612d60565b9150612845826130e4565b604082019050919050565b600061285d604083612d60565b915061286882613133565b604082019050919050565b6000612880601a83612d60565b915061288b82613182565b602082019050919050565b60006128a3603d83612d60565b91506128ae826131ab565b604082019050919050565b60006128c6603083612d60565b91506128d1826131fa565b604082019050919050565b60006128e9601e83612d60565b91506128f482613249565b602082019050919050565b600061290c602a83612d60565b915061291782613272565b604082019050919050565b600061292f601983612d60565b915061293a826132c1565b602082019050919050565b6000612952603683612d60565b915061295d826132ea565b604082019050919050565b61297181612dcc565b82525050565b61298081612dcc565b82525050565b600060208201905061299b600083018461258d565b92915050565b600060608201905081810360008301526129bb81866125fa565b905081810360208301526129cf8185612658565b905081810360408301526129e3818461259c565b9050949350505050565b6000602082019050612a0260008301846126b6565b92915050565b6000606082019050612a1d60008301866126d4565b612a2a6020830185612977565b612a37604083018461258d565b949350505050565b6000602082019050612a5460008301846126e3565b92915050565b60006020820190508181036000830152612a73816126f2565b9050919050565b60006020820190508181036000830152612a9381612715565b9050919050565b60006020820190508181036000830152612ab381612738565b9050919050565b60006020820190508181036000830152612ad38161275b565b9050919050565b60006020820190508181036000830152612af38161277e565b9050919050565b60006020820190508181036000830152612b13816127a1565b9050919050565b60006020820190508181036000830152612b33816127c4565b9050919050565b60006020820190508181036000830152612b53816127e7565b9050919050565b60006020820190508181036000830152612b738161280a565b9050919050565b60006020820190508181036000830152612b938161282d565b9050919050565b60006020820190508181036000830152612bb381612850565b9050919050565b60006020820190508181036000830152612bd381612873565b9050919050565b60006020820190508181036000830152612bf381612896565b9050919050565b60006020820190508181036000830152612c13816128b9565b9050919050565b60006020820190508181036000830152612c33816128dc565b9050919050565b60006020820190508181036000830152612c53816128ff565b9050919050565b60006020820190508181036000830152612c7381612922565b9050919050565b60006020820190508181036000830152612c9381612945565b9050919050565b6000602082019050612caf6000830184612977565b92915050565b6000819050602082019050919050565b6000819050602082019050919050565b6000819050602082019050919050565b600081519050919050565b600081519050919050565b600081519050919050565b6000602082019050919050565b6000602082019050919050565b6000602082019050919050565b600082825260208201905092915050565b600082825260208201905092915050565b600082825260208201905092915050565b600082825260208201905092915050565b6000612d7c82612dac565b9050919050565b60008115159050919050565b6000819050612d9d82613339565b919050565b6000819050919050565b600073ffffffffffffffffffffffffffffffffffffffff82169050919050565b6000819050919050565b6000612de182612d8f565b9050919050565b6000612df382612dcc565b91507fffffffffffffffffffffffffffffffffffffffffffffffffffffffffffffffff821415612e2657612e25612e31565b5b600182019050919050565b7f4e487b7100000000000000000000000000000000000000000000000000000000600052601160045260246000fd5b7f4e487b7100000000000000000000000000000000000000000000000000000000600052602160045260246000fd5b7f557365722065786973747320616c726561647921000000000000000000000000600082015250565b7f4f776e6572206f6620612070726f7065727479206973206e6f7420616c6c6f7760008201527f656420746f20617070726f766520697421000000000000000000000000000000602082015250565b7f53757065722041646d696e20697320617574686f72697a656420666f7220746860008201527f6973207472616e73616374696f6e206f6e6c7921000000000000000000000000602082015250565b7f53757065722041646d696e20616e642041646d696e2061726520617574686f7260008201527f697a656420666f722074686973207472616e73616374696f6e21000000000000602082015250565b7f546869732070726f70657274792068617320612070656e64696e67206368616e60008201527f6765206f66206f776e6572736869702072657175657374210000000000000000602082015250565b7f41206368616e6765206f66206f776e657273686970206973206e6f742072657160008201527f75657374656420666f7220746869732070726f70657274792100000000000000602082015250565b7f5573657220646f65736e27742065786973742100000000000000000000000000600082015250565b7f4f776e657220697320617574686f72697a656420666f7220746869732074726160008201527f6e73616374696f6e206f6e6c7921000000000000000000000000000000000000602082015250565b7f5573657220697320612053757065722041646d696e2100000000000000000000600082015250565b7f412072657175657374206973206e6f74206d61646520666f722074686973207560008201527f7365722100000000000000000000000000000000000000000000000000000000602082015250565b7f546869732070726f706572747920616c72656164792068617320612070656e6460008201527f696e67206368616e6765206f66206f776e657273686970207265717565737421602082015250565b7f55736572206973206e6f7420612053757065722041646d696e21000000000000600082015250565b7f4e6577206f776e657227732061646472657373206d757374206469666665722060008201527f66726f6d2063757272656e74206f776e65722773206164647265737321000000602082015250565b7f4f776e6572206f6620612070726f7065727479206973206e6f7420616c6c6f7760008201527f656420746f2072656a6563742069742100000000000000000000000000000000602082015250565b7f4f776e6572206d75737420626520612076657269666965642075736572210000600082015250565b7f5573657220697320617574686f72697a65642061732053757065722041646d6960008201527f6e20616c72656164792100000000000000000000000000000000000000000000602082015250565b7f5573657220697320616e2041646d696e20616c72656164792100000000000000600082015250565b7f43726561746f722041646d696e20697320617574686f72697a656420666f722060008201527f74686973207472616e73616374696f6e206f6e6c792100000000000000000000602082015250565b6004811061334a57613349612e60565b5b50565b61335681612d71565b811461336157600080fd5b50565b61336d81612dcc565b811461337857600080fd5b5056fea2646970667358221220ea5c67ff4f1550b3a9a2af4242a21891c48d571834b8d1edf86938fcafa2255564736f6c63430008020033","opcodes":"PUSH1 0x80 PUSH1 0x40 MSTORE CALLVALUE DUP1 ISZERO PUSH2 0x10 JUMPI PUSH1 0x0 DUP1 REVERT JUMPDEST POP PUSH1 0x1 DUP1 DUP2 SWAP1 SSTORE POP CALLER PUSH1 0x0 DUP1 PUSH2 0x100 EXP DUP2 SLOAD DUP2 PUSH20 0xFFFFFFFFFFFFFFFFFFFFFFFFFFFFFFFFFFFFFFFF MUL NOT AND SWAP1 DUP4 PUSH20 0xFFFFFFFFFFFFFFFFFFFFFFFFFFFFFFFFFFFFFFFF AND MUL OR SWAP1 SSTORE POP PUSH1 0x3 PUSH1 0x4 PUSH1 0x0 DUP1 PUSH1 0x0 SWAP1 SLOAD SWAP1 PUSH2 0x100 EXP SWAP1 DIV PUSH20 0xFFFFFFFFFFFFFFFFFFFFFFFFFFFFFFFFFFFFFFFF AND PUSH20 0xFFFFFFFFFFFFFFFFFFFFFFFFFFFFFFFFFFFFFFFF AND PUSH20 0xFFFFFFFFFFFFFFFFFFFFFFFFFFFFFFFFFFFFFFFF AND DUP2 MSTORE PUSH1 0x20 ADD SWAP1 DUP2 MSTORE PUSH1 0x20 ADD PUSH1 0x0 KECCAK256 DUP2 SWAP1 SSTORE POP PUSH1 0x1 PUSH1 0x5 PUSH1 0x0 DUP1 PUSH1 0x0 SWAP1 SLOAD SWAP1 PUSH2 0x100 EXP SWAP1 DIV PUSH20 0xFFFFFFFFFFFFFFFFFFFFFFFFFFFFFFFFFFFFFFFF AND PUSH20 0xFFFFFFFFFFFFFFFFFFFFFFFFFFFFFFFFFFFFFFFF AND PUSH20 0xFFFFFFFFFFFFFFFFFFFFFFFFFFFFFFFFFFFFFFFF AND DUP2 MSTORE PUSH1 0x20 ADD SWAP1 DUP2 MSTORE PUSH1 0x20 ADD PUSH1 0x0 KECCAK256 PUSH1 0x0 PUSH2 0x100 EXP DUP2 SLOAD DUP2 PUSH1 0xFF MUL NOT AND SWAP1 DUP4 ISZERO ISZERO MUL OR SWAP1 SSTORE POP PUSH2 0x33B1 DUP1 PUSH2 0x146 PUSH1 0x0 CODECOPY PUSH1 0x0 RETURN INVALID PUSH1 0x80 PUSH1 0x40 MSTORE CALLVALUE DUP1 ISZERO PUSH2 0x10 JUMPI PUSH1 0x0 DUP1 REVERT JUMPDEST POP PUSH1 0x4 CALLDATASIZE LT PUSH2 0x12C JUMPI PUSH1 0x0 CALLDATALOAD PUSH1 0xE0 SHR DUP1 PUSH4 0x9935C963 GT PUSH2 0xAD JUMPI DUP1 PUSH4 0xE35FE366 GT PUSH2 0x71 JUMPI DUP1 PUSH4 0xE35FE366 EQ PUSH2 0x3DF JUMPI DUP1 PUSH4 0xE9B66F8C EQ PUSH2 0x40F JUMPI DUP1 PUSH4 0xEC0CFD0B EQ PUSH2 0x43F JUMPI DUP1 PUSH4 0xEEB294E2 EQ PUSH2 0x45F JUMPI DUP1 PUSH4 0xF7B10808 EQ PUSH2 0x48F JUMPI PUSH2 0x12C JUMP JUMPDEST DUP1 PUSH4 0x9935C963 EQ PUSH2 0x2EF JUMPI DUP1 PUSH4 0x9C4EA46A EQ PUSH2 0x31F JUMPI DUP1 PUSH4 0xA87430BA EQ PUSH2 0x34F JUMPI DUP1 PUSH4 0xBE1D0441 EQ PUSH2 0x37F JUMPI DUP1 PUSH4 0xC1D5E84F EQ PUSH2 0x3AF JUMPI PUSH2 0x12C JUMP JUMPDEST DUP1 PUSH4 0x4902E4AA GT PUSH2 0xF4 JUMPI DUP1 PUSH4 0x4902E4AA EQ PUSH2 0x211 JUMPI DUP1 PUSH4 0x4C82D0E4 EQ PUSH2 0x241 JUMPI DUP1 PUSH4 0x7B855BF0 EQ PUSH2 0x271 JUMPI DUP1 PUSH4 0x8709B2E7 EQ PUSH2 0x28F JUMPI DUP1 PUSH4 0x89B3887E EQ PUSH2 0x2BF JUMPI PUSH2 0x12C JUMP JUMPDEST DUP1 PUSH4 0xA1B10E1 EQ PUSH2 0x131 JUMPI DUP1 PUSH4 0x126DBE43 EQ PUSH2 0x161 JUMPI DUP1 PUSH4 0x27983FCF EQ PUSH2 0x193 JUMPI DUP1 PUSH4 0x32282F8E EQ PUSH2 0x1C3 JUMPI DUP1 PUSH4 0x422FD14E EQ PUSH2 0x1F3 JUMPI JUMPDEST PUSH1 0x0 DUP1 REVERT JUMPDEST PUSH2 0x14B PUSH1 0x4 DUP1 CALLDATASIZE SUB DUP2 ADD SWAP1 PUSH2 0x146 SWAP2 SWAP1 PUSH2 0x246C JUMP JUMPDEST PUSH2 0x4C1 JUMP JUMPDEST PUSH1 0x40 MLOAD PUSH2 0x158 SWAP2 SWAP1 PUSH2 0x29ED JUMP JUMPDEST PUSH1 0x40 MLOAD DUP1 SWAP2 SUB SWAP1 RETURN JUMPDEST PUSH2 0x17B PUSH1 0x4 DUP1 CALLDATASIZE SUB DUP2 ADD SWAP1 PUSH2 0x176 SWAP2 SWAP1 PUSH2 0x2495 JUMP JUMPDEST PUSH2 0x6ED JUMP JUMPDEST PUSH1 0x40 MLOAD PUSH2 0x18A SWAP4 SWAP3 SWAP2 SWAP1 PUSH2 0x2A08 JUMP JUMPDEST PUSH1 0x40 MLOAD DUP1 SWAP2 SUB SWAP1 RETURN JUMPDEST PUSH2 0x1AD PUSH1 0x4 DUP1 CALLDATASIZE SUB DUP2 ADD SWAP1 PUSH2 0x1A8 SWAP2 SWAP1 PUSH2 0x2495 JUMP JUMPDEST PUSH2 0x771 JUMP JUMPDEST PUSH1 0x40 MLOAD PUSH2 0x1BA SWAP2 SWAP1 PUSH2 0x29ED JUMP JUMPDEST PUSH1 0x40 MLOAD DUP1 SWAP2 SUB SWAP1 RETURN JUMPDEST PUSH2 0x1DD PUSH1 0x4 DUP1 CALLDATASIZE SUB DUP2 ADD SWAP1 PUSH2 0x1D8 SWAP2 SWAP1 PUSH2 0x246C JUMP JUMPDEST PUSH2 0x95D JUMP JUMPDEST PUSH1 0x40 MLOAD PUSH2 0x1EA SWAP2 SWAP1 PUSH2 0x29ED JUMP JUMPDEST PUSH1 0x40 MLOAD DUP1 SWAP2 SUB SWAP1 RETURN JUMPDEST PUSH2 0x1FB PUSH2 0xB1A JUMP JUMPDEST PUSH1 0x40 MLOAD PUSH2 0x208 SWAP2 SWAP1 PUSH2 0x2C9A JUMP JUMPDEST PUSH1 0x40 MLOAD DUP1 SWAP2 SUB SWAP1 RETURN JUMPDEST PUSH2 0x22B PUSH1 0x4 DUP1 CALLDATASIZE SUB DUP2 ADD SWAP1 PUSH2 0x226 SWAP2 SWAP1 PUSH2 0x246C JUMP JUMPDEST PUSH2 0xB20 JUMP JUMPDEST PUSH1 0x40 MLOAD PUSH2 0x238 SWAP2 SWAP1 PUSH2 0x29ED JUMP JUMPDEST PUSH1 0x40 MLOAD DUP1 SWAP2 SUB SWAP1 RETURN JUMPDEST PUSH2 0x25B PUSH1 0x4 DUP1 CALLDATASIZE SUB DUP2 ADD SWAP1 PUSH2 0x256 SWAP2 SWAP1 PUSH2 0x246C JUMP JUMPDEST PUSH2 0xE32 JUMP JUMPDEST PUSH1 0x40 MLOAD PUSH2 0x268 SWAP2 SWAP1 PUSH2 0x29ED JUMP JUMPDEST PUSH1 0x40 MLOAD DUP1 SWAP2 SUB SWAP1 RETURN JUMPDEST PUSH2 0x279 PUSH2 0x1069 JUMP JUMPDEST PUSH1 0x40 MLOAD PUSH2 0x286 SWAP2 SWAP1 PUSH2 0x2986 JUMP JUMPDEST PUSH1 0x40 MLOAD DUP1 SWAP2 SUB SWAP1 RETURN JUMPDEST PUSH2 0x2A9 PUSH1 0x4 DUP1 CALLDATASIZE SUB DUP2 ADD SWAP1 PUSH2 0x2A4 SWAP2 SWAP1 PUSH2 0x24FA JUMP JUMPDEST PUSH2 0x108D JUMP JUMPDEST PUSH1 0x40 MLOAD PUSH2 0x2B6 SWAP2 SWAP1 PUSH2 0x29ED JUMP JUMPDEST PUSH1 0x40 MLOAD DUP1 SWAP2 SUB SWAP1 RETURN JUMPDEST PUSH2 0x2D9 PUSH1 0x4 DUP1 CALLDATASIZE SUB DUP2 ADD SWAP1 PUSH2 0x2D4 SWAP2 SWAP1 PUSH2 0x24BE JUMP JUMPDEST PUSH2 0x11FC JUMP JUMPDEST PUSH1 0x40 MLOAD PUSH2 0x2E6 SWAP2 SWAP1 PUSH2 0x29ED JUMP JUMPDEST PUSH1 0x40 MLOAD DUP1 SWAP2 SUB SWAP1 RETURN JUMPDEST PUSH2 0x309 PUSH1 0x4 DUP1 CALLDATASIZE SUB DUP2 ADD SWAP1 PUSH2 0x304 SWAP2 SWAP1 PUSH2 0x24BE JUMP JUMPDEST PUSH2 0x14D5 JUMP JUMPDEST PUSH1 0x40 MLOAD PUSH2 0x316 SWAP2 SWAP1 PUSH2 0x2C9A JUMP JUMPDEST PUSH1 0x40 MLOAD DUP1 SWAP2 SUB SWAP1 RETURN JUMPDEST PUSH2 0x339 PUSH1 0x4 DUP1 CALLDATASIZE SUB DUP2 ADD SWAP1 PUSH2 0x334 SWAP2 SWAP1 PUSH2 0x2495 JUMP JUMPDEST PUSH2 0x178F JUMP JUMPDEST PUSH1 0x40 MLOAD PUSH2 0x346 SWAP2 SWAP1 PUSH2 0x2986 JUMP JUMPDEST PUSH1 0x40 MLOAD DUP1 SWAP2 SUB SWAP1 RETURN JUMPDEST PUSH2 0x369 PUSH1 0x4 DUP1 CALLDATASIZE SUB DUP2 ADD SWAP1 PUSH2 0x364 SWAP2 SWAP1 PUSH2 0x246C JUMP JUMPDEST PUSH2 0x17C2 JUMP JUMPDEST PUSH1 0x40 MLOAD PUSH2 0x376 SWAP2 SWAP1 PUSH2 0x2A3F JUMP JUMPDEST PUSH1 0x40 MLOAD DUP1 SWAP2 SUB SWAP1 RETURN JUMPDEST PUSH2 0x399 PUSH1 0x4 DUP1 CALLDATASIZE SUB DUP2 ADD SWAP1 PUSH2 0x394 SWAP2 SWAP1 PUSH2 0x246C JUMP JUMPDEST PUSH2 0x17DA JUMP JUMPDEST PUSH1 0x40 MLOAD PUSH2 0x3A6 SWAP2 SWAP1 PUSH2 0x29ED JUMP JUMPDEST PUSH1 0x40 MLOAD DUP1 SWAP2 SUB SWAP1 RETURN JUMPDEST PUSH2 0x3C9 PUSH1 0x4 DUP1 CALLDATASIZE SUB DUP2 ADD SWAP1 PUSH2 0x3C4 SWAP2 SWAP1 PUSH2 0x246C JUMP JUMPDEST PUSH2 0x1A5F JUMP JUMPDEST PUSH1 0x40 MLOAD PUSH2 0x3D6 SWAP2 SWAP1 PUSH2 0x29ED JUMP JUMPDEST PUSH1 0x40 MLOAD DUP1 SWAP2 SUB SWAP1 RETURN JUMPDEST PUSH2 0x3F9 PUSH1 0x4 DUP1 CALLDATASIZE SUB DUP2 ADD SWAP1 PUSH2 0x3F4 SWAP2 SWAP1 PUSH2 0x246C JUMP JUMPDEST PUSH2 0x1C09 JUMP JUMPDEST PUSH1 0x40 MLOAD PUSH2 0x406 SWAP2 SWAP1 PUSH2 0x29ED JUMP JUMPDEST PUSH1 0x40 MLOAD DUP1 SWAP2 SUB SWAP1 RETURN JUMPDEST PUSH2 0x429 PUSH1 0x4 DUP1 CALLDATASIZE SUB DUP2 ADD SWAP1 PUSH2 0x424 SWAP2 SWAP1 PUSH2 0x2495 JUMP JUMPDEST PUSH2 0x1C29 JUMP JUMPDEST PUSH1 0x40 MLOAD PUSH2 0x436 SWAP2 SWAP1 PUSH2 0x29ED JUMP JUMPDEST PUSH1 0x40 MLOAD DUP1 SWAP2 SUB SWAP1 RETURN JUMPDEST PUSH2 0x447 PUSH2 0x1E14 JUMP JUMPDEST PUSH1 0x40 MLOAD PUSH2 0x456 SWAP4 SWAP3 SWAP2 SWAP1 PUSH2 0x29A1 JUMP JUMPDEST PUSH1 0x40 MLOAD DUP1 SWAP2 SUB SWAP1 RETURN JUMPDEST PUSH2 0x479 PUSH1 0x4 DUP1 CALLDATASIZE SUB DUP2 ADD SWAP1 PUSH2 0x474 SWAP2 SWAP1 PUSH2 0x2495 JUMP JUMPDEST PUSH2 0x218B JUMP JUMPDEST PUSH1 0x40 MLOAD PUSH2 0x486 SWAP2 SWAP1 PUSH2 0x29ED JUMP JUMPDEST PUSH1 0x40 MLOAD DUP1 SWAP2 SUB SWAP1 RETURN JUMPDEST PUSH2 0x4A9 PUSH1 0x4 DUP1 CALLDATASIZE SUB DUP2 ADD SWAP1 PUSH2 0x4A4 SWAP2 SWAP1 PUSH2 0x2495 JUMP JUMPDEST PUSH2 0x23EB JUMP JUMPDEST PUSH1 0x40 MLOAD PUSH2 0x4B8 SWAP4 SWAP3 SWAP2 SWAP1 PUSH2 0x2A08 JUMP JUMPDEST PUSH1 0x40 MLOAD DUP1 SWAP2 SUB SWAP1 RETURN JUMPDEST PUSH1 0x0 PUSH1 0x3 PUSH1 0x4 PUSH1 0x0 CALLER PUSH20 0xFFFFFFFFFFFFFFFFFFFFFFFFFFFFFFFFFFFFFFFF AND PUSH20 0xFFFFFFFFFFFFFFFFFFFFFFFFFFFFFFFFFFFFFFFF AND DUP2 MSTORE PUSH1 0x20 ADD SWAP1 DUP2 MSTORE PUSH1 0x20 ADD PUSH1 0x0 KECCAK256 SLOAD EQ DUP1 ISZERO PUSH2 0x55B JUMPI POP PUSH1 0x5 PUSH1 0x0 CALLER PUSH20 0xFFFFFFFFFFFFFFFFFFFFFFFFFFFFFFFFFFFFFFFF AND PUSH20 0xFFFFFFFFFFFFFFFFFFFFFFFFFFFFFFFFFFFFFFFF AND DUP2 MSTORE PUSH1 0x20 ADD SWAP1 DUP2 MSTORE PUSH1 0x20 ADD PUSH1 0x0 KECCAK256 PUSH1 0x0 SWAP1 SLOAD SWAP1 PUSH2 0x100 EXP SWAP1 DIV PUSH1 0xFF AND JUMPDEST PUSH2 0x59A JUMPI PUSH1 0x40 MLOAD PUSH32 0x8C379A000000000000000000000000000000000000000000000000000000000 DUP2 MSTORE PUSH1 0x4 ADD PUSH2 0x591 SWAP1 PUSH2 0x2A9A JUMP JUMPDEST PUSH1 0x40 MLOAD DUP1 SWAP2 SUB SWAP1 REVERT JUMPDEST PUSH1 0x3 PUSH1 0x4 PUSH1 0x0 DUP5 PUSH20 0xFFFFFFFFFFFFFFFFFFFFFFFFFFFFFFFFFFFFFFFF AND PUSH20 0xFFFFFFFFFFFFFFFFFFFFFFFFFFFFFFFFFFFFFFFF AND DUP2 MSTORE PUSH1 0x20 ADD SWAP1 DUP2 MSTORE PUSH1 0x20 ADD PUSH1 0x0 KECCAK256 SLOAD EQ ISZERO PUSH2 0x61D JUMPI PUSH1 0x40 MLOAD PUSH32 0x8C379A000000000000000000000000000000000000000000000000000000000 DUP2 MSTORE PUSH1 0x4 ADD PUSH2 0x614 SWAP1 PUSH2 0x2B5A JUMP JUMPDEST PUSH1 0x40 MLOAD DUP1 SWAP2 SUB SWAP1 REVERT JUMPDEST PUSH1 0x2 PUSH1 0x4 PUSH1 0x0 DUP5 PUSH20 0xFFFFFFFFFFFFFFFFFFFFFFFFFFFFFFFFFFFFFFFF AND PUSH20 0xFFFFFFFFFFFFFFFFFFFFFFFFFFFFFFFFFFFFFFFF AND DUP2 MSTORE PUSH1 0x20 ADD SWAP1 DUP2 MSTORE PUSH1 0x20 ADD PUSH1 0x0 KECCAK256 SLOAD SLT PUSH2 0x69F JUMPI PUSH1 0x40 MLOAD PUSH32 0x8C379A000000000000000000000000000000000000000000000000000000000 DUP2 MSTORE PUSH1 0x4 ADD PUSH2 0x696 SWAP1 PUSH2 0x2C5A JUMP JUMPDEST PUSH1 0x40 MLOAD DUP1 SWAP2 SUB SWAP1 REVERT JUMPDEST PUSH1 0x2 PUSH1 0x4 PUSH1 0x0 DUP5 PUSH20 0xFFFFFFFFFFFFFFFFFFFFFFFFFFFFFFFFFFFFFFFF AND PUSH20 0xFFFFFFFFFFFFFFFFFFFFFFFFFFFFFFFFFFFFFFFF AND DUP2 MSTORE PUSH1 0x20 ADD SWAP1 DUP2 MSTORE PUSH1 0x20 ADD PUSH1 0x0 KECCAK256 DUP2 SWAP1 SSTORE POP PUSH1 0x1 SWAP1 POP SWAP2 SWAP1 POP JUMP JUMPDEST PUSH1 0x0 DUP1 PUSH1 0x0 PUSH1 0x2 PUSH1 0x0 DUP6 DUP2 MSTORE PUSH1 0x20 ADD SWAP1 DUP2 MSTORE PUSH1 0x20 ADD PUSH1 0x0 KECCAK256 PUSH1 0x0 ADD PUSH1 0x0 SWAP1 SLOAD SWAP1 PUSH2 0x100 EXP SWAP1 DIV PUSH1 0xFF AND PUSH1 0x2 PUSH1 0x0 DUP7 DUP2 MSTORE PUSH1 0x20 ADD SWAP1 DUP2 MSTORE PUSH1 0x20 ADD PUSH1 0x0 KECCAK256 PUSH1 0x1 ADD SLOAD PUSH1 0x2 PUSH1 0x0 DUP8 DUP2 MSTORE PUSH1 0x20 ADD SWAP1 DUP2 MSTORE PUSH1 0x20 ADD PUSH1 0x0 KECCAK256 PUSH1 0x2 ADD PUSH1 0x0 SWAP1 SLOAD SWAP1 PUSH2 0x100 EXP SWAP1 DIV PUSH20 0xFFFFFFFFFFFFFFFFFFFFFFFFFFFFFFFFFFFFFFFF AND SWAP3 POP SWAP3 POP SWAP3 POP SWAP2 SWAP4 SWAP1 SWAP3 POP JUMP JUMPDEST PUSH1 0x0 PUSH1 0x3 PUSH1 0x4 PUSH1 0x0 CALLER PUSH20 0xFFFFFFFFFFFFFFFFFFFFFFFFFFFFFFFFFFFFFFFF AND PUSH20 0xFFFFFFFFFFFFFFFFFFFFFFFFFFFFFFFFFFFFFFFF AND DUP2 MSTORE PUSH1 0x20 ADD SWAP1 DUP2 MSTORE PUSH1 0x20 ADD PUSH1 0x0 KECCAK256 SLOAD EQ DUP1 ISZERO PUSH2 0x80B JUMPI POP PUSH1 0x5 PUSH1 0x0 CALLER PUSH20 0xFFFFFFFFFFFFFFFFFFFFFFFFFFFFFFFFFFFFFFFF AND PUSH20 0xFFFFFFFFFFFFFFFFFFFFFFFFFFFFFFFFFFFFFFFF AND DUP2 MSTORE PUSH1 0x20 ADD SWAP1 DUP2 MSTORE PUSH1 0x20 ADD PUSH1 0x0 KECCAK256 PUSH1 0x0 SWAP1 SLOAD SWAP1 PUSH2 0x100 EXP SWAP1 DIV PUSH1 0xFF AND JUMPDEST PUSH2 0x84A JUMPI PUSH1 0x40 MLOAD PUSH32 0x8C379A000000000000000000000000000000000000000000000000000000000 DUP2 MSTORE PUSH1 0x4 ADD PUSH2 0x841 SWAP1 PUSH2 0x2A9A JUMP JUMPDEST PUSH1 0x40 MLOAD DUP1 SWAP2 SUB SWAP1 REVERT JUMPDEST CALLER PUSH20 0xFFFFFFFFFFFFFFFFFFFFFFFFFFFFFFFFFFFFFFFF AND PUSH1 0x2 PUSH1 0x0 DUP5 DUP2 MSTORE PUSH1 0x20 ADD SWAP1 DUP2 MSTORE PUSH1 0x20 ADD PUSH1 0x0 KECCAK256 PUSH1 0x2 ADD PUSH1 0x0 SWAP1 SLOAD SWAP1 PUSH2 0x100 EXP SWAP1 DIV PUSH20 0xFFFFFFFFFFFFFFFFFFFFFFFFFFFFFFFFFFFFFFFF AND PUSH20 0xFFFFFFFFFFFFFFFFFFFFFFFFFFFFFFFFFFFFFFFF AND EQ ISZERO PUSH2 0x8EF JUMPI PUSH1 0x40 MLOAD PUSH32 0x8C379A000000000000000000000000000000000000000000000000000000000 DUP2 MSTORE PUSH1 0x4 ADD PUSH2 0x8E6 SWAP1 PUSH2 0x2BFA JUMP JUMPDEST PUSH1 0x40 MLOAD DUP1 SWAP2 SUB SWAP1 REVERT JUMPDEST PUSH1 0x3 PUSH1 0x2 PUSH1 0x0 DUP5 DUP2 MSTORE PUSH1 0x20 ADD SWAP1 DUP2 MSTORE PUSH1 0x20 ADD PUSH1 0x0 KECCAK256 PUSH1 0x0 ADD PUSH1 0x0 PUSH2 0x100 EXP DUP2 SLOAD DUP2 PUSH1 0xFF MUL NOT AND SWAP1 DUP4 PUSH1 0x3 DUP2 GT ISZERO PUSH2 0x94F JUMPI PUSH32 0x4E487B7100000000000000000000000000000000000000000000000000000000 PUSH1 0x0 MSTORE PUSH1 0x21 PUSH1 0x4 MSTORE PUSH1 0x24 PUSH1 0x0 REVERT JUMPDEST MUL OR SWAP1 SSTORE POP PUSH1 0x1 SWAP1 POP SWAP2 SWAP1 POP JUMP JUMPDEST PUSH1 0x0 PUSH1 0x3 PUSH1 0x4 PUSH1 0x0 CALLER PUSH20 0xFFFFFFFFFFFFFFFFFFFFFFFFFFFFFFFFFFFFFFFF AND PUSH20 0xFFFFFFFFFFFFFFFFFFFFFFFFFFFFFFFFFFFFFFFF AND DUP2 MSTORE PUSH1 0x20 ADD SWAP1 DUP2 MSTORE PUSH1 0x20 ADD PUSH1 0x0 KECCAK256 SLOAD EQ DUP1 ISZERO PUSH2 0x9F7 JUMPI POP PUSH1 0x5 PUSH1 0x0 CALLER PUSH20 0xFFFFFFFFFFFFFFFFFFFFFFFFFFFFFFFFFFFFFFFF AND PUSH20 0xFFFFFFFFFFFFFFFFFFFFFFFFFFFFFFFFFFFFFFFF AND DUP2 MSTORE PUSH1 0x20 ADD SWAP1 DUP2 MSTORE PUSH1 0x20 ADD PUSH1 0x0 KECCAK256 PUSH1 0x0 SWAP1 SLOAD SWAP1 PUSH2 0x100 EXP SWAP1 DIV PUSH1 0xFF AND JUMPDEST PUSH2 0xA36 JUMPI PUSH1 0x40 MLOAD PUSH32 0x8C379A000000000000000000000000000000000000000000000000000000000 DUP2 MSTORE PUSH1 0x4 ADD PUSH2 0xA2D SWAP1 PUSH2 0x2A9A JUMP JUMPDEST PUSH1 0x40 MLOAD DUP1 SWAP2 SUB SWAP1 REVERT JUMPDEST PUSH1 0x0 PUSH1 0x4 PUSH1 0x0 DUP5 PUSH20 0xFFFFFFFFFFFFFFFFFFFFFFFFFFFFFFFFFFFFFFFF AND PUSH20 0xFFFFFFFFFFFFFFFFFFFFFFFFFFFFFFFFFFFFFFFF AND DUP2 MSTORE PUSH1 0x20 ADD SWAP1 DUP2 MSTORE PUSH1 0x20 ADD PUSH1 0x0 KECCAK256 SLOAD EQ ISZERO PUSH2 0xAB9 JUMPI PUSH1 0x40 MLOAD PUSH32 0x8C379A000000000000000000000000000000000000000000000000000000000 DUP2 MSTORE PUSH1 0x4 ADD PUSH2 0xAB0 SWAP1 PUSH2 0x2B7A JUMP JUMPDEST PUSH1 0x40 MLOAD DUP1 SWAP2 SUB SWAP1 REVERT JUMPDEST PUSH1 0x1 PUSH1 0x5 PUSH1 0x0 DUP5 PUSH20 0xFFFFFFFFFFFFFFFFFFFFFFFFFFFFFFFFFFFFFFFF AND PUSH20 0xFFFFFFFFFFFFFFFFFFFFFFFFFFFFFFFFFFFFFFFF AND DUP2 MSTORE PUSH1 0x20 ADD SWAP1 DUP2 MSTORE PUSH1 0x20 ADD PUSH1 0x0 KECCAK256 PUSH1 0x0 PUSH2 0x100 EXP DUP2 SLOAD DUP2 PUSH1 0xFF MUL NOT AND SWAP1 DUP4 ISZERO ISZERO MUL OR SWAP1 SSTORE POP PUSH1 0x1 SWAP1 POP SWAP2 SWAP1 POP JUMP JUMPDEST PUSH1 0x1 SLOAD DUP2 JUMP JUMPDEST PUSH1 0x0 PUSH1 0x3 PUSH1 0x4 PUSH1 0x0 CALLER PUSH20 0xFFFFFFFFFFFFFFFFFFFFFFFFFFFFFFFFFFFFFFFF AND PUSH20 0xFFFFFFFFFFFFFFFFFFFFFFFFFFFFFFFFFFFFFFFF AND DUP2 MSTORE PUSH1 0x20 ADD SWAP1 DUP2 MSTORE PUSH1 0x20 ADD PUSH1 0x0 KECCAK256 SLOAD EQ DUP1 ISZERO PUSH2 0xBBA JUMPI POP PUSH1 0x5 PUSH1 0x0 CALLER PUSH20 0xFFFFFFFFFFFFFFFFFFFFFFFFFFFFFFFFFFFFFFFF AND PUSH20 0xFFFFFFFFFFFFFFFFFFFFFFFFFFFFFFFFFFFFFFFF AND DUP2 MSTORE PUSH1 0x20 ADD SWAP1 DUP2 MSTORE PUSH1 0x20 ADD PUSH1 0x0 KECCAK256 PUSH1 0x0 SWAP1 SLOAD SWAP1 PUSH2 0x100 EXP SWAP1 DIV PUSH1 0xFF AND JUMPDEST PUSH2 0xBF9 JUMPI PUSH1 0x40 MLOAD PUSH32 0x8C379A000000000000000000000000000000000000000000000000000000000 DUP2 MSTORE PUSH1 0x4 ADD PUSH2 0xBF0 SWAP1 PUSH2 0x2A9A JUMP JUMPDEST PUSH1 0x40 MLOAD DUP1 SWAP2 SUB SWAP1 REVERT JUMPDEST CALLER PUSH20 0xFFFFFFFFFFFFFFFFFFFFFFFFFFFFFFFFFFFFFFFF AND PUSH1 0x0 DUP1 SLOAD SWAP1 PUSH2 0x100 EXP SWAP1 DIV PUSH20 0xFFFFFFFFFFFFFFFFFFFFFFFFFFFFFFFFFFFFFFFF AND PUSH20 0xFFFFFFFFFFFFFFFFFFFFFFFFFFFFFFFFFFFFFFFF AND EQ PUSH2 0xC87 JUMPI PUSH1 0x40 MLOAD PUSH32 0x8C379A000000000000000000000000000000000000000000000000000000000 DUP2 MSTORE PUSH1 0x4 ADD PUSH2 0xC7E SWAP1 PUSH2 0x2C7A JUMP JUMPDEST PUSH1 0x40 MLOAD DUP1 SWAP2 SUB SWAP1 REVERT JUMPDEST PUSH1 0x3 PUSH1 0x4 PUSH1 0x0 DUP5 PUSH20 0xFFFFFFFFFFFFFFFFFFFFFFFFFFFFFFFFFFFFFFFF AND PUSH20 0xFFFFFFFFFFFFFFFFFFFFFFFFFFFFFFFFFFFFFFFF AND DUP2 MSTORE PUSH1 0x20 ADD SWAP1 DUP2 MSTORE PUSH1 0x20 ADD PUSH1 0x0 KECCAK256 SLOAD EQ PUSH2 0xD09 JUMPI PUSH1 0x40 MLOAD PUSH32 0x8C379A000000000000000000000000000000000000000000000000000000000 DUP2 MSTORE PUSH1 0x4 ADD PUSH2 0xD00 SWAP1 PUSH2 0x2BBA JUMP JUMPDEST PUSH1 0x40 MLOAD DUP1 SWAP2 SUB SWAP1 REVERT JUMPDEST PUSH1 0x0 PUSH1 0x4 PUSH1 0x0 DUP5 PUSH20 0xFFFFFFFFFFFFFFFFFFFFFFFFFFFFFFFFFFFFFFFF AND PUSH20 0xFFFFFFFFFFFFFFFFFFFFFFFFFFFFFFFFFFFFFFFF AND DUP2 MSTORE PUSH1 0x20 ADD SWAP1 DUP2 MSTORE PUSH1 0x20 ADD PUSH1 0x0 KECCAK256 SLOAD EQ ISZERO PUSH2 0xD8C JUMPI PUSH1 0x40 MLOAD PUSH32 0x8C379A000000000000000000000000000000000000000000000000000000000 DUP2 MSTORE PUSH1 0x4 ADD PUSH2 0xD83 SWAP1 PUSH2 0x2B1A JUMP JUMPDEST PUSH1 0x40 MLOAD DUP1 SWAP2 SUB SWAP1 REVERT JUMPDEST PUSH1 0x0 PUSH1 0x4 PUSH1 0x0 DUP5 PUSH20 0xFFFFFFFFFFFFFFFFFFFFFFFFFFFFFFFFFFFFFFFF AND PUSH20 0xFFFFFFFFFFFFFFFFFFFFFFFFFFFFFFFFFFFFFFFF AND DUP2 MSTORE PUSH1 0x20 ADD SWAP1 DUP2 MSTORE PUSH1 0x20 ADD PUSH1 0x0 KECCAK256 DUP2 SWAP1 SSTORE POP PUSH1 0x0 PUSH1 0x5 PUSH1 0x0 DUP5 PUSH20 0xFFFFFFFFFFFFFFFFFFFFFFFFFFFFFFFFFFFFFFFF AND PUSH20 0xFFFFFFFFFFFFFFFFFFFFFFFFFFFFFFFFFFFFFFFF AND DUP2 MSTORE PUSH1 0x20 ADD SWAP1 DUP2 MSTORE PUSH1 0x20 ADD PUSH1 0x0 KECCAK256 PUSH1 0x0 PUSH2 0x100 EXP DUP2 SLOAD DUP2 PUSH1 0xFF MUL NOT AND SWAP1 DUP4 ISZERO ISZERO MUL OR SWAP1 SSTORE POP PUSH1 0x1 SWAP1 POP SWAP2 SWAP1 POP JUMP JUMPDEST PUSH1 0x0 PUSH1 0x3 PUSH1 0x4 PUSH1 0x0 CALLER PUSH20 0xFFFFFFFFFFFFFFFFFFFFFFFFFFFFFFFFFFFFFFFF AND PUSH20 0xFFFFFFFFFFFFFFFFFFFFFFFFFFFFFFFFFFFFFFFF AND DUP2 MSTORE PUSH1 0x20 ADD SWAP1 DUP2 MSTORE PUSH1 0x20 ADD PUSH1 0x0 KECCAK256 SLOAD EQ DUP1 ISZERO PUSH2 0xECC JUMPI POP PUSH1 0x5 PUSH1 0x0 CALLER PUSH20 0xFFFFFFFFFFFFFFFFFFFFFFFFFFFFFFFFFFFFFFFF AND PUSH20 0xFFFFFFFFFFFFFFFFFFFFFFFFFFFFFFFFFFFFFFFF AND DUP2 MSTORE PUSH1 0x20 ADD SWAP1 DUP2 MSTORE PUSH1 0x20 ADD PUSH1 0x0 KECCAK256 PUSH1 0x0 SWAP1 SLOAD SWAP1 PUSH2 0x100 EXP SWAP1 DIV PUSH1 0xFF AND JUMPDEST PUSH2 0xF0B JUMPI PUSH1 0x40 MLOAD PUSH32 0x8C379A000000000000000000000000000000000000000000000000000000000 DUP2 MSTORE PUSH1 0x4 ADD PUSH2 0xF02 SWAP1 PUSH2 0x2A9A JUMP JUMPDEST PUSH1 0x40 MLOAD DUP1 SWAP2 SUB SWAP1 REVERT JUMPDEST CALLER PUSH20 0xFFFFFFFFFFFFFFFFFFFFFFFFFFFFFFFFFFFFFFFF AND PUSH1 0x0 DUP1 SLOAD SWAP1 PUSH2 0x100 EXP SWAP1 DIV PUSH20 0xFFFFFFFFFFFFFFFFFFFFFFFFFFFFFFFFFFFFFFFF AND PUSH20 0xFFFFFFFFFFFFFFFFFFFFFFFFFFFFFFFFFFFFFFFF AND EQ PUSH2 0xF99 JUMPI PUSH1 0x40 MLOAD PUSH32 0x8C379A000000000000000000000000000000000000000000000000000000000 DUP2 MSTORE PUSH1 0x4 ADD PUSH2 0xF90 SWAP1 PUSH2 0x2C7A JUMP JUMPDEST PUSH1 0x40 MLOAD DUP1 SWAP2 SUB SWAP1 REVERT JUMPDEST PUSH1 0x3 PUSH1 0x4 PUSH1 0x0 DUP5 PUSH20 0xFFFFFFFFFFFFFFFFFFFFFFFFFFFFFFFFFFFFFFFF AND PUSH20 0xFFFFFFFFFFFFFFFFFFFFFFFFFFFFFFFFFFFFFFFF AND DUP2 MSTORE PUSH1 0x20 ADD SWAP1 DUP2 MSTORE PUSH1 0x20 ADD PUSH1 0x0 KECCAK256 SLOAD SLT PUSH2 0x101B JUMPI PUSH1 0x40 MLOAD PUSH32 0x8C379A000000000000000000000000000000000000000000000000000000000 DUP2 MSTORE PUSH1 0x4 ADD PUSH2 0x1012 SWAP1 PUSH2 0x2C3A JUMP JUMPDEST PUSH1 0x40 MLOAD DUP1 SWAP2 SUB SWAP1 REVERT JUMPDEST PUSH1 0x3 PUSH1 0x4 PUSH1 0x0 DUP5 PUSH20 0xFFFFFFFFFFFFFFFFFFFFFFFFFFFFFFFFFFFFFFFF AND PUSH20 0xFFFFFFFFFFFFFFFFFFFFFFFFFFFFFFFFFFFFFFFF AND DUP2 MSTORE PUSH1 0x20 ADD SWAP1 DUP2 MSTORE PUSH1 0x20 ADD PUSH1 0x0 KECCAK256 DUP2 SWAP1 SSTORE POP PUSH1 0x1 SWAP1 POP SWAP2 SWAP1 POP JUMP JUMPDEST PUSH1 0x0 DUP1 SLOAD SWAP1 PUSH2 0x100 EXP SWAP1 DIV PUSH20 0xFFFFFFFFFFFFFFFFFFFFFFFFFFFFFFFFFFFFFFFF AND DUP2 JUMP JUMPDEST PUSH1 0x0 DUP3 CALLER PUSH20 0xFFFFFFFFFFFFFFFFFFFFFFFFFFFFFFFFFFFFFFFF AND PUSH1 0x2 PUSH1 0x0 DUP4 DUP2 MSTORE PUSH1 0x20 ADD SWAP1 DUP2 MSTORE PUSH1 0x20 ADD PUSH1 0x0 KECCAK256 PUSH1 0x2 ADD PUSH1 0x0 SWAP1 SLOAD SWAP1 PUSH2 0x100 EXP SWAP1 DIV PUSH20 0xFFFFFFFFFFFFFFFFFFFFFFFFFFFFFFFFFFFFFFFF AND PUSH20 0xFFFFFFFFFFFFFFFFFFFFFFFFFFFFFFFFFFFFFFFF AND EQ PUSH2 0x1134 JUMPI PUSH1 0x40 MLOAD PUSH32 0x8C379A000000000000000000000000000000000000000000000000000000000 DUP2 MSTORE PUSH1 0x4 ADD PUSH2 0x112B SWAP1 PUSH2 0x2B3A JUMP JUMPDEST PUSH1 0x40 MLOAD DUP1 SWAP2 SUB SWAP1 REVERT JUMPDEST PUSH1 0x0 PUSH20 0xFFFFFFFFFFFFFFFFFFFFFFFFFFFFFFFFFFFFFFFF AND PUSH1 0x3 PUSH1 0x0 DUP7 DUP2 MSTORE PUSH1 0x20 ADD SWAP1 DUP2 MSTORE PUSH1 0x20 ADD PUSH1 0x0 KECCAK256 PUSH1 0x0 SWAP1 SLOAD SWAP1 PUSH2 0x100 EXP SWAP1 DIV PUSH20 0xFFFFFFFFFFFFFFFFFFFFFFFFFFFFFFFFFFFFFFFF AND PUSH20 0xFFFFFFFFFFFFFFFFFFFFFFFFFFFFFFFFFFFFFFFF AND EQ PUSH2 0x11D6 JUMPI PUSH1 0x40 MLOAD PUSH32 0x8C379A000000000000000000000000000000000000000000000000000000000 DUP2 MSTORE PUSH1 0x4 ADD PUSH2 0x11CD SWAP1 PUSH2 0x2ADA JUMP JUMPDEST PUSH1 0x40 MLOAD DUP1 SWAP2 SUB SWAP1 REVERT JUMPDEST DUP3 PUSH1 0x2 PUSH1 0x0 DUP7 DUP2 MSTORE PUSH1 0x20 ADD SWAP1 DUP2 MSTORE PUSH1 0x20 ADD PUSH1 0x0 KECCAK256 PUSH1 0x1 ADD DUP2 SWAP1 SSTORE POP PUSH1 0x1 SWAP2 POP POP SWAP3 SWAP2 POP POP JUMP JUMPDEST PUSH1 0x0 DUP3 CALLER PUSH20 0xFFFFFFFFFFFFFFFFFFFFFFFFFFFFFFFFFFFFFFFF AND PUSH1 0x2 PUSH1 0x0 DUP4 DUP2 MSTORE PUSH1 0x20 ADD SWAP1 DUP2 MSTORE PUSH1 0x20 ADD PUSH1 0x0 KECCAK256 PUSH1 0x2 ADD PUSH1 0x0 SWAP1 SLOAD SWAP1 PUSH2 0x100 EXP SWAP1 DIV PUSH20 0xFFFFFFFFFFFFFFFFFFFFFFFFFFFFFFFFFFFFFFFF AND PUSH20 0xFFFFFFFFFFFFFFFFFFFFFFFFFFFFFFFFFFFFFFFF AND EQ PUSH2 0x12A3 JUMPI PUSH1 0x40 MLOAD PUSH32 0x8C379A000000000000000000000000000000000000000000000000000000000 DUP2 MSTORE PUSH1 0x4 ADD PUSH2 0x129A SWAP1 PUSH2 0x2B3A JUMP JUMPDEST PUSH1 0x40 MLOAD DUP1 SWAP2 SUB SWAP1 REVERT JUMPDEST DUP3 PUSH1 0x5 PUSH1 0x0 DUP3 PUSH20 0xFFFFFFFFFFFFFFFFFFFFFFFFFFFFFFFFFFFFFFFF AND PUSH20 0xFFFFFFFFFFFFFFFFFFFFFFFFFFFFFFFFFFFFFFFF AND DUP2 MSTORE PUSH1 0x20 ADD SWAP1 DUP2 MSTORE PUSH1 0x20 ADD PUSH1 0x0 KECCAK256 PUSH1 0x0 SWAP1 SLOAD SWAP1 PUSH2 0x100 EXP SWAP1 DIV PUSH1 0xFF AND PUSH2 0x1330 JUMPI PUSH1 0x40 MLOAD PUSH32 0x8C379A000000000000000000000000000000000000000000000000000000000 DUP2 MSTORE PUSH1 0x4 ADD PUSH2 0x1327 SWAP1 PUSH2 0x2C1A JUMP JUMPDEST PUSH1 0x40 MLOAD DUP1 SWAP2 SUB SWAP1 REVERT JUMPDEST DUP4 PUSH20 0xFFFFFFFFFFFFFFFFFFFFFFFFFFFFFFFFFFFFFFFF AND PUSH1 0x2 PUSH1 0x0 DUP8 DUP2 MSTORE PUSH1 0x20 ADD SWAP1 DUP2 MSTORE PUSH1 0x20 ADD PUSH1 0x0 KECCAK256 PUSH1 0x2 ADD PUSH1 0x0 SWAP1 SLOAD SWAP1 PUSH2 0x100 EXP SWAP1 DIV PUSH20 0xFFFFFFFFFFFFFFFFFFFFFFFFFFFFFFFFFFFFFFFF AND PUSH20 0xFFFFFFFFFFFFFFFFFFFFFFFFFFFFFFFFFFFFFFFF AND EQ ISZERO PUSH2 0x13D5 JUMPI PUSH1 0x40 MLOAD PUSH32 0x8C379A000000000000000000000000000000000000000000000000000000000 DUP2 MSTORE PUSH1 0x4 ADD PUSH2 0x13CC SWAP1 PUSH2 0x2BDA JUMP JUMPDEST PUSH1 0x40 MLOAD DUP1 SWAP2 SUB SWAP1 REVERT JUMPDEST PUSH1 0x0 PUSH20 0xFFFFFFFFFFFFFFFFFFFFFFFFFFFFFFFFFFFFFFFF AND PUSH1 0x3 PUSH1 0x0 DUP8 DUP2 MSTORE PUSH1 0x20 ADD SWAP1 DUP2 MSTORE PUSH1 0x20 ADD PUSH1 0x0 KECCAK256 PUSH1 0x0 SWAP1 SLOAD SWAP1 PUSH2 0x100 EXP SWAP1 DIV PUSH20 0xFFFFFFFFFFFFFFFFFFFFFFFFFFFFFFFFFFFFFFFF AND PUSH20 0xFFFFFFFFFFFFFFFFFFFFFFFFFFFFFFFFFFFFFFFF AND EQ PUSH2 0x1477 JUMPI PUSH1 0x40 MLOAD PUSH32 0x8C379A000000000000000000000000000000000000000000000000000000000 DUP2 MSTORE PUSH1 0x4 ADD PUSH2 0x146E SWAP1 PUSH2 0x2B9A JUMP JUMPDEST PUSH1 0x40 MLOAD DUP1 SWAP2 SUB SWAP1 REVERT JUMPDEST DUP4 PUSH1 0x3 PUSH1 0x0 DUP8 DUP2 MSTORE PUSH1 0x20 ADD SWAP1 DUP2 MSTORE PUSH1 0x20 ADD PUSH1 0x0 KECCAK256 PUSH1 0x0 PUSH2 0x100 EXP DUP2 SLOAD DUP2 PUSH20 0xFFFFFFFFFFFFFFFFFFFFFFFFFFFFFFFFFFFFFFFF MUL NOT AND SWAP1 DUP4 PUSH20 0xFFFFFFFFFFFFFFFFFFFFFFFFFFFFFFFFFFFFFFFF AND MUL OR SWAP1 SSTORE POP PUSH1 0x1 SWAP3 POP POP POP SWAP3 SWAP2 POP POP JUMP JUMPDEST PUSH1 0x0 PUSH1 0x2 PUSH1 0x4 PUSH1 0x0 CALLER PUSH20 0xFFFFFFFFFFFFFFFFFFFFFFFFFFFFFFFFFFFFFFFF AND PUSH20 0xFFFFFFFFFFFFFFFFFFFFFFFFFFFFFFFFFFFFFFFF AND DUP2 MSTORE PUSH1 0x20 ADD SWAP1 DUP2 MSTORE PUSH1 0x20 ADD PUSH1 0x0 KECCAK256 SLOAD SLT ISZERO DUP1 ISZERO PUSH2 0x1570 JUMPI POP PUSH1 0x5 PUSH1 0x0 CALLER PUSH20 0xFFFFFFFFFFFFFFFFFFFFFFFFFFFFFFFFFFFFFFFF AND PUSH20 0xFFFFFFFFFFFFFFFFFFFFFFFFFFFFFFFFFFFFFFFF AND DUP2 MSTORE PUSH1 0x20 ADD SWAP1 DUP2 MSTORE PUSH1 0x20 ADD PUSH1 0x0 KECCAK256 PUSH1 0x0 SWAP1 SLOAD SWAP1 PUSH2 0x100 EXP SWAP1 DIV PUSH1 0xFF AND JUMPDEST PUSH2 0x15AF JUMPI PUSH1 0x40 MLOAD PUSH32 0x8C379A000000000000000000000000000000000000000000000000000000000 DUP2 MSTORE PUSH1 0x4 ADD PUSH2 0x15A6 SWAP1 PUSH2 0x2ABA JUMP JUMPDEST PUSH1 0x40 MLOAD DUP1 SWAP2 SUB SWAP1 REVERT JUMPDEST DUP2 PUSH1 0x5 PUSH1 0x0 DUP3 PUSH20 0xFFFFFFFFFFFFFFFFFFFFFFFFFFFFFFFFFFFFFFFF AND PUSH20 0xFFFFFFFFFFFFFFFFFFFFFFFFFFFFFFFFFFFFFFFF AND DUP2 MSTORE PUSH1 0x20 ADD SWAP1 DUP2 MSTORE PUSH1 0x20 ADD PUSH1 0x0 KECCAK256 PUSH1 0x0 SWAP1 SLOAD SWAP1 PUSH2 0x100 EXP SWAP1 DIV PUSH1 0xFF AND PUSH2 0x163C JUMPI PUSH1 0x40 MLOAD PUSH32 0x8C379A000000000000000000000000000000000000000000000000000000000 DUP2 MSTORE PUSH1 0x4 ADD PUSH2 0x1633 SWAP1 PUSH2 0x2C1A JUMP JUMPDEST PUSH1 0x40 MLOAD DUP1 SWAP2 SUB SWAP1 REVERT JUMPDEST PUSH1 0x40 MLOAD DUP1 PUSH1 0x60 ADD PUSH1 0x40 MSTORE DUP1 PUSH1 0x1 PUSH1 0x3 DUP2 GT ISZERO PUSH2 0x1681 JUMPI PUSH32 0x4E487B7100000000000000000000000000000000000000000000000000000000 PUSH1 0x0 MSTORE PUSH1 0x21 PUSH1 0x4 MSTORE PUSH1 0x24 PUSH1 0x0 REVERT JUMPDEST DUP2 MSTORE PUSH1 0x20 ADD DUP6 DUP2 MSTORE PUSH1 0x20 ADD DUP5 PUSH20 0xFFFFFFFFFFFFFFFFFFFFFFFFFFFFFFFFFFFFFFFF AND DUP2 MSTORE POP PUSH1 0x2 PUSH1 0x0 PUSH1 0x1 SLOAD DUP2 MSTORE PUSH1 0x20 ADD SWAP1 DUP2 MSTORE PUSH1 0x20 ADD PUSH1 0x0 KECCAK256 PUSH1 0x0 DUP3 ADD MLOAD DUP2 PUSH1 0x0 ADD PUSH1 0x0 PUSH2 0x100 EXP DUP2 SLOAD DUP2 PUSH1 0xFF MUL NOT AND SWAP1 DUP4 PUSH1 0x3 DUP2 GT ISZERO PUSH2 0x170C JUMPI PUSH32 0x4E487B7100000000000000000000000000000000000000000000000000000000 PUSH1 0x0 MSTORE PUSH1 0x21 PUSH1 0x4 MSTORE PUSH1 0x24 PUSH1 0x0 REVERT JUMPDEST MUL OR SWAP1 SSTORE POP PUSH1 0x20 DUP3 ADD MLOAD DUP2 PUSH1 0x1 ADD SSTORE PUSH1 0x40 DUP3 ADD MLOAD DUP2 PUSH1 0x2 ADD PUSH1 0x0 PUSH2 0x100 EXP DUP2 SLOAD DUP2 PUSH20 0xFFFFFFFFFFFFFFFFFFFFFFFFFFFFFFFFFFFFFFFF MUL NOT AND SWAP1 DUP4 PUSH20 0xFFFFFFFFFFFFFFFFFFFFFFFFFFFFFFFFFFFFFFFF AND MUL OR SWAP1 SSTORE POP SWAP1 POP POP PUSH1 0x0 PUSH1 0x1 SLOAD SWAP1 POP PUSH1 0x1 PUSH1 0x0 DUP2 SLOAD DUP1 SWAP3 SWAP2 SWAP1 PUSH2 0x177F SWAP1 PUSH2 0x2DE8 JUMP JUMPDEST SWAP2 SWAP1 POP SSTORE POP DUP1 SWAP3 POP POP POP SWAP3 SWAP2 POP POP JUMP JUMPDEST PUSH1 0x3 PUSH1 0x20 MSTORE DUP1 PUSH1 0x0 MSTORE PUSH1 0x40 PUSH1 0x0 KECCAK256 PUSH1 0x0 SWAP2 POP SLOAD SWAP1 PUSH2 0x100 EXP SWAP1 DIV PUSH20 0xFFFFFFFFFFFFFFFFFFFFFFFFFFFFFFFFFFFFFFFF AND DUP2 JUMP JUMPDEST PUSH1 0x4 PUSH1 0x20 MSTORE DUP1 PUSH1 0x0 MSTORE PUSH1 0x40 PUSH1 0x0 KECCAK256 PUSH1 0x0 SWAP2 POP SWAP1 POP SLOAD DUP2 JUMP JUMPDEST PUSH1 0x0 PUSH1 0x3 PUSH1 0x4 PUSH1 0x0 CALLER PUSH20 0xFFFFFFFFFFFFFFFFFFFFFFFFFFFFFFFFFFFFFFFF AND PUSH20 0xFFFFFFFFFFFFFFFFFFFFFFFFFFFFFFFFFFFFFFFF AND DUP2 MSTORE PUSH1 0x20 ADD SWAP1 DUP2 MSTORE PUSH1 0x20 ADD PUSH1 0x0 KECCAK256 SLOAD EQ DUP1 ISZERO PUSH2 0x1874 JUMPI POP PUSH1 0x5 PUSH1 0x0 CALLER PUSH20 0xFFFFFFFFFFFFFFFFFFFFFFFFFFFFFFFFFFFFFFFF AND PUSH20 0xFFFFFFFFFFFFFFFFFFFFFFFFFFFFFFFFFFFFFFFF AND DUP2 MSTORE PUSH1 0x20 ADD SWAP1 DUP2 MSTORE PUSH1 0x20 ADD PUSH1 0x0 KECCAK256 PUSH1 0x0 SWAP1 SLOAD SWAP1 PUSH2 0x100 EXP SWAP1 DIV PUSH1 0xFF AND JUMPDEST PUSH2 0x18B3 JUMPI PUSH1 0x40 MLOAD PUSH32 0x8C379A000000000000000000000000000000000000000000000000000000000 DUP2 MSTORE PUSH1 0x4 ADD PUSH2 0x18AA SWAP1 PUSH2 0x2A9A JUMP JUMPDEST PUSH1 0x40 MLOAD DUP1 SWAP2 SUB SWAP1 REVERT JUMPDEST PUSH1 0x3 PUSH1 0x4 PUSH1 0x0 DUP5 PUSH20 0xFFFFFFFFFFFFFFFFFFFFFFFFFFFFFFFFFFFFFFFF AND PUSH20 0xFFFFFFFFFFFFFFFFFFFFFFFFFFFFFFFFFFFFFFFF AND DUP2 MSTORE PUSH1 0x20 ADD SWAP1 DUP2 MSTORE PUSH1 0x20 ADD PUSH1 0x0 KECCAK256 SLOAD EQ ISZERO PUSH2 0x1936 JUMPI PUSH1 0x40 MLOAD PUSH32 0x8C379A000000000000000000000000000000000000000000000000000000000 DUP2 MSTORE PUSH1 0x4 ADD PUSH2 0x192D SWAP1 PUSH2 0x2B5A JUMP JUMPDEST PUSH1 0x40 MLOAD DUP1 SWAP2 SUB SWAP1 REVERT JUMPDEST PUSH1 0x0 PUSH1 0x4 PUSH1 0x0 DUP5 PUSH20 0xFFFFFFFFFFFFFFFFFFFFFFFFFFFFFFFFFFFFFFFF AND PUSH20 0xFFFFFFFFFFFFFFFFFFFFFFFFFFFFFFFFFFFFFFFF AND DUP2 MSTORE PUSH1 0x20 ADD SWAP1 DUP2 MSTORE PUSH1 0x20 ADD PUSH1 0x0 KECCAK256 SLOAD EQ ISZERO PUSH2 0x19B9 JUMPI PUSH1 0x40 MLOAD PUSH32 0x8C379A000000000000000000000000000000000000000000000000000000000 DUP2 MSTORE PUSH1 0x4 ADD PUSH2 0x19B0 SWAP1 PUSH2 0x2B1A JUMP JUMPDEST PUSH1 0x40 MLOAD DUP1 SWAP2 SUB SWAP1 REVERT JUMPDEST PUSH1 0x0 PUSH1 0x4 PUSH1 0x0 DUP5 PUSH20 0xFFFFFFFFFFFFFFFFFFFFFFFFFFFFFFFFFFFFFFFF AND PUSH20 0xFFFFFFFFFFFFFFFFFFFFFFFFFFFFFFFFFFFFFFFF AND DUP2 MSTORE PUSH1 0x20 ADD SWAP1 DUP2 MSTORE PUSH1 0x20 ADD PUSH1 0x0 KECCAK256 DUP2 SWAP1 SSTORE POP PUSH1 0x0 PUSH1 0x5 PUSH1 0x0 DUP5 PUSH20 0xFFFFFFFFFFFFFFFFFFFFFFFFFFFFFFFFFFFFFFFF AND PUSH20 0xFFFFFFFFFFFFFFFFFFFFFFFFFFFFFFFFFFFFFFFF AND DUP2 MSTORE PUSH1 0x20 ADD SWAP1 DUP2 MSTORE PUSH1 0x20 ADD PUSH1 0x0 KECCAK256 PUSH1 0x0 PUSH2 0x100 EXP DUP2 SLOAD DUP2 PUSH1 0xFF MUL NOT AND SWAP1 DUP4 ISZERO ISZERO MUL OR SWAP1 SSTORE POP PUSH1 0x1 SWAP1 POP SWAP2 SWAP1 POP JUMP JUMPDEST PUSH1 0x0 PUSH1 0x2 PUSH1 0x4 PUSH1 0x0 CALLER PUSH20 0xFFFFFFFFFFFFFFFFFFFFFFFFFFFFFFFFFFFFFFFF AND PUSH20 0xFFFFFFFFFFFFFFFFFFFFFFFFFFFFFFFFFFFFFFFF AND DUP2 MSTORE PUSH1 0x20 ADD SWAP1 DUP2 MSTORE PUSH1 0x20 ADD PUSH1 0x0 KECCAK256 SLOAD SLT ISZERO DUP1 ISZERO PUSH2 0x1AFA JUMPI POP PUSH1 0x5 PUSH1 0x0 CALLER PUSH20 0xFFFFFFFFFFFFFFFFFFFFFFFFFFFFFFFFFFFFFFFF AND PUSH20 0xFFFFFFFFFFFFFFFFFFFFFFFFFFFFFFFFFFFFFFFF AND DUP2 MSTORE PUSH1 0x20 ADD SWAP1 DUP2 MSTORE PUSH1 0x20 ADD PUSH1 0x0 KECCAK256 PUSH1 0x0 SWAP1 SLOAD SWAP1 PUSH2 0x100 EXP SWAP1 DIV PUSH1 0xFF AND JUMPDEST PUSH2 0x1B39 JUMPI PUSH1 0x40 MLOAD PUSH32 0x8C379A000000000000000000000000000000000000000000000000000000000 DUP2 MSTORE PUSH1 0x4 ADD PUSH2 0x1B30 SWAP1 PUSH2 0x2ABA JUMP JUMPDEST PUSH1 0x40 MLOAD DUP1 SWAP2 SUB SWAP1 REVERT JUMPDEST PUSH1 0x0 PUSH1 0x4 PUSH1 0x0 DUP5 PUSH20 0xFFFFFFFFFFFFFFFFFFFFFFFFFFFFFFFFFFFFFFFF AND PUSH20 0xFFFFFFFFFFFFFFFFFFFFFFFFFFFFFFFFFFFFFFFF AND DUP2 MSTORE PUSH1 0x20 ADD SWAP1 DUP2 MSTORE PUSH1 0x20 ADD PUSH1 0x0 KECCAK256 SLOAD EQ PUSH2 0x1BBB JUMPI PUSH1 0x40 MLOAD PUSH32 0x8C379A000000000000000000000000000000000000000000000000000000000 DUP2 MSTORE PUSH1 0x4 ADD PUSH2 0x1BB2 SWAP1 PUSH2 0x2A5A JUMP JUMPDEST PUSH1 0x40 MLOAD DUP1 SWAP2 SUB SWAP1 REVERT JUMPDEST PUSH1 0x1 PUSH1 0x4 PUSH1 0x0 DUP5 PUSH20 0xFFFFFFFFFFFFFFFFFFFFFFFFFFFFFFFFFFFFFFFF AND PUSH20 0xFFFFFFFFFFFFFFFFFFFFFFFFFFFFFFFFFFFFFFFF AND DUP2 MSTORE PUSH1 0x20 ADD SWAP1 DUP2 MSTORE PUSH1 0x20 ADD PUSH1 0x0 KECCAK256 DUP2 SWAP1 SSTORE POP PUSH1 0x1 SWAP1 POP SWAP2 SWAP1 POP JUMP JUMPDEST PUSH1 0x5 PUSH1 0x20 MSTORE DUP1 PUSH1 0x0 MSTORE PUSH1 0x40 PUSH1 0x0 KECCAK256 PUSH1 0x0 SWAP2 POP SLOAD SWAP1 PUSH2 0x100 EXP SWAP1 DIV PUSH1 0xFF AND DUP2 JUMP JUMPDEST PUSH1 0x0 PUSH1 0x3 PUSH1 0x4 PUSH1 0x0 CALLER PUSH20 0xFFFFFFFFFFFFFFFFFFFFFFFFFFFFFFFFFFFFFFFF AND PUSH20 0xFFFFFFFFFFFFFFFFFFFFFFFFFFFFFFFFFFFFFFFF AND DUP2 MSTORE PUSH1 0x20 ADD SWAP1 DUP2 MSTORE PUSH1 0x20 ADD PUSH1 0x0 KECCAK256 SLOAD EQ DUP1 ISZERO PUSH2 0x1CC3 JUMPI POP PUSH1 0x5 PUSH1 0x0 CALLER PUSH20 0xFFFFFFFFFFFFFFFFFFFFFFFFFFFFFFFFFFFFFFFF AND PUSH20 0xFFFFFFFFFFFFFFFFFFFFFFFFFFFFFFFFFFFFFFFF AND DUP2 MSTORE PUSH1 0x20 ADD SWAP1 DUP2 MSTORE PUSH1 0x20 ADD PUSH1 0x0 KECCAK256 PUSH1 0x0 SWAP1 SLOAD SWAP1 PUSH2 0x100 EXP SWAP1 DIV PUSH1 0xFF AND JUMPDEST PUSH2 0x1D02 JUMPI PUSH1 0x40 MLOAD PUSH32 0x8C379A000000000000000000000000000000000000000000000000000000000 DUP2 MSTORE PUSH1 0x4 ADD PUSH2 0x1CF9 SWAP1 PUSH2 0x2A9A JUMP JUMPDEST PUSH1 0x40 MLOAD DUP1 SWAP2 SUB SWAP1 REVERT JUMPDEST CALLER PUSH20 0xFFFFFFFFFFFFFFFFFFFFFFFFFFFFFFFFFFFFFFFF AND PUSH1 0x2 PUSH1 0x0 DUP5 DUP2 MSTORE PUSH1 0x20 ADD SWAP1 DUP2 MSTORE PUSH1 0x20 ADD PUSH1 0x0 KECCAK256 PUSH1 0x2 ADD PUSH1 0x0 SWAP1 SLOAD SWAP1 PUSH2 0x100 EXP SWAP1 DIV PUSH20 0xFFFFFFFFFFFFFFFFFFFFFFFFFFFFFFFFFFFFFFFF AND PUSH20 0xFFFFFFFFFFFFFFFFFFFFFFFFFFFFFFFFFFFFFFFF AND EQ ISZERO PUSH2 0x1DA7 JUMPI PUSH1 0x40 MLOAD PUSH32 0x8C379A000000000000000000000000000000000000000000000000000000000 DUP2 MSTORE PUSH1 0x4 ADD PUSH2 0x1D9E SWAP1 PUSH2 0x2A7A JUMP JUMPDEST PUSH1 0x40 MLOAD DUP1 SWAP2 SUB SWAP1 REVERT JUMPDEST PUSH1 0x2 DUP1 PUSH1 0x0 DUP5 DUP2 MSTORE PUSH1 0x20 ADD SWAP1 DUP2 MSTORE PUSH1 0x20 ADD PUSH1 0x0 KECCAK256 PUSH1 0x0 ADD PUSH1 0x0 PUSH2 0x100 EXP DUP2 SLOAD DUP2 PUSH1 0xFF MUL NOT AND SWAP1 DUP4 PUSH1 0x3 DUP2 GT ISZERO PUSH2 0x1E06 JUMPI PUSH32 0x4E487B7100000000000000000000000000000000000000000000000000000000 PUSH1 0x0 MSTORE PUSH1 0x21 PUSH1 0x4 MSTORE PUSH1 0x24 PUSH1 0x0 REVERT JUMPDEST MUL OR SWAP1 SSTORE POP PUSH1 0x1 SWAP1 POP SWAP2 SWAP1 POP JUMP JUMPDEST PUSH1 0x60 DUP1 PUSH1 0x60 PUSH1 0x0 PUSH1 0x1 SLOAD PUSH8 0xFFFFFFFFFFFFFFFF DUP2 GT ISZERO PUSH2 0x1E5D JUMPI PUSH32 0x4E487B7100000000000000000000000000000000000000000000000000000000 PUSH1 0x0 MSTORE PUSH1 0x41 PUSH1 0x4 MSTORE PUSH1 0x24 PUSH1 0x0 REVERT JUMPDEST PUSH1 0x40 MLOAD SWAP1 DUP1 DUP3 MSTORE DUP1 PUSH1 0x20 MUL PUSH1 0x20 ADD DUP3 ADD PUSH1 0x40 MSTORE DUP1 ISZERO PUSH2 0x1E8B JUMPI DUP2 PUSH1 0x20 ADD PUSH1 0x20 DUP3 MUL DUP1 CALLDATASIZE DUP4 CALLDATACOPY DUP1 DUP3 ADD SWAP2 POP POP SWAP1 POP JUMPDEST POP SWAP1 POP PUSH1 0x0 PUSH1 0x1 SLOAD PUSH8 0xFFFFFFFFFFFFFFFF DUP2 GT ISZERO PUSH2 0x1ED2 JUMPI PUSH32 0x4E487B7100000000000000000000000000000000000000000000000000000000 PUSH1 0x0 MSTORE PUSH1 0x41 PUSH1 0x4 MSTORE PUSH1 0x24 PUSH1 0x0 REVERT JUMPDEST PUSH1 0x40 MLOAD SWAP1 DUP1 DUP3 MSTORE DUP1 PUSH1 0x20 MUL PUSH1 0x20 ADD DUP3 ADD PUSH1 0x40 MSTORE DUP1 ISZERO PUSH2 0x1F00 JUMPI DUP2 PUSH1 0x20 ADD PUSH1 0x20 DUP3 MUL DUP1 CALLDATASIZE DUP4 CALLDATACOPY DUP1 DUP3 ADD SWAP2 POP POP SWAP1 POP JUMPDEST POP SWAP1 POP PUSH1 0x0 PUSH1 0x1 SLOAD PUSH8 0xFFFFFFFFFFFFFFFF DUP2 GT ISZERO PUSH2 0x1F47 JUMPI PUSH32 0x4E487B7100000000000000000000000000000000000000000000000000000000 PUSH1 0x0 MSTORE PUSH1 0x41 PUSH1 0x4 MSTORE PUSH1 0x24 PUSH1 0x0 REVERT JUMPDEST PUSH1 0x40 MLOAD SWAP1 DUP1 DUP3 MSTORE DUP1 PUSH1 0x20 MUL PUSH1 0x20 ADD DUP3 ADD PUSH1 0x40 MSTORE DUP1 ISZERO PUSH2 0x1F75 JUMPI DUP2 PUSH1 0x20 ADD PUSH1 0x20 DUP3 MUL DUP1 CALLDATASIZE DUP4 CALLDATACOPY DUP1 DUP3 ADD SWAP2 POP POP SWAP1 POP JUMPDEST POP SWAP1 POP PUSH1 0x0 JUMPDEST PUSH1 0x1 SLOAD DUP2 LT ISZERO PUSH2 0x2179 JUMPI PUSH1 0x2 PUSH1 0x0 DUP3 DUP2 MSTORE PUSH1 0x20 ADD SWAP1 DUP2 MSTORE PUSH1 0x20 ADD PUSH1 0x0 KECCAK256 PUSH1 0x0 ADD PUSH1 0x0 SWAP1 SLOAD SWAP1 PUSH2 0x100 EXP SWAP1 DIV PUSH1 0xFF AND DUP5 DUP3 DUP2 MLOAD DUP2 LT PUSH2 0x1FE2 JUMPI PUSH32 0x4E487B7100000000000000000000000000000000000000000000000000000000 PUSH1 0x0 MSTORE PUSH1 0x32 PUSH1 0x4 MSTORE PUSH1 0x24 PUSH1 0x0 REVERT JUMPDEST PUSH1 0x20 MUL PUSH1 0x20 ADD ADD SWAP1 PUSH1 0x3 DUP2 GT ISZERO PUSH2 0x2022 JUMPI PUSH32 0x4E487B7100000000000000000000000000000000000000000000000000000000 PUSH1 0x0 MSTORE PUSH1 0x21 PUSH1 0x4 MSTORE PUSH1 0x24 PUSH1 0x0 REVERT JUMPDEST SWAP1 DUP2 PUSH1 0x3 DUP2 GT ISZERO PUSH2 0x205C JUMPI PUSH32 0x4E487B7100000000000000000000000000000000000000000000000000000000 PUSH1 0x0 MSTORE PUSH1 0x21 PUSH1 0x4 MSTORE PUSH1 0x24 PUSH1 0x0 REVERT JUMPDEST DUP2 MSTORE POP POP PUSH1 0x2 PUSH1 0x0 DUP3 DUP2 MSTORE PUSH1 0x20 ADD SWAP1 DUP2 MSTORE PUSH1 0x20 ADD PUSH1 0x0 KECCAK256 PUSH1 0x1 ADD SLOAD DUP4 DUP3 DUP2 MLOAD DUP2 LT PUSH2 0x20B0 JUMPI PUSH32 0x4E487B7100000000000000000000000000000000000000000000000000000000 PUSH1 0x0 MSTORE PUSH1 0x32 PUSH1 0x4 MSTORE PUSH1 0x24 PUSH1 0x0 REVERT JUMPDEST PUSH1 0x20 MUL PUSH1 0x20 ADD ADD DUP2 DUP2 MSTORE POP POP PUSH1 0x2 PUSH1 0x0 DUP3 DUP2 MSTORE PUSH1 0x20 ADD SWAP1 DUP2 MSTORE PUSH1 0x20 ADD PUSH1 0x0 KECCAK256 PUSH1 0x2 ADD PUSH1 0x0 SWAP1 SLOAD SWAP1 PUSH2 0x100 EXP SWAP1 DIV PUSH20 0xFFFFFFFFFFFFFFFFFFFFFFFFFFFFFFFFFFFFFFFF AND DUP3 DUP3 DUP2 MLOAD DUP2 LT PUSH2 0x212C JUMPI PUSH32 0x4E487B7100000000000000000000000000000000000000000000000000000000 PUSH1 0x0 MSTORE PUSH1 0x32 PUSH1 0x4 MSTORE PUSH1 0x24 PUSH1 0x0 REVERT JUMPDEST PUSH1 0x20 MUL PUSH1 0x20 ADD ADD SWAP1 PUSH20 0xFFFFFFFFFFFFFFFFFFFFFFFFFFFFFFFFFFFFFFFF AND SWAP1 DUP2 PUSH20 0xFFFFFFFFFFFFFFFFFFFFFFFFFFFFFFFFFFFFFFFF AND DUP2 MSTORE POP POP DUP1 DUP1 PUSH2 0x2171 SWAP1 PUSH2 0x2DE8 JUMP JUMPDEST SWAP2 POP POP PUSH2 0x1F7B JUMP JUMPDEST POP DUP3 DUP3 DUP3 SWAP6 POP SWAP6 POP SWAP6 POP POP POP POP SWAP1 SWAP2 SWAP3 JUMP JUMPDEST PUSH1 0x0 PUSH1 0x3 PUSH1 0x4 PUSH1 0x0 CALLER PUSH20 0xFFFFFFFFFFFFFFFFFFFFFFFFFFFFFFFFFFFFFFFF AND PUSH20 0xFFFFFFFFFFFFFFFFFFFFFFFFFFFFFFFFFFFFFFFF AND DUP2 MSTORE PUSH1 0x20 ADD SWAP1 DUP2 MSTORE PUSH1 0x20 ADD PUSH1 0x0 KECCAK256 SLOAD EQ DUP1 ISZERO PUSH2 0x2225 JUMPI POP PUSH1 0x5 PUSH1 0x0 CALLER PUSH20 0xFFFFFFFFFFFFFFFFFFFFFFFFFFFFFFFFFFFFFFFF AND PUSH20 0xFFFFFFFFFFFFFFFFFFFFFFFFFFFFFFFFFFFFFFFF AND DUP2 MSTORE PUSH1 0x20 ADD SWAP1 DUP2 MSTORE PUSH1 0x20 ADD PUSH1 0x0 KECCAK256 PUSH1 0x0 SWAP1 SLOAD SWAP1 PUSH2 0x100 EXP SWAP1 DIV PUSH1 0xFF AND JUMPDEST PUSH2 0x2264 JUMPI PUSH1 0x40 MLOAD PUSH32 0x8C379A000000000000000000000000000000000000000000000000000000000 DUP2 MSTORE PUSH1 0x4 ADD PUSH2 0x225B SWAP1 PUSH2 0x2A9A JUMP JUMPDEST PUSH1 0x40 MLOAD DUP1 SWAP2 SUB SWAP1 REVERT JUMPDEST PUSH1 0x0 PUSH20 0xFFFFFFFFFFFFFFFFFFFFFFFFFFFFFFFFFFFFFFFF AND PUSH1 0x3 PUSH1 0x0 DUP5 DUP2 MSTORE PUSH1 0x20 ADD SWAP1 DUP2 MSTORE PUSH1 0x20 ADD PUSH1 0x0 KECCAK256 PUSH1 0x0 SWAP1 SLOAD SWAP1 PUSH2 0x100 EXP SWAP1 DIV PUSH20 0xFFFFFFFFFFFFFFFFFFFFFFFFFFFFFFFFFFFFFFFF AND PUSH20 0xFFFFFFFFFFFFFFFFFFFFFFFFFFFFFFFFFFFFFFFF AND EQ ISZERO PUSH2 0x2307 JUMPI PUSH1 0x40 MLOAD PUSH32 0x8C379A000000000000000000000000000000000000000000000000000000000 DUP2 MSTORE PUSH1 0x4 ADD PUSH2 0x22FE SWAP1 PUSH2 0x2AFA JUMP JUMPDEST PUSH1 0x40 MLOAD DUP1 SWAP2 SUB SWAP1 REVERT JUMPDEST PUSH1 0x3 PUSH1 0x0 DUP4 DUP2 MSTORE PUSH1 0x20 ADD SWAP1 DUP2 MSTORE PUSH1 0x20 ADD PUSH1 0x0 KECCAK256 PUSH1 0x0 SWAP1 SLOAD SWAP1 PUSH2 0x100 EXP SWAP1 DIV PUSH20 0xFFFFFFFFFFFFFFFFFFFFFFFFFFFFFFFFFFFFFFFF AND PUSH1 0x2 PUSH1 0x0 DUP5 DUP2 MSTORE PUSH1 0x20 ADD SWAP1 DUP2 MSTORE PUSH1 0x20 ADD PUSH1 0x0 KECCAK256 PUSH1 0x2 ADD PUSH1 0x0 PUSH2 0x100 EXP DUP2 SLOAD DUP2 PUSH20 0xFFFFFFFFFFFFFFFFFFFFFFFFFFFFFFFFFFFFFFFF MUL NOT AND SWAP1 DUP4 PUSH20 0xFFFFFFFFFFFFFFFFFFFFFFFFFFFFFFFFFFFFFFFF AND MUL OR SWAP1 SSTORE POP PUSH1 0x0 PUSH1 0x3 PUSH1 0x0 DUP5 DUP2 MSTORE PUSH1 0x20 ADD SWAP1 DUP2 MSTORE PUSH1 0x20 ADD PUSH1 0x0 KECCAK256 PUSH1 0x0 PUSH2 0x100 EXP DUP2 SLOAD DUP2 PUSH20 0xFFFFFFFFFFFFFFFFFFFFFFFFFFFFFFFFFFFFFFFF MUL NOT AND SWAP1 DUP4 PUSH20 0xFFFFFFFFFFFFFFFFFFFFFFFFFFFFFFFFFFFFFFFF AND MUL OR SWAP1 SSTORE POP PUSH1 0x1 SWAP1 POP SWAP2 SWAP1 POP JUMP JUMPDEST PUSH1 0x2 PUSH1 0x20 MSTORE DUP1 PUSH1 0x0 MSTORE PUSH1 0x40 PUSH1 0x0 KECCAK256 PUSH1 0x0 SWAP2 POP SWAP1 POP DUP1 PUSH1 0x0 ADD PUSH1 0x0 SWAP1 SLOAD SWAP1 PUSH2 0x100 EXP SWAP1 DIV PUSH1 0xFF AND SWAP1 DUP1 PUSH1 0x1 ADD SLOAD SWAP1 DUP1 PUSH1 0x2 ADD PUSH1 0x0 SWAP1 SLOAD SWAP1 PUSH2 0x100 EXP SWAP1 DIV PUSH20 0xFFFFFFFFFFFFFFFFFFFFFFFFFFFFFFFFFFFFFFFF AND SWAP1 POP DUP4 JUMP JUMPDEST PUSH1 0x0 DUP2 CALLDATALOAD SWAP1 POP PUSH2 0x2451 DUP2 PUSH2 0x334D JUMP JUMPDEST SWAP3 SWAP2 POP POP JUMP JUMPDEST PUSH1 0x0 DUP2 CALLDATALOAD SWAP1 POP PUSH2 0x2466 DUP2 PUSH2 0x3364 JUMP JUMPDEST SWAP3 SWAP2 POP POP JUMP JUMPDEST PUSH1 0x0 PUSH1 0x20 DUP3 DUP5 SUB SLT ISZERO PUSH2 0x247E JUMPI PUSH1 0x0 DUP1 REVERT JUMPDEST PUSH1 0x0 PUSH2 0x248C DUP5 DUP3 DUP6 ADD PUSH2 0x2442 JUMP JUMPDEST SWAP2 POP POP SWAP3 SWAP2 POP POP JUMP JUMPDEST PUSH1 0x0 PUSH1 0x20 DUP3 DUP5 SUB SLT ISZERO PUSH2 0x24A7 JUMPI PUSH1 0x0 DUP1 REVERT JUMPDEST PUSH1 0x0 PUSH2 0x24B5 DUP5 DUP3 DUP6 ADD PUSH2 0x2457 JUMP JUMPDEST SWAP2 POP POP SWAP3 SWAP2 POP POP JUMP JUMPDEST PUSH1 0x0 DUP1 PUSH1 0x40 DUP4 DUP6 SUB SLT ISZERO PUSH2 0x24D1 JUMPI PUSH1 0x0 DUP1 REVERT JUMPDEST PUSH1 0x0 PUSH2 0x24DF DUP6 DUP3 DUP7 ADD PUSH2 0x2457 JUMP JUMPDEST SWAP3 POP POP PUSH1 0x20 PUSH2 0x24F0 DUP6 DUP3 DUP7 ADD PUSH2 0x2442 JUMP JUMPDEST SWAP2 POP POP SWAP3 POP SWAP3 SWAP1 POP JUMP JUMPDEST PUSH1 0x0 DUP1 PUSH1 0x40 DUP4 DUP6 SUB SLT ISZERO PUSH2 0x250D JUMPI PUSH1 0x0 DUP1 REVERT JUMPDEST PUSH1 0x0 PUSH2 0x251B DUP6 DUP3 DUP7 ADD PUSH2 0x2457 JUMP JUMPDEST SWAP3 POP POP PUSH1 0x20 PUSH2 0x252C DUP6 DUP3 DUP7 ADD PUSH2 0x2457 JUMP JUMPDEST SWAP2 POP POP SWAP3 POP SWAP3 SWAP1 POP JUMP JUMPDEST PUSH1 0x0 PUSH2 0x2542 DUP4 DUP4 PUSH2 0x257E JUMP JUMPDEST PUSH1 0x20 DUP4 ADD SWAP1 POP SWAP3 SWAP2 POP POP JUMP JUMPDEST PUSH1 0x0 PUSH2 0x255A DUP4 DUP4 PUSH2 0x26C5 JUMP JUMPDEST PUSH1 0x20 DUP4 ADD SWAP1 POP SWAP3 SWAP2 POP POP JUMP JUMPDEST PUSH1 0x0 PUSH2 0x2572 DUP4 DUP4 PUSH2 0x2968 JUMP JUMPDEST PUSH1 0x20 DUP4 ADD SWAP1 POP SWAP3 SWAP2 POP POP JUMP JUMPDEST PUSH2 0x2587 DUP2 PUSH2 0x2D71 JUMP JUMPDEST DUP3 MSTORE POP POP JUMP JUMPDEST PUSH2 0x2596 DUP2 PUSH2 0x2D71 JUMP JUMPDEST DUP3 MSTORE POP POP JUMP JUMPDEST PUSH1 0x0 PUSH2 0x25A7 DUP3 PUSH2 0x2CE5 JUMP JUMPDEST PUSH2 0x25B1 DUP2 DUP6 PUSH2 0x2D2D JUMP JUMPDEST SWAP4 POP PUSH2 0x25BC DUP4 PUSH2 0x2CB5 JUMP JUMPDEST DUP1 PUSH1 0x0 JUMPDEST DUP4 DUP2 LT ISZERO PUSH2 0x25ED JUMPI DUP2 MLOAD PUSH2 0x25D4 DUP9 DUP3 PUSH2 0x2536 JUMP JUMPDEST SWAP8 POP PUSH2 0x25DF DUP4 PUSH2 0x2D06 JUMP JUMPDEST SWAP3 POP POP PUSH1 0x1 DUP2 ADD SWAP1 POP PUSH2 0x25C0 JUMP JUMPDEST POP DUP6 SWAP4 POP POP POP POP SWAP3 SWAP2 POP POP JUMP JUMPDEST PUSH1 0x0 PUSH2 0x2605 DUP3 PUSH2 0x2CF0 JUMP JUMPDEST PUSH2 0x260F DUP2 DUP6 PUSH2 0x2D4F JUMP JUMPDEST SWAP4 POP PUSH2 0x261A DUP4 PUSH2 0x2CC5 JUMP JUMPDEST DUP1 PUSH1 0x0 JUMPDEST DUP4 DUP2 LT ISZERO PUSH2 0x264B JUMPI DUP2 MLOAD PUSH2 0x2632 DUP9 DUP3 PUSH2 0x254E JUMP JUMPDEST SWAP8 POP PUSH2 0x263D DUP4 PUSH2 0x2D13 JUMP JUMPDEST SWAP3 POP POP PUSH1 0x1 DUP2 ADD SWAP1 POP PUSH2 0x261E JUMP JUMPDEST POP DUP6 SWAP4 POP POP POP POP SWAP3 SWAP2 POP POP JUMP JUMPDEST PUSH1 0x0 PUSH2 0x2663 DUP3 PUSH2 0x2CFB JUMP JUMPDEST PUSH2 0x266D DUP2 DUP6 PUSH2 0x2D3E JUMP JUMPDEST SWAP4 POP PUSH2 0x2678 DUP4 PUSH2 0x2CD5 JUMP JUMPDEST DUP1 PUSH1 0x0 JUMPDEST DUP4 DUP2 LT ISZERO PUSH2 0x26A9 JUMPI DUP2 MLOAD PUSH2 0x2690 DUP9 DUP3 PUSH2 0x2566 JUMP JUMPDEST SWAP8 POP PUSH2 0x269B DUP4 PUSH2 0x2D20 JUMP JUMPDEST SWAP3 POP POP PUSH1 0x1 DUP2 ADD SWAP1 POP PUSH2 0x267C JUMP JUMPDEST POP DUP6 SWAP4 POP POP POP POP SWAP3 SWAP2 POP POP JUMP JUMPDEST PUSH2 0x26BF DUP2 PUSH2 0x2D83 JUMP JUMPDEST DUP3 MSTORE POP POP JUMP JUMPDEST PUSH2 0x26CE DUP2 PUSH2 0x2DD6 JUMP JUMPDEST DUP3 MSTORE POP POP JUMP JUMPDEST PUSH2 0x26DD DUP2 PUSH2 0x2DD6 JUMP JUMPDEST DUP3 MSTORE POP POP JUMP JUMPDEST PUSH2 0x26EC DUP2 PUSH2 0x2DA2 JUMP JUMPDEST DUP3 MSTORE POP POP JUMP JUMPDEST PUSH1 0x0 PUSH2 0x26FF PUSH1 0x14 DUP4 PUSH2 0x2D60 JUMP JUMPDEST SWAP2 POP PUSH2 0x270A DUP3 PUSH2 0x2E8F JUMP JUMPDEST PUSH1 0x20 DUP3 ADD SWAP1 POP SWAP2 SWAP1 POP JUMP JUMPDEST PUSH1 0x0 PUSH2 0x2722 PUSH1 0x31 DUP4 PUSH2 0x2D60 JUMP JUMPDEST SWAP2 POP PUSH2 0x272D DUP3 PUSH2 0x2EB8 JUMP JUMPDEST PUSH1 0x40 DUP3 ADD SWAP1 POP SWAP2 SWAP1 POP JUMP JUMPDEST PUSH1 0x0 PUSH2 0x2745 PUSH1 0x34 DUP4 PUSH2 0x2D60 JUMP JUMPDEST SWAP2 POP PUSH2 0x2750 DUP3 PUSH2 0x2F07 JUMP JUMPDEST PUSH1 0x40 DUP3 ADD SWAP1 POP SWAP2 SWAP1 POP JUMP JUMPDEST PUSH1 0x0 PUSH2 0x2768 PUSH1 0x3A DUP4 PUSH2 0x2D60 JUMP JUMPDEST SWAP2 POP PUSH2 0x2773 DUP3 PUSH2 0x2F56 JUMP JUMPDEST PUSH1 0x40 DUP3 ADD SWAP1 POP SWAP2 SWAP1 POP JUMP JUMPDEST PUSH1 0x0 PUSH2 0x278B PUSH1 0x38 DUP4 PUSH2 0x2D60 JUMP JUMPDEST SWAP2 POP PUSH2 0x2796 DUP3 PUSH2 0x2FA5 JUMP JUMPDEST PUSH1 0x40 DUP3 ADD SWAP1 POP SWAP2 SWAP1 POP JUMP JUMPDEST PUSH1 0x0 PUSH2 0x27AE PUSH1 0x39 DUP4 PUSH2 0x2D60 JUMP JUMPDEST SWAP2 POP PUSH2 0x27B9 DUP3 PUSH2 0x2FF4 JUMP JUMPDEST PUSH1 0x40 DUP3 ADD SWAP1 POP SWAP2 SWAP1 POP JUMP JUMPDEST PUSH1 0x0 PUSH2 0x27D1 PUSH1 0x13 DUP4 PUSH2 0x2D60 JUMP JUMPDEST SWAP2 POP PUSH2 0x27DC DUP3 PUSH2 0x3043 JUMP JUMPDEST PUSH1 0x20 DUP3 ADD SWAP1 POP SWAP2 SWAP1 POP JUMP JUMPDEST PUSH1 0x0 PUSH2 0x27F4 PUSH1 0x2E DUP4 PUSH2 0x2D60 JUMP JUMPDEST SWAP2 POP PUSH2 0x27FF DUP3 PUSH2 0x306C JUMP JUMPDEST PUSH1 0x40 DUP3 ADD SWAP1 POP SWAP2 SWAP1 POP JUMP JUMPDEST PUSH1 0x0 PUSH2 0x2817 PUSH1 0x16 DUP4 PUSH2 0x2D60 JUMP JUMPDEST SWAP2 POP PUSH2 0x2822 DUP3 PUSH2 0x30BB JUMP JUMPDEST PUSH1 0x20 DUP3 ADD SWAP1 POP SWAP2 SWAP1 POP JUMP JUMPDEST PUSH1 0x0 PUSH2 0x283A PUSH1 0x24 DUP4 PUSH2 0x2D60 JUMP JUMPDEST SWAP2 POP PUSH2 0x2845 DUP3 PUSH2 0x30E4 JUMP JUMPDEST PUSH1 0x40 DUP3 ADD SWAP1 POP SWAP2 SWAP1 POP JUMP JUMPDEST PUSH1 0x0 PUSH2 0x285D PUSH1 0x40 DUP4 PUSH2 0x2D60 JUMP JUMPDEST SWAP2 POP PUSH2 0x2868 DUP3 PUSH2 0x3133 JUMP JUMPDEST PUSH1 0x40 DUP3 ADD SWAP1 POP SWAP2 SWAP1 POP JUMP JUMPDEST PUSH1 0x0 PUSH2 0x2880 PUSH1 0x1A DUP4 PUSH2 0x2D60 JUMP JUMPDEST SWAP2 POP PUSH2 0x288B DUP3 PUSH2 0x3182 JUMP JUMPDEST PUSH1 0x20 DUP3 ADD SWAP1 POP SWAP2 SWAP1 POP JUMP JUMPDEST PUSH1 0x0 PUSH2 0x28A3 PUSH1 0x3D DUP4 PUSH2 0x2D60 JUMP JUMPDEST SWAP2 POP PUSH2 0x28AE DUP3 PUSH2 0x31AB JUMP JUMPDEST PUSH1 0x40 DUP3 ADD SWAP1 POP SWAP2 SWAP1 POP JUMP JUMPDEST PUSH1 0x0 PUSH2 0x28C6 PUSH1 0x30 DUP4 PUSH2 0x2D60 JUMP JUMPDEST SWAP2 POP PUSH2 0x28D1 DUP3 PUSH2 0x31FA JUMP JUMPDEST PUSH1 0x40 DUP3 ADD SWAP1 POP SWAP2 SWAP1 POP JUMP JUMPDEST PUSH1 0x0 PUSH2 0x28E9 PUSH1 0x1E DUP4 PUSH2 0x2D60 JUMP JUMPDEST SWAP2 POP PUSH2 0x28F4 DUP3 PUSH2 0x3249 JUMP JUMPDEST PUSH1 0x20 DUP3 ADD SWAP1 POP SWAP2 SWAP1 POP JUMP JUMPDEST PUSH1 0x0 PUSH2 0x290C PUSH1 0x2A DUP4 PUSH2 0x2D60 JUMP JUMPDEST SWAP2 POP PUSH2 0x2917 DUP3 PUSH2 0x3272 JUMP JUMPDEST PUSH1 0x40 DUP3 ADD SWAP1 POP SWAP2 SWAP1 POP JUMP JUMPDEST PUSH1 0x0 PUSH2 0x292F PUSH1 0x19 DUP4 PUSH2 0x2D60 JUMP JUMPDEST SWAP2 POP PUSH2 0x293A DUP3 PUSH2 0x32C1 JUMP JUMPDEST PUSH1 0x20 DUP3 ADD SWAP1 POP SWAP2 SWAP1 POP JUMP JUMPDEST PUSH1 0x0 PUSH2 0x2952 PUSH1 0x36 DUP4 PUSH2 0x2D60 JUMP JUMPDEST SWAP2 POP PUSH2 0x295D DUP3 PUSH2 0x32EA JUMP JUMPDEST PUSH1 0x40 DUP3 ADD SWAP1 POP SWAP2 SWAP1 POP JUMP JUMPDEST PUSH2 0x2971 DUP2 PUSH2 0x2DCC JUMP JUMPDEST DUP3 MSTORE POP POP JUMP JUMPDEST PUSH2 0x2980 DUP2 PUSH2 0x2DCC JUMP JUMPDEST DUP3 MSTORE POP POP JUMP JUMPDEST PUSH1 0x0 PUSH1 0x20 DUP3 ADD SWAP1 POP PUSH2 0x299B PUSH1 0x0 DUP4 ADD DUP5 PUSH2 0x258D JUMP JUMPDEST SWAP3 SWAP2 POP POP JUMP JUMPDEST PUSH1 0x0 PUSH1 0x60 DUP3 ADD SWAP1 POP DUP2 DUP2 SUB PUSH1 0x0 DUP4 ADD MSTORE PUSH2 0x29BB DUP2 DUP7 PUSH2 0x25FA JUMP JUMPDEST SWAP1 POP DUP2 DUP2 SUB PUSH1 0x20 DUP4 ADD MSTORE PUSH2 0x29CF DUP2 DUP6 PUSH2 0x2658 JUMP JUMPDEST SWAP1 POP DUP2 DUP2 SUB PUSH1 0x40 DUP4 ADD MSTORE PUSH2 0x29E3 DUP2 DUP5 PUSH2 0x259C JUMP JUMPDEST SWAP1 POP SWAP5 SWAP4 POP POP POP POP JUMP JUMPDEST PUSH1 0x0 PUSH1 0x20 DUP3 ADD SWAP1 POP PUSH2 0x2A02 PUSH1 0x0 DUP4 ADD DUP5 PUSH2 0x26B6 JUMP JUMPDEST SWAP3 SWAP2 POP POP JUMP JUMPDEST PUSH1 0x0 PUSH1 0x60 DUP3 ADD SWAP1 POP PUSH2 0x2A1D PUSH1 0x0 DUP4 ADD DUP7 PUSH2 0x26D4 JUMP JUMPDEST PUSH2 0x2A2A PUSH1 0x20 DUP4 ADD DUP6 PUSH2 0x2977 JUMP JUMPDEST PUSH2 0x2A37 PUSH1 0x40 DUP4 ADD DUP5 PUSH2 0x258D JUMP JUMPDEST SWAP5 SWAP4 POP POP POP POP JUMP JUMPDEST PUSH1 0x0 PUSH1 0x20 DUP3 ADD SWAP1 POP PUSH2 0x2A54 PUSH1 0x0 DUP4 ADD DUP5 PUSH2 0x26E3 JUMP JUMPDEST SWAP3 SWAP2 POP POP JUMP JUMPDEST PUSH1 0x0 PUSH1 0x20 DUP3 ADD SWAP1 POP DUP2 DUP2 SUB PUSH1 0x0 DUP4 ADD MSTORE PUSH2 0x2A73 DUP2 PUSH2 0x26F2 JUMP JUMPDEST SWAP1 POP SWAP2 SWAP1 POP JUMP JUMPDEST PUSH1 0x0 PUSH1 0x20 DUP3 ADD SWAP1 POP DUP2 DUP2 SUB PUSH1 0x0 DUP4 ADD MSTORE PUSH2 0x2A93 DUP2 PUSH2 0x2715 JUMP JUMPDEST SWAP1 POP SWAP2 SWAP1 POP JUMP JUMPDEST PUSH1 0x0 PUSH1 0x20 DUP3 ADD SWAP1 POP DUP2 DUP2 SUB PUSH1 0x0 DUP4 ADD MSTORE PUSH2 0x2AB3 DUP2 PUSH2 0x2738 JUMP JUMPDEST SWAP1 POP SWAP2 SWAP1 POP JUMP JUMPDEST PUSH1 0x0 PUSH1 0x20 DUP3 ADD SWAP1 POP DUP2 DUP2 SUB PUSH1 0x0 DUP4 ADD MSTORE PUSH2 0x2AD3 DUP2 PUSH2 0x275B JUMP JUMPDEST SWAP1 POP SWAP2 SWAP1 POP JUMP JUMPDEST PUSH1 0x0 PUSH1 0x20 DUP3 ADD SWAP1 POP DUP2 DUP2 SUB PUSH1 0x0 DUP4 ADD MSTORE PUSH2 0x2AF3 DUP2 PUSH2 0x277E JUMP JUMPDEST SWAP1 POP SWAP2 SWAP1 POP JUMP JUMPDEST PUSH1 0x0 PUSH1 0x20 DUP3 ADD SWAP1 POP DUP2 DUP2 SUB PUSH1 0x0 DUP4 ADD MSTORE PUSH2 0x2B13 DUP2 PUSH2 0x27A1 JUMP JUMPDEST SWAP1 POP SWAP2 SWAP1 POP JUMP JUMPDEST PUSH1 0x0 PUSH1 0x20 DUP3 ADD SWAP1 POP DUP2 DUP2 SUB PUSH1 0x0 DUP4 ADD MSTORE PUSH2 0x2B33 DUP2 PUSH2 0x27C4 JUMP JUMPDEST SWAP1 POP SWAP2 SWAP1 POP JUMP JUMPDEST PUSH1 0x0 PUSH1 0x20 DUP3 ADD SWAP1 POP DUP2 DUP2 SUB PUSH1 0x0 DUP4 ADD MSTORE PUSH2 0x2B53 DUP2 PUSH2 0x27E7 JUMP JUMPDEST SWAP1 POP SWAP2 SWAP1 POP JUMP JUMPDEST PUSH1 0x0 PUSH1 0x20 DUP3 ADD SWAP1 POP DUP2 DUP2 SUB PUSH1 0x0 DUP4 ADD MSTORE PUSH2 0x2B73 DUP2 PUSH2 0x280A JUMP JUMPDEST SWAP1 POP SWAP2 SWAP1 POP JUMP JUMPDEST PUSH1 0x0 PUSH1 0x20 DUP3 ADD SWAP1 POP DUP2 DUP2 SUB PUSH1 0x0 DUP4 ADD MSTORE PUSH2 0x2B93 DUP2 PUSH2 0x282D JUMP JUMPDEST SWAP1 POP SWAP2 SWAP1 POP JUMP JUMPDEST PUSH1 0x0 PUSH1 0x20 DUP3 ADD SWAP1 POP DUP2 DUP2 SUB PUSH1 0x0 DUP4 ADD MSTORE PUSH2 0x2BB3 DUP2 PUSH2 0x2850 JUMP JUMPDEST SWAP1 POP SWAP2 SWAP1 POP JUMP JUMPDEST PUSH1 0x0 PUSH1 0x20 DUP3 ADD SWAP1 POP DUP2 DUP2 SUB PUSH1 0x0 DUP4 ADD MSTORE PUSH2 0x2BD3 DUP2 PUSH2 0x2873 JUMP JUMPDEST SWAP1 POP SWAP2 SWAP1 POP JUMP JUMPDEST PUSH1 0x0 PUSH1 0x20 DUP3 ADD SWAP1 POP DUP2 DUP2 SUB PUSH1 0x0 DUP4 ADD MSTORE PUSH2 0x2BF3 DUP2 PUSH2 0x2896 JUMP JUMPDEST SWAP1 POP SWAP2 SWAP1 POP JUMP JUMPDEST PUSH1 0x0 PUSH1 0x20 DUP3 ADD SWAP1 POP DUP2 DUP2 SUB PUSH1 0x0 DUP4 ADD MSTORE PUSH2 0x2C13 DUP2 PUSH2 0x28B9 JUMP JUMPDEST SWAP1 POP SWAP2 SWAP1 POP JUMP JUMPDEST PUSH1 0x0 PUSH1 0x20 DUP3 ADD SWAP1 POP DUP2 DUP2 SUB PUSH1 0x0 DUP4 ADD MSTORE PUSH2 0x2C33 DUP2 PUSH2 0x28DC JUMP JUMPDEST SWAP1 POP SWAP2 SWAP1 POP JUMP JUMPDEST PUSH1 0x0 PUSH1 0x20 DUP3 ADD SWAP1 POP DUP2 DUP2 SUB PUSH1 0x0 DUP4 ADD MSTORE PUSH2 0x2C53 DUP2 PUSH2 0x28FF JUMP JUMPDEST SWAP1 POP SWAP2 SWAP1 POP JUMP JUMPDEST PUSH1 0x0 PUSH1 0x20 DUP3 ADD SWAP1 POP DUP2 DUP2 SUB PUSH1 0x0 DUP4 ADD MSTORE PUSH2 0x2C73 DUP2 PUSH2 0x2922 JUMP JUMPDEST SWAP1 POP SWAP2 SWAP1 POP JUMP JUMPDEST PUSH1 0x0 PUSH1 0x20 DUP3 ADD SWAP1 POP DUP2 DUP2 SUB PUSH1 0x0 DUP4 ADD MSTORE PUSH2 0x2C93 DUP2 PUSH2 0x2945 JUMP JUMPDEST SWAP1 POP SWAP2 SWAP1 POP JUMP JUMPDEST PUSH1 0x0 PUSH1 0x20 DUP3 ADD SWAP1 POP PUSH2 0x2CAF PUSH1 0x0 DUP4 ADD DUP5 PUSH2 0x2977 JUMP JUMPDEST SWAP3 SWAP2 POP POP JUMP JUMPDEST PUSH1 0x0 DUP2 SWAP1 POP PUSH1 0x20 DUP3 ADD SWAP1 POP SWAP2 SWAP1 POP JUMP JUMPDEST PUSH1 0x0 DUP2 SWAP1 POP PUSH1 0x20 DUP3 ADD SWAP1 POP SWAP2 SWAP1 POP JUMP JUMPDEST PUSH1 0x0 DUP2 SWAP1 POP PUSH1 0x20 DUP3 ADD SWAP1 POP SWAP2 SWAP1 POP JUMP JUMPDEST PUSH1 0x0 DUP2 MLOAD SWAP1 POP SWAP2 SWAP1 POP JUMP JUMPDEST PUSH1 0x0 DUP2 MLOAD SWAP1 POP SWAP2 SWAP1 POP JUMP JUMPDEST PUSH1 0x0 DUP2 MLOAD SWAP1 POP SWAP2 SWAP1 POP JUMP JUMPDEST PUSH1 0x0 PUSH1 0x20 DUP3 ADD SWAP1 POP SWAP2 SWAP1 POP JUMP JUMPDEST PUSH1 0x0 PUSH1 0x20 DUP3 ADD SWAP1 POP SWAP2 SWAP1 POP JUMP JUMPDEST PUSH1 0x0 PUSH1 0x20 DUP3 ADD SWAP1 POP SWAP2 SWAP1 POP JUMP JUMPDEST PUSH1 0x0 DUP3 DUP3 MSTORE PUSH1 0x20 DUP3 ADD SWAP1 POP SWAP3 SWAP2 POP POP JUMP JUMPDEST PUSH1 0x0 DUP3 DUP3 MSTORE PUSH1 0x20 DUP3 ADD SWAP1 POP SWAP3 SWAP2 POP POP JUMP JUMPDEST PUSH1 0x0 DUP3 DUP3 MSTORE PUSH1 0x20 DUP3 ADD SWAP1 POP SWAP3 SWAP2 POP POP JUMP JUMPDEST PUSH1 0x0 DUP3 DUP3 MSTORE PUSH1 0x20 DUP3 ADD SWAP1 POP SWAP3 SWAP2 POP POP JUMP JUMPDEST PUSH1 0x0 PUSH2 0x2D7C DUP3 PUSH2 0x2DAC JUMP JUMPDEST SWAP1 POP SWAP2 SWAP1 POP JUMP JUMPDEST PUSH1 0x0 DUP2 ISZERO ISZERO SWAP1 POP SWAP2 SWAP1 POP JUMP JUMPDEST PUSH1 0x0 DUP2 SWAP1 POP PUSH2 0x2D9D DUP3 PUSH2 0x3339 JUMP JUMPDEST SWAP2 SWAP1 POP JUMP JUMPDEST PUSH1 0x0 DUP2 SWAP1 POP SWAP2 SWAP1 POP JUMP JUMPDEST PUSH1 0x0 PUSH20 0xFFFFFFFFFFFFFFFFFFFFFFFFFFFFFFFFFFFFFFFF DUP3 AND SWAP1 POP SWAP2 SWAP1 POP JUMP JUMPDEST PUSH1 0x0 DUP2 SWAP1 POP SWAP2 SWAP1 POP JUMP JUMPDEST PUSH1 0x0 PUSH2 0x2DE1 DUP3 PUSH2 0x2D8F JUMP JUMPDEST SWAP1 POP SWAP2 SWAP1 POP JUMP JUMPDEST PUSH1 0x0 PUSH2 0x2DF3 DUP3 PUSH2 0x2DCC JUMP JUMPDEST SWAP2 POP PUSH32 0xFFFFFFFFFFFFFFFFFFFFFFFFFFFFFFFFFFFFFFFFFFFFFFFFFFFFFFFFFFFFFFFF DUP3 EQ ISZERO PUSH2 0x2E26 JUMPI PUSH2 0x2E25 PUSH2 0x2E31 JUMP JUMPDEST JUMPDEST PUSH1 0x1 DUP3 ADD SWAP1 POP SWAP2 SWAP1 POP JUMP JUMPDEST PUSH32 0x4E487B7100000000000000000000000000000000000000000000000000000000 PUSH1 0x0 MSTORE PUSH1 0x11 PUSH1 0x4 MSTORE PUSH1 0x24 PUSH1 0x0 REVERT JUMPDEST PUSH32 0x4E487B7100000000000000000000000000000000000000000000000000000000 PUSH1 0x0 MSTORE PUSH1 0x21 PUSH1 0x4 MSTORE PUSH1 0x24 PUSH1 0x0 REVERT JUMPDEST PUSH32 0x557365722065786973747320616C726561647921000000000000000000000000 PUSH1 0x0 DUP3 ADD MSTORE POP JUMP JUMPDEST PUSH32 0x4F776E6572206F6620612070726F7065727479206973206E6F7420616C6C6F77 PUSH1 0x0 DUP3 ADD MSTORE PUSH32 0x656420746F20617070726F766520697421000000000000000000000000000000 PUSH1 0x20 DUP3 ADD MSTORE POP JUMP JUMPDEST PUSH32 0x53757065722041646D696E20697320617574686F72697A656420666F72207468 PUSH1 0x0 DUP3 ADD MSTORE PUSH32 0x6973207472616E73616374696F6E206F6E6C7921000000000000000000000000 PUSH1 0x20 DUP3 ADD MSTORE POP JUMP JUMPDEST PUSH32 0x53757065722041646D696E20616E642041646D696E2061726520617574686F72 PUSH1 0x0 DUP3 ADD MSTORE PUSH32 0x697A656420666F722074686973207472616E73616374696F6E21000000000000 PUSH1 0x20 DUP3 ADD MSTORE POP JUMP JUMPDEST PUSH32 0x546869732070726F70657274792068617320612070656E64696E67206368616E PUSH1 0x0 DUP3 ADD MSTORE PUSH32 0x6765206F66206F776E6572736869702072657175657374210000000000000000 PUSH1 0x20 DUP3 ADD MSTORE POP JUMP JUMPDEST PUSH32 0x41206368616E6765206F66206F776E657273686970206973206E6F7420726571 PUSH1 0x0 DUP3 ADD MSTORE PUSH32 0x75657374656420666F7220746869732070726F70657274792100000000000000 PUSH1 0x20 DUP3 ADD MSTORE POP JUMP JUMPDEST PUSH32 0x5573657220646F65736E27742065786973742100000000000000000000000000 PUSH1 0x0 DUP3 ADD MSTORE POP JUMP JUMPDEST PUSH32 0x4F776E657220697320617574686F72697A656420666F72207468697320747261 PUSH1 0x0 DUP3 ADD MSTORE PUSH32 0x6E73616374696F6E206F6E6C7921000000000000000000000000000000000000 PUSH1 0x20 DUP3 ADD MSTORE POP JUMP JUMPDEST PUSH32 0x5573657220697320612053757065722041646D696E2100000000000000000000 PUSH1 0x0 DUP3 ADD MSTORE POP JUMP JUMPDEST PUSH32 0x412072657175657374206973206E6F74206D61646520666F7220746869732075 PUSH1 0x0 DUP3 ADD MSTORE PUSH32 0x7365722100000000000000000000000000000000000000000000000000000000 PUSH1 0x20 DUP3 ADD MSTORE POP JUMP JUMPDEST PUSH32 0x546869732070726F706572747920616C72656164792068617320612070656E64 PUSH1 0x0 DUP3 ADD MSTORE PUSH32 0x696E67206368616E6765206F66206F776E657273686970207265717565737421 PUSH1 0x20 DUP3 ADD MSTORE POP JUMP JUMPDEST PUSH32 0x55736572206973206E6F7420612053757065722041646D696E21000000000000 PUSH1 0x0 DUP3 ADD MSTORE POP JUMP JUMPDEST PUSH32 0x4E6577206F776E657227732061646472657373206D7573742064696666657220 PUSH1 0x0 DUP3 ADD MSTORE PUSH32 0x66726F6D2063757272656E74206F776E65722773206164647265737321000000 PUSH1 0x20 DUP3 ADD MSTORE POP JUMP JUMPDEST PUSH32 0x4F776E6572206F6620612070726F7065727479206973206E6F7420616C6C6F77 PUSH1 0x0 DUP3 ADD MSTORE PUSH32 0x656420746F2072656A6563742069742100000000000000000000000000000000 PUSH1 0x20 DUP3 ADD MSTORE POP JUMP JUMPDEST PUSH32 0x4F776E6572206D75737420626520612076657269666965642075736572210000 PUSH1 0x0 DUP3 ADD MSTORE POP JUMP JUMPDEST PUSH32 0x5573657220697320617574686F72697A65642061732053757065722041646D69 PUSH1 0x0 DUP3 ADD MSTORE PUSH32 0x6E20616C72656164792100000000000000000000000000000000000000000000 PUSH1 0x20 DUP3 ADD MSTORE POP JUMP JUMPDEST PUSH32 0x5573657220697320616E2041646D696E20616C72656164792100000000000000 PUSH1 0x0 DUP3 ADD MSTORE POP JUMP JUMPDEST PUSH32 0x43726561746F722041646D696E20697320617574686F72697A656420666F7220 PUSH1 0x0 DUP3 ADD MSTORE PUSH32 0x74686973207472616E73616374696F6E206F6E6C792100000000000000000000 PUSH1 0x20 DUP3 ADD MSTORE POP JUMP JUMPDEST PUSH1 0x4 DUP2 LT PUSH2 0x334A JUMPI PUSH2 0x3349 PUSH2 0x2E60 JUMP JUMPDEST JUMPDEST POP JUMP JUMPDEST PUSH2 0x3356 DUP2 PUSH2 0x2D71 JUMP JUMPDEST DUP2 EQ PUSH2 0x3361 JUMPI PUSH1 0x0 DUP1 REVERT JUMPDEST POP JUMP JUMPDEST PUSH2 0x336D DUP2 PUSH2 0x2DCC JUMP JUMPDEST DUP2 EQ PUSH2 0x3378 JUMPI PUSH1 0x0 DUP1 REVERT JUMPDEST POP JUMP INVALID LOG2 PUSH5 0x6970667358 0x22 SLT KECCAK256 0xEA 0x5C PUSH8 0xFF4F1550B3A9A2AF TIMESTAMP TIMESTAMP LOG2 XOR SWAP2 0xC4 DUP14 JUMPI XOR CALLVALUE 0xB8 0xD1 0xED 0xF8 PUSH10 0x38FCAFA2255564736F6C PUSH4 0x43000802 STOP CALLER "},"gasEstimates":{"creation":{"codeDepositCost":"2646600","executionCost":"86482","totalCost":"2733082"},"external":{"addNewAdmin(address)":"24476","addNewSuperAdmin(address)":"24448","addNewUser(address)":"23650","approveChangeOwnership(uint256)":"46320","approveProperty(uint256)":"24442","approveUsers(address)":"24482","changeOwnership(uint256,address)":"25700","changeValue(uint256,uint256)":"infinite","createProperty(uint256,address)":"infinite","creatorAdmin()":"1278","getProperties()":"infinite","getPropertyDetails(uint256)":"infinite","propId()":"1241","propOwnerChange(uint256)":"1584","properties(uint256)":"infinite","rejectProperty(uint256)":"24466","removeSuperAdmin(address)":"31299","removeUsers(address)":"30501","users(address)":"1581","verifiedUsers(address)":"1567"}},"methodIdentifiers":{"addNewAdmin(address)":"0a1b10e1","addNewSuperAdmin(address)":"4c82d0e4","addNewUser(address)":"c1d5e84f","approveChangeOwnership(uint256)":"eeb294e2","approveProperty(uint256)":"e9b66f8c","approveUsers(address)":"32282f8e","changeOwnership(uint256,address)":"89b3887e","changeValue(uint256,uint256)":"8709b2e7","createProperty(uint256,address)":"9935c963","creatorAdmin()":"7b855bf0","getProperties()":"ec0cfd0b","getPropertyDetails(uint256)":"126dbe43","propId()":"422fd14e","propOwnerChange(uint256)":"9c4ea46a","properties(uint256)":"f7b10808","rejectProperty(uint256)":"27983fcf","removeSuperAdmin(address)":"4902e4aa","removeUsers(address)":"be1d0441","users(address)":"a87430ba","verifiedUsers(address)":"e35fe366"}},"storageLayout":{"storage":[{"astId":3,"contract":"PropertyOwnership.sol:PropertyOwnership","label":"creatorAdmin","offset":0,"slot":"0","type":"t_address"},{"astId":5,"contract":"PropertyOwnership.sol:PropertyOwnership","label":"propId","offset":0,"slot":"1","type":"t_uint256"},{"astId":23,"contract":"PropertyOwnership.sol:PropertyOwnership","label":"properties","offset":0,"slot":"2","type":"t_mapping(t_uint256,t_struct(PropertyDetail)18_storage)"},{"astId":27,"contract":"PropertyOwnership.sol:PropertyOwnership","label":"propOwnerChange","offset":0,"slot":"3","type":"t_mapping(t_uint256,t_address)"},{"astId":31,"contract":"PropertyOwnership.sol:PropertyOwnership","label":"users","offset":0,"slot":"4","type":"t_mapping(t_address,t_int256)"},{"astId":35,"contract":"PropertyOwnership.sol:PropertyOwnership","label":"verifiedUsers","offset":0,"slot":"5","type":"t_mapping(t_address,t_bool)"}],"types":{"t_address":{"encoding":"inplace","label":"address","numberOfBytes":"20"},"t_bool":{"encoding":"inplace","label":"bool","numberOfBytes":"1"},"t_enum(Status)10":{"encoding":"inplace","label":"enum PropertyOwnership.Status","numberOfBytes":"1"},"t_int256":{"encoding":"inplace","label":"int256","numberOfBytes":"32"},"t_mapping(t_address,t_bool)":{"encoding":"mapping","key":"t_address","label":"mapping(address => bool)","numberOfBytes":"32","value":"t_bool"},"t_mapping(t_address,t_int256)":{"encoding":"mapping","key":"t_address","label":"mapping(address => int256)","numberOfBytes":"32","value":"t_int256"},"t_mapping(t_uint256,t_address)":{"encoding":"mapping","key":"t_uint256","label":"mapping(uint256 => address)","numberOfBytes":"32","value":"t_address"},"t_mapping(t_uint256,t_struct(PropertyDetail)18_storage)":{"encoding":"mapping","key":"t_uint256","label":"mapping(uint256 => struct PropertyOwnership.PropertyDetail)","numberOfBytes":"32","value":"t_struct(PropertyDetail)18_storage"},"t_struct(PropertyDetail)18_storage":{"encoding":"inplace","label":"struct PropertyOwnership.PropertyDetail","members":[{"astId":13,"contract":"PropertyOwnership.sol:PropertyOwnership","label":"status","offset":0,"slot":"0","type":"t_enum(Status)10"},{"astId":15,"contract":"PropertyOwnership.sol:PropertyOwnership","label":"value","offset":0,"slot":"1","type":"t_uint256"},{"astId":17,"contract":"PropertyOwnership.sol:PropertyOwnership","label":"currOwner","offset":0,"slot":"2","type":"t_address"}],"numberOfBytes":"96"},"t_uint256":{"encoding":"inplace","label":"uint256","numberOfBytes":"32"}}},"userdoc":{"kind":"user","methods":{},"version":1}}